{"contracts/RideHailing.sol":{"RideHailing":{"abi":[{"inputs":[{"internalType":"address","name":"_usdc","type":"address"},{"internalType":"address","name":"_treasury","type":"address"}],"stateMutability":"nonpayable","type":"constructor"},{"anonymous":false,"inputs":[{"indexed":true,"internalType":"uint256","name":"rideId","type":"uint256"},{"indexed":false,"internalType":"bytes32","name":"newDropoffHash","type":"bytes32"},{"indexed":false,"internalType":"uint256","name":"newFare","type":"uint256"}],"name":"AmendmentAccepted","type":"event"},{"anonymous":false,"inputs":[{"indexed":true,"internalType":"uint256","name":"rideId","type":"uint256"},{"indexed":false,"internalType":"bytes32","name":"newDropoffHash","type":"bytes32"},{"indexed":false,"internalType":"uint256","name":"newFare","type":"uint256"}],"name":"AmendmentProposed","type":"event"},{"anonymous":false,"inputs":[{"indexed":true,"internalType":"uint256","name":"rideId","type":"uint256"}],"name":"AmendmentRejected","type":"event"},{"anonymous":false,"inputs":[{"indexed":true,"internalType":"uint256","name":"rideId","type":"uint256"},{"indexed":false,"internalType":"address","name":"by","type":"address"},{"indexed":false,"internalType":"enum RideHailing.DisputeTier","name":"tier","type":"uint8"}],"name":"DisputeRaised","type":"event"},{"anonymous":false,"inputs":[{"indexed":true,"internalType":"uint256","name":"rideId","type":"uint256"},{"indexed":false,"internalType":"address","name":"winner","type":"address"},{"indexed":false,"internalType":"enum RideHailing.DisputeTier","name":"tier","type":"uint8"}],"name":"DisputeResolved","type":"event"},{"anonymous":false,"inputs":[{"indexed":true,"internalType":"address","name":"driver","type":"address"}],"name":"DriverVerified","type":"event"},{"anonymous":false,"inputs":[{"indexed":true,"internalType":"uint256","name":"rideId","type":"uint256"},{"indexed":true,"internalType":"address","name":"by","type":"address"},{"indexed":false,"internalType":"uint256","name":"amount","type":"uint256"}],"name":"OfferMade","type":"event"},{"anonymous":false,"inputs":[{"indexed":true,"internalType":"address","name":"previousOwner","type":"address"},{"indexed":true,"internalType":"address","name":"newOwner","type":"address"}],"name":"OwnershipTransferred","type":"event"},{"anonymous":false,"inputs":[{"indexed":true,"internalType":"uint256","name":"rideId","type":"uint256"},{"indexed":true,"internalType":"address","name":"rater","type":"address"},{"indexed":true,"internalType":"address","name":"rated","type":"address"},{"indexed":false,"internalType":"uint256","name":"score","type":"uint256"}],"name":"RatingSubmitted","type":"event"},{"anonymous":false,"inputs":[{"indexed":true,"internalType":"uint256","name":"rideId","type":"uint256"},{"indexed":true,"internalType":"address","name":"driver","type":"address"},{"indexed":false,"internalType":"uint256","name":"agreedFare","type":"uint256"}],"name":"RideAccepted","type":"event"},{"anonymous":false,"inputs":[{"indexed":true,"internalType":"uint256","name":"rideId","type":"uint256"}],"name":"RideCancelled","type":"event"},{"anonymous":false,"inputs":[{"indexed":true,"internalType":"uint256","name":"rideId","type":"uint256"},{"indexed":false,"internalType":"uint256","name":"driverPayout","type":"uint256"},{"indexed":false,"internalType":"uint256","name":"treasuryFee","type":"uint256"}],"name":"RideCompleted","type":"event"},{"anonymous":false,"inputs":[{"indexed":true,"internalType":"uint256","name":"rideId","type":"uint256"},{"indexed":true,"internalType":"address","name":"rider","type":"address"},{"indexed":false,"internalType":"bytes32","name":"pickupHash","type":"bytes32"},{"indexed":false,"internalType":"bytes32","name":"dropoffHash","type":"bytes32"},{"indexed":false,"internalType":"uint256","name":"recommendedFare","type":"uint256"},{"indexed":false,"internalType":"uint256","name":"bandMin","type":"uint256"},{"indexed":false,"internalType":"uint256","name":"bandMax","type":"uint256"}],"name":"RideRequested","type":"event"},{"anonymous":false,"inputs":[{"indexed":true,"internalType":"uint256","name":"rideId","type":"uint256"},{"indexed":false,"internalType":"uint256","name":"startedAt","type":"uint256"}],"name":"RideStarted","type":"event"},{"anonymous":false,"inputs":[{"indexed":true,"internalType":"uint256","name":"rideId","type":"uint256"},{"indexed":false,"internalType":"bytes32","name":"routeLogHash","type":"bytes32"}],"name":"RouteLogSubmitted","type":"event"},{"anonymous":false,"inputs":[{"indexed":true,"internalType":"uint256","name":"rideId","type":"uint256"},{"indexed":false,"internalType":"address","name":"driver","type":"address"}],"name":"TimeoutClaimed","type":"event"},{"inputs":[{"internalType":"uint256","name":"rideId","type":"uint256"}],"name":"acceptAmendment","outputs":[],"stateMutability":"nonpayable","type":"function"},{"inputs":[{"internalType":"uint256","name":"rideId","type":"uint256"}],"name":"acceptOffer","outputs":[],"stateMutability":"nonpayable","type":"function"},{"inputs":[{"internalType":"uint256","name":"rideId","type":"uint256"}],"name":"acceptRecommended","outputs":[],"stateMutability":"nonpayable","type":"function"},{"inputs":[],"name":"bandMaxPct","outputs":[{"internalType":"uint256","name":"","type":"uint256"}],"stateMutability":"view","type":"function"},{"inputs":[],"name":"bandMinPct","outputs":[{"internalType":"uint256","name":"","type":"uint256"}],"stateMutability":"view","type":"function"},{"inputs":[],"name":"bondPct","outputs":[{"internalType":"uint256","name":"","type":"uint256"}],"stateMutability":"view","type":"function"},{"inputs":[{"internalType":"uint256","name":"rideId","type":"uint256"}],"name":"cancelNegotiation","outputs":[],"stateMutability":"nonpayable","type":"function"},{"inputs":[{"internalType":"uint256","name":"rideId","type":"uint256"}],"name":"claimTimeout","outputs":[],"stateMutability":"nonpayable","type":"function"},{"inputs":[{"internalType":"uint256","name":"rideId","type":"uint256"}],"name":"completeRide","outputs":[],"stateMutability":"nonpayable","type":"function"},{"inputs":[{"internalType":"uint256","name":"rideId","type":"uint256"},{"internalType":"uint256","name":"newFare","type":"uint256"}],"name":"counterOffer","outputs":[],"stateMutability":"nonpayable","type":"function"},{"inputs":[{"internalType":"address","name":"wallet","type":"address"}],"name":"getAverageScore","outputs":[{"internalType":"uint256","name":"","type":"uint256"}],"stateMutability":"view","type":"function"},{"inputs":[{"internalType":"address","name":"wallet","type":"address"}],"name":"getReputation","outputs":[{"components":[{"internalType":"uint256","name":"totalRides","type":"uint256"},{"internalType":"uint256","name":"ratingSum","type":"uint256"},{"internalType":"uint256","name":"ratingCount","type":"uint256"},{"internalType":"uint256","name":"disputesLost","type":"uint256"},{"internalType":"uint256","name":"completionCount","type":"uint256"},{"internalType":"bool","name":"isVerifiedDriver","type":"bool"},{"internalType":"enum RideHailing.ReputationTier","name":"tier","type":"uint8"}],"internalType":"struct RideHailing.Reputation","name":"","type":"tuple"}],"stateMutability":"view","type":"function"},{"inputs":[{"internalType":"uint256","name":"rideId","type":"uint256"}],"name":"getRide","outputs":[{"components":[{"internalType":"address","name":"rider","type":"address"},{"internalType":"address","name":"driver","type":"address"},{"internalType":"bytes32","name":"pickupHash","type":"bytes32"},{"internalType":"bytes32","name":"dropoffHash","type":"bytes32"},{"internalType":"uint256","name":"recommendedFare","type":"uint256"},{"internalType":"uint256","name":"bandMin","type":"uint256"},{"internalType":"uint256","name":"bandMax","type":"uint256"},{"internalType":"uint256","name":"currentOffer","type":"uint256"},{"internalType":"address","name":"offerFrom","type":"address"},{"internalType":"uint256","name":"negotiationRoundsUsed","type":"uint256"},{"internalType":"uint256","name":"negotiationDeadline","type":"uint256"},{"internalType":"uint256","name":"agreedFare","type":"uint256"},{"internalType":"uint256","name":"driverBond","type":"uint256"},{"internalType":"uint256","name":"requestedAt","type":"uint256"},{"internalType":"uint256","name":"acceptedAt","type":"uint256"},{"internalType":"uint256","name":"startedAt","type":"uint256"},{"internalType":"uint256","name":"expectedDuration","type":"uint256"},{"internalType":"uint256","name":"completedAt","type":"uint256"},{"internalType":"enum RideHailing.RideState","name":"state","type":"uint8"},{"internalType":"bool","name":"amendmentPending","type":"bool"},{"internalType":"bytes32","name":"newDropoffHash","type":"bytes32"},{"internalType":"uint256","name":"newFareProposed","type":"uint256"},{"internalType":"enum RideHailing.DisputeTier","name":"disputeTier","type":"uint8"},{"internalType":"bytes32","name":"evidenceHash","type":"bytes32"},{"internalType":"address","name":"disputeRaisedBy","type":"address"},{"internalType":"bytes32","name":"routeLogHash","type":"bytes32"}],"internalType":"struct RideHailing.Ride","name":"","type":"tuple"}],"stateMutability":"view","type":"function"},{"inputs":[],"name":"negotiationRounds","outputs":[{"internalType":"uint256","name":"","type":"uint256"}],"stateMutability":"view","type":"function"},{"inputs":[],"name":"negotiationWindow","outputs":[{"internalType":"uint256","name":"","type":"uint256"}],"stateMutability":"view","type":"function"},{"inputs":[],"name":"owner","outputs":[{"internalType":"address","name":"","type":"address"}],"stateMutability":"view","type":"function"},{"inputs":[],"name":"platformFeePct","outputs":[{"internalType":"uint256","name":"","type":"uint256"}],"stateMutability":"view","type":"function"},{"inputs":[{"internalType":"uint256","name":"rideId","type":"uint256"},{"internalType":"bytes32","name":"_newDropoffHash","type":"bytes32"},{"internalType":"uint256","name":"_newFare","type":"uint256"}],"name":"proposeAmendment","outputs":[],"stateMutability":"nonpayable","type":"function"},{"inputs":[{"internalType":"uint256","name":"rideId","type":"uint256"},{"internalType":"bytes32","name":"_evidenceHash","type":"bytes32"}],"name":"raiseDispute","outputs":[],"stateMutability":"nonpayable","type":"function"},{"inputs":[{"internalType":"uint256","name":"rideId","type":"uint256"}],"name":"rejectAmendment","outputs":[],"stateMutability":"nonpayable","type":"function"},{"inputs":[],"name":"renounceOwnership","outputs":[],"stateMutability":"nonpayable","type":"function"},{"inputs":[{"internalType":"address","name":"","type":"address"}],"name":"reputations","outputs":[{"internalType":"uint256","name":"totalRides","type":"uint256"},{"internalType":"uint256","name":"ratingSum","type":"uint256"},{"internalType":"uint256","name":"ratingCount","type":"uint256"},{"internalType":"uint256","name":"disputesLost","type":"uint256"},{"internalType":"uint256","name":"completionCount","type":"uint256"},{"internalType":"bool","name":"isVerifiedDriver","type":"bool"},{"internalType":"enum RideHailing.ReputationTier","name":"tier","type":"uint8"}],"stateMutability":"view","type":"function"},{"inputs":[{"internalType":"bytes32","name":"_pickupHash","type":"bytes32"},{"internalType":"bytes32","name":"_dropoffHash","type":"bytes32"},{"internalType":"uint256","name":"_recommendedFare","type":"uint256"},{"internalType":"uint256","name":"_expectedDuration","type":"uint256"},{"internalType":"uint256","name":"_openingOffer","type":"uint256"}],"name":"requestRide","outputs":[{"internalType":"uint256","name":"","type":"uint256"}],"stateMutability":"nonpayable","type":"function"},{"inputs":[{"internalType":"uint256","name":"rideId","type":"uint256"},{"internalType":"address","name":"winner","type":"address"}],"name":"resolveByPanel","outputs":[],"stateMutability":"nonpayable","type":"function"},{"inputs":[],"name":"rideCount","outputs":[{"internalType":"uint256","name":"","type":"uint256"}],"stateMutability":"view","type":"function"},{"inputs":[{"internalType":"uint256","name":"","type":"uint256"}],"name":"rides","outputs":[{"internalType":"address","name":"rider","type":"address"},{"internalType":"address","name":"driver","type":"address"},{"internalType":"bytes32","name":"pickupHash","type":"bytes32"},{"internalType":"bytes32","name":"dropoffHash","type":"bytes32"},{"internalType":"uint256","name":"recommendedFare","type":"uint256"},{"internalType":"uint256","name":"bandMin","type":"uint256"},{"internalType":"uint256","name":"bandMax","type":"uint256"},{"internalType":"uint256","name":"currentOffer","type":"uint256"},{"internalType":"address","name":"offerFrom","type":"address"},{"internalType":"uint256","name":"negotiationRoundsUsed","type":"uint256"},{"internalType":"uint256","name":"negotiationDeadline","type":"uint256"},{"internalType":"uint256","name":"agreedFare","type":"uint256"},{"internalType":"uint256","name":"driverBond","type":"uint256"},{"internalType":"uint256","name":"requestedAt","type":"uint256"},{"internalType":"uint256","name":"acceptedAt","type":"uint256"},{"internalType":"uint256","name":"startedAt","type":"uint256"},{"internalType":"uint256","name":"expectedDuration","type":"uint256"},{"internalType":"uint256","name":"completedAt","type":"uint256"},{"internalType":"enum RideHailing.RideState","name":"state","type":"uint8"},{"internalType":"bool","name":"amendmentPending","type":"bool"},{"internalType":"bytes32","name":"newDropoffHash","type":"bytes32"},{"internalType":"uint256","name":"newFareProposed","type":"uint256"},{"internalType":"enum RideHailing.DisputeTier","name":"disputeTier","type":"uint8"},{"internalType":"bytes32","name":"evidenceHash","type":"bytes32"},{"internalType":"address","name":"disputeRaisedBy","type":"address"},{"internalType":"bytes32","name":"routeLogHash","type":"bytes32"}],"stateMutability":"view","type":"function"},{"inputs":[{"internalType":"uint256","name":"_pct","type":"uint256"}],"name":"setBondPct","outputs":[],"stateMutability":"nonpayable","type":"function"},{"inputs":[{"internalType":"uint256","name":"_pct","type":"uint256"}],"name":"setPlatformFee","outputs":[],"stateMutability":"nonpayable","type":"function"},{"inputs":[{"internalType":"uint256","name":"_seconds","type":"uint256"}],"name":"setTimeoutWindow","outputs":[],"stateMutability":"nonpayable","type":"function"},{"inputs":[{"internalType":"address","name":"_treasury","type":"address"}],"name":"setTreasury","outputs":[],"stateMutability":"nonpayable","type":"function"},{"inputs":[{"internalType":"uint256","name":"rideId","type":"uint256"}],"name":"startRide","outputs":[],"stateMutability":"nonpayable","type":"function"},{"inputs":[{"internalType":"uint256","name":"rideId","type":"uint256"},{"internalType":"uint256","name":"score","type":"uint256"}],"name":"submitRating","outputs":[],"stateMutability":"nonpayable","type":"function"},{"inputs":[{"internalType":"uint256","name":"rideId","type":"uint256"},{"internalType":"bytes32","name":"_routeLogHash","type":"bytes32"}],"name":"submitRouteLog","outputs":[],"stateMutability":"nonpayable","type":"function"},{"inputs":[],"name":"timeoutWindow","outputs":[{"internalType":"uint256","name":"","type":"uint256"}],"stateMutability":"view","type":"function"},{"inputs":[{"internalType":"address","name":"newOwner","type":"address"}],"name":"transferOwnership","outputs":[],"stateMutability":"nonpayable","type":"function"},{"inputs":[],"name":"treasury","outputs":[{"internalType":"address","name":"","type":"address"}],"stateMutability":"view","type":"function"},{"inputs":[],"name":"usdc","outputs":[{"internalType":"contract IERC20","name":"","type":"address"}],"stateMutability":"view","type":"function"},{"inputs":[{"internalType":"address","name":"driver","type":"address"}],"name":"verifyDriver","outputs":[],"stateMutability":"nonpayable","type":"function"}],"evm":{"bytecode":{"linkReferences":{},"object":"608034620000f557601f6200368438819003918201601f19168301916001600160401b03831184841017620000fa578084926040948552833981010312620000f5576200005a6020620000528362000110565b920162000110565b6001600081815581546001600160a01b0319808216339081179094556040519590946001600160a01b0394909385938416907f8be0079c531659141344cd1fd0a4f28419497f9722a3daafe3b4186f6b6457e09080a36005600455600a600555610708600655600560075560b4600855604b6009556085600a55168360025416176002551690600354161760035561355e9081620001268239f35b600080fd5b634e487b7160e01b600052604160045260246000fd5b51906001600160a01b0382168203620000f55756fe61022080604052600436101561001457600080fd5b60003560e01c90816306fa15a7146127a957508063101aafaf146126ee57806312e8e2c3146126895780631f748c421461266b578063266795d41461257a5780632fca747a1461255c5780633049ae2a1461253e5780633264f266146124db5780633e413bee146124b25780634668781e146124945780634780f77e14612476578063503c5dce146120325780635205f11214611e0557806361d027b314611ddc578063636bf26d14611ca05780637085117114611add578063715018a614611a8057806375c74008146118355780637bab34fa146118175780637c7b0ff4146114905780637ee6e8e01461147257806386e773f1146112c95780638945bd28146112635780638beed922146111b15780638da5cb5b146111885780639006b4f6146110ed5780639c89a0e214610fe6578063a0cdc6c514610e76578063a329d22114610c80578063b47c188314610c62578063b8728c351461099e578063c416dd0b146108de578063c815729d14610472578063d06509fd14610447578063e9c14b1e14610384578063f0f44260146102f7578063f2fde38b146102335763fd096d59146101c257600080fd5b3461022e57602036600319011261022e576101db61282a565b6101e361286d565b6001600160a01b03166000818152600c60205260408120600501805460ff191660011790557f657e787a6e7f3e5131cd8b43ac34ad906223090017fd6d34efbd75f5b9e2cf919080a2005b600080fd5b3461022e57602036600319011261022e5761024c61282a565b61025461286d565b6001600160a01b039081169081156102a357600154826001600160601b0360a01b821617600155167f8be0079c531659141344cd1fd0a4f28419497f9722a3daafe3b4186f6b6457e0600080a3005b60405162461bcd60e51b815260206004820152602660248201527f4f776e61626c653a206e6577206f776e657220697320746865207a65726f206160448201526564647265737360d01b6064820152608490fd5b3461022e57602036600319011261022e5761031061282a565b61031861286d565b6001600160a01b0316801561033f576001600160601b0360a01b6003541617600355600080f35b60405162461bcd60e51b815260206004820152601860248201527f496e76616c6964207472656173757279206164647265737300000000000000006044820152606490fd5b3461022e57602036600319011261022e5760043580600052600b6020526103b960018060a01b03604060002054163314612914565b80600052600b60205260ff6012604060002001541660068110156104315760016103e39114612960565b80600052600b6020526012604060002042600f82015501600260ff198254161790557f884e74a3db749c25405961706345237200f5c61a4928338e070b2e6422da2e626020604051428152a2005b634e487b7160e01b600052602160045260246000fd5b3461022e57602036600319011261022e57602061046a61046561282a565b613463565b604051908152f35b3461022e5760208060031936011261022e5760043561048f612a8b565b80600052600b825260ff601260406000200154166006811015610431576104b69015612960565b80600052600b82526040600020916104d4600a8401544211156129b6565b60088301546001600160a01b0390811633146108995780845416938433148015908161087f575b15610829576107c4575b600781015490600b81019582875584600183019385855416600052600c825260ff60056040600020015460081c1660009061053f81612840565b801580156107b1575b15610752575050906105c560009260126064610566600554846128c5565b04965b600c810188905542600e82015501805460ff191660011790556002546040516323b872dd60e01b8082526001600160a01b0390971660048201523060248201526044810192909252909384929189169183919082906064820190565b03925af19081156106e457600091610735575b50156106f0578161061c575b5050907f44d2438f8c7773102e178fde6e6e3f82515d4f80c38c5a1e5f36bcb01f6322f1929154169354604051908152a36001600055005b600254835460405192835285166001600160a01b0316600483015230602483015260448201929092529084908290606490829060009088165af19081156106e4576000916106b7575b50156106725785806105e4565b60405162461bcd60e51b815260048101849052601a60248201527f44726976657220626f6e64206465706f736974206661696c65640000000000006044820152606490fd5b6106d79150843d86116106dd575b6106cf8183612a51565b810190612a73565b86610665565b503d6106c5565b6040513d6000823e3d90fd5b60405162461bcd60e51b815260048101869052601960248201527f52696465722055534443206465706f736974206661696c6564000000000000006044820152606490fd5b61074c9150863d88116106dd576106cf8183612a51565b886105d8565b80610761600292979397612840565b14610776575b6000929160126105c592610569565b9350905060058102908082046005148115171561079b57606490910492869190610767565b634e487b7160e01b600052601160045260246000fd5b506107bb81612840565b60018114610548565b6001810180548381166107e4576001600160a01b03191633179055610505565b60405162461bcd60e51b815260048101869052601960248201527f5269646520616c726561647920686173206120647269766572000000000000006044820152606490fd5b60405162461bcd60e51b815260048101859052602860248201527f4f6e6c79207269646572206f72207665726966696564206472697665722063616044820152671b881858d8d95c1d60c21b6064820152608490fd5b5033600052600c845260ff600560406000200154166104fb565b60405162461bcd60e51b815260048101839052601c60248201527f43616e6e6f742061636365707420796f7572206f776e206f66666572000000006044820152606490fd5b3461022e57602036600319011261022e5760043580600052600b60205260018060a01b039061091582604060002054163314612914565b80600052600b60205260ff601260406000200154169160068310156104315761094360026109979414612960565b61094b612a8b565b81600052600b602052610987604060002092601284016003815461097560ff8260081c1615612b7d565b42601188015560ff1916179055612c4d565b80600183015416915416906132ce565b6001600055005b3461022e5760208060031936011261022e576004359081600052600b815260018060a01b03906109d982600160406000200154163314612ae1565b82600052600b815260ff601260406000200154166006811015610431576002610a029114612960565b610a0a612a8b565b82600052600b815260406000206012810190610a2c60ff835460081c16612b2d565b600b8101805484601484015496828811600014610b61579182610a5b610a96946002541691875416928a612b70565b6040516323b872dd60e01b81526001600160a01b03909316600484015230602484015260448301529092839190829060009082906064820190565b03925af19081156106e457600091610b44575b5015610aff579260039285927f363e356deb2c47a81a1625ab07673e446497a542c1f228e0231e679af8010213966040965b5560138101549401849055805461ff00191690558351928352820152a26001600055005b60405162461bcd60e51b815260048101859052601e60248201527f4164646974696f6e616c2066617265207061796d656e74206661696c656400006044820152606490fd5b610b5b9150853d87116106dd576106cf8183612a51565b87610aa9565b9050818710610b9d575b50509260039285927f363e356deb2c47a81a1625ab07673e446497a542c1f228e0231e679af801021396604096610adb565b610beb9181610bb6898994600254169288541693612b70565b60405163a9059cbb60e01b81526001600160a01b03909316600484015260248301529092839190829060009082906044820190565b03925af19081156106e457600091610c45575b5015610c0b578680610b6b565b60405162461bcd60e51b815260048101859052601260248201527111985c99481c99599d5b990819985a5b195960721b6044820152606490fd5b610c5c9150853d87116106dd576106cf8183612a51565b87610bfe565b3461022e57600036600319011261022e576020600d54604051908152f35b3461022e5760a036600319011261022e576044356024356084356004358315610e31576064610cb1600954866128c5565b046064610cc0600a54876128c5565b04908084101580610e27575b15610dd357602095610cdf600d546128f8565b9586600d5586600052600b8852601260406000206001600160601b0360a01b338183541617825587600283015583600383015584600483015585600583015586600683015588600783015560088201903390825416179055610d4360085442612907565b600a82015542600d82015560643560108201550160ff19815416905560405194855287850152604084015260608301526080820152827f715f9c7945fde2a603ec88efd3acfdbf83bd75a8b0228c8a854384039623111960a03393a3604051908152817fbdf1e76c2ba2a5c85b93bf78678a4a3b06d63b18422612dac8d7d5249ed46714843393a3604051908152f35b60405162461bcd60e51b815260206004820152602660248201527f4f70656e696e67206f66666572206f757473696465206e65676f74696174696f6044820152651b8818985b9960d21b6064820152608490fd5b5081841115610ccc565b60405162461bcd60e51b815260206004820152601e60248201527f46617265206d7573742062652067726561746572207468616e207a65726f00006044820152606490fd5b3461022e57606036600319011261022e57600435602435604435826000526020600b8152610eb260018060a01b03604060002054163314612914565b83600052600b815260ff601260406000200154166006811015610431576002610edb9114612960565b83600052600b8152604060002060128101805460ff8160081c16610fa157600583015485101580610f93575b15610f565793601481937f1d827405b2ff829e89abe7167a97cce740e9d6cc191e135566be04be196d560b97959361010060409861ff00191617905585601382015501558351928352820152a2005b60405162461bcd60e51b815260048101859052601560248201527413995dc819985c99481bdd5d1cda59194818985b99605a1b6044820152606490fd5b506006830154851115610f07565b60405162461bcd60e51b815260048101859052601960248201527f416d656e646d656e7420616c72656164792070656e64696e67000000000000006044820152606490fd5b3461022e57602036600319011261022e57610fff61282a565b600060c060405161100f81612a35565b8281528260208201528260408201528260608201528260808201528260a0820152015260018060a01b0316600052600c60205260e060406000206040519061105682612a35565b80548252600181015490602083019182526002810154906040840191825260038101546060850190815260056004830154926080870193845201549260ff60a08701948181161515865260081c169460c08701956110b381612840565b86526040519651875251602087015251604086015251606085015251608084015251151560a0830152516110e681612840565b60c0820152f35b3461022e576110fb36612857565b81600052600b60205261111f60018060a01b03600160406000200154163314612ae1565b81600052600b60205260ff601260406000200154166006811015610431577f992832964a8665164f734a66e8372a10a53b1a2d75a0645ceac6d9eaec28c0049161116d600260209314612960565b83600052600b825280601860406000200155604051908152a2005b3461022e57600036600319011261022e576001546040516001600160a01b039091168152602090f35b3461022e57602036600319011261022e5760043580600052600b6020526111e960018060a01b03600160406000200154163314612ae1565b80600052600b60205260ff6012604060002001541660068110156104315760026112139114612960565b80600052600b6020526012604060002001805461123560ff8260081c16612b2d565b61ff00191690557f71f1f55fb89ac764c73bee032aec484a506126af59a9c9665037abc69798e6c5600080a2005b3461022e57602036600319011261022e5760043561127f61286d565b6014811161128c57600555005b60405162461bcd60e51b81526020600482015260156024820152740426f6e642063616e6e6f742065786365656420323605c1b6044820152606490fd5b3461022e5760208060031936011261022e576004359081600052600b815260018060a01b0361130381600160406000200154163314612ae1565b82600052600b825260ff60126040600020015416600681101561043157600261132c9114612960565b611334612a8b565b82600052600b825260406000209060128201805460ff811660068110156104315760041461142d5761136c60ff8260081c1615612b7d565b61138b611382600f860154601087015490612907565b60065490612907565b42106113de5742601185015560ff191660031790557f2506b4eed08805d7166c29cfd21dbb2c2b7f3009ca99b3cf919dd573ed05ad5192916113d09161098786612c4d565b604051338152a26001600055005b60405162461bcd60e51b815260048101869052602160248201527f54696d656f75742077696e646f7720686173206e6f74207061737365642079656044820152601d60fa1b6064820152608490fd5b60405162461bcd60e51b815260048101869052601e60248201527f43616e6e6f742074696d656f75742061206469737075746564207269646500006044820152606490fd5b3461022e57600036600319011261022e576020600454604051908152f35b3461022e57602036600319011261022e5760006103206040516114b281612a02565b8281528260208201528260408201528260608201528260808201528260a08201528260c08201528260e08201528261010082015282610120820152826101408201528261016082015282610180820152826101a0820152826101c0820152826101e08201528261020082015282610220820152826102408201528261026082015282610280820152826102a0820152826102c0820152826102e0820152826103008201520152600435600052600b602052604060002060405161157481612a02565b81546001600160a01b039081168252600183015481166020830152600283015460408301526003830154606083015260048301546080830152600583015460a083015260068084015460c0840152600784015460e084015260088401549091166101008301526009830154610120830152600a830154610140830152600b830154610160830152600c830154610180830152600d8301546101a0830152600e8301546101c0830152600f8301546101e08301526010830154610200830152601183015461022083015260128301549060ff82161015610431576103409260ff82816018941661024086015260081c161515610260840152601381015461028084015260148101546102a084015260ff60158201541661169281612840565b6102c084015260168101546102e084015260018060a01b0360178201541661030084015201546103208201526103206040519160018060a01b03815116835260018060a01b03602082015116602084015260408101516040840152606081015160608401526080810151608084015260a081015160a084015260c081015160c084015260e081015160e084015260018060a01b03610100820151166101008401526101208101516101208401526101408101516101408401526101608101516101608401526101808101516101808401526101a08101516101a08401526101c08101516101c08401526101e08101516101e08401526102008101516102008401526102208101516102208401526117b361024082015161024085019061284a565b61026081015115156102608401526102808101516102808401526102a08101516102a08401526102c08101516117e881612840565b6102c08401526102e08181015190840152610300808201516001600160a01b0316908401520151610320820152f35b3461022e57600036600319011261022e576020600954604051908152f35b3461022e5761184336612857565b90806000526020600b815260ff6012604060002001541660068110156104315761186d9015612960565b81600052600b8152604060002061188a600a8201544211156129b6565b6009810190815490600754821015611a3057600581015486101580611a22575b156119dd5760088101805490916001600160a01b033381841614611998578154163314801561197e575b15611927576007018790556001600160a01b031916331790557fbdf1e76c2ba2a5c85b93bf78678a4a3b06d63b18422612dac8d7d5249ed4671492919061191a906128f8565b90556040519384523393a3005b60405162461bcd60e51b815260048101879052602960248201527f4f6e6c79207269646572206f7220766572696669656420647269766572206361604482015268371031b7bab73a32b960b91b6064820152608490fd5b5033600052600c865260ff600560406000200154166118d4565b60405162461bcd60e51b815260048101889052601d60248201527f43616e6e6f7420636f756e74657220796f7572206f776e206f666665720000006044820152606490fd5b60405162461bcd60e51b815260048101859052601e60248201527f4f66666572206f757473696465206e65676f74696174696f6e2062616e6400006044820152606490fd5b5060068101548611156118aa565b60405162461bcd60e51b815260048101859052602260248201527f4d6178696d756d206e65676f74696174696f6e20726f756e6473207265616368604482015261195960f21b6064820152608490fd5b3461022e57600036600319011261022e57611a9961286d565b600180546001600160a01b031981169091556000906001600160a01b03167f8be0079c531659141344cd1fd0a4f28419497f9722a3daafe3b4186f6b6457e08280a3005b3461022e57611aeb36612857565b81600052602091600b835260406000209260ff601285015416600681101561043157600303611c6757600183101580611c5c575b15611c215783546001600160a01b0394908516338114808015611c12575b15611bcd577fac4cf76091aa7bcbda7b8effaef21948aff7d58739956ca66de94676bf466b5e9392611bb992889215611bc457506001015416955b86169586600052600c83526001604060002001611b96878254612907565b905586600052600c83526002604060002001611bb281546128f8565b9055613331565b6040519384523393a4005b91505095611b78565b60405162461bcd60e51b815260048101859052601f60248201527f4f6e6c792072696465207061727469636970616e74732063616e2072617465006044820152606490fd5b50866001840154163314611b3d565b6064906040519062461bcd60e51b82526004820152601460248201527353636f7265206d757374206265203120746f203560601b6044820152fd5b506005831115611b1f565b6064906040519062461bcd60e51b825260048201526012602482015271149a5919481b9bdd0818dbdb5c1b195d195960721b6044820152fd5b3461022e57611cae36612857565b9080600052600b60205260ff601260406000200154166006811015610431576002611cd99114612960565b80600052600b60205260406000209160018060a01b03808454163314908115611dcc575b5015611d785760016015846012611d7696019360ff1994600486825416179055601682015560178101336001600160601b0360a01b8254161790550191825416179055807ff62c8bde4b16ee761026513cacca0a3cfaf76d09e3d25a1be1e4a7da30d8bf7c6040805133815260016020820152a2612e75565b005b60405162461bcd60e51b815260206004820152602660248201527f4f6e6c79207269646572206f72206472697665722063616e207261697365206460448201526569737075746560d01b6064820152608490fd5b9050600184015416331484611cfd565b3461022e57600036600319011261022e576003546040516001600160a01b039091168152602090f35b3461022e57602036600319011261022e57600435600052600b60205260406000208061018052808080808080808080808080806018600f600e600d600c600b600a6009600760066005600460038d60018060a01b039054169d60018060a01b0360018201541660a052600281015460c05201549d01549d01549d01549d01549d600860018060a01b03910154169e01549e01549e01549e01549e01549e01549e01549e60108101546102005260118101546101a052601281015460e05260138101546101005260148101546101405260ff6015820154166101205260168101546101c05260018060a01b036017820154166101e052015460805260405180610160525260a051602061016051015260c05160406101605101526060610160510152608061016051015260a061016051015260c061016051015260e0610160510152610100610160510152610120610160510152610140610160510152610160805101526101806101605101526101a06101605101526101c06101605101526101e0610160510152610200516102006101605101526101a051610220610160510152611fbc610240610160510160ff60e0511661284a565b60ff60e05160081c16151561026061016051015261010051610280610160510152610140516102a0610160510152611ff661012051612840565b610120516102c06101605101526101c0516102e06101605101526101e05161030061016051015260805161032061016051015261034061016051f35b3461022e57604036600319011261022e576004356024356001600160a01b038181169182900361022e5761206461286d565b82600052602090600b825260ff6012604060002001541660068110156104315760046120909114612960565b612098612a8b565b6000848152600b83526040902060128101805460ff19166003179055805482168403612277576002548154600b83015460405163a9059cbb60e01b8082529286166001600160a01b0316600482015260248101919091529091859082908616816000816044810103925af19081156106e45760009161225a575b501561221f57600c8201549081612178575b5050604092612168600080516020613509833981519152959360016002940181815416600052600c84526003876000200161215f81546128f8565b90555416613331565b8351928352820152a26001600055005b60025460035460405192835285166001600160a01b0316600483015260248201929092529084908290604490829060009088165af19081156106e457600091612202575b50156121c9578580612124565b60405162461bcd60e51b8152600481018490526011602482015270109bdb99081cdb185cda0819985a5b1959607a1b6044820152606490fd5b6122199150843d86116106dd576106cf8183612a51565b866121bc565b60405162461bcd60e51b8152600481018590526013602482015272149a59195c881c99599d5b990819985a5b1959606a1b6044820152606490fd5b6122719150853d87116106dd576106cf8183612a51565b87612112565b600b8101546000612297606461228f600454856128c5565b048093612b70565b60025460018501805460405163a9059cbb60e01b8082529189166001600160a01b03166004820152602481019490945294929390918891859160449183918b165af19283156106e45787936122f491600091612459575b50612bc9565b600c85015490816123df575b505060025460035460405194855286166001600160a01b0316600485015260248401919091528290851681600081604481015b03925af19081156106e4576000916123c2575b501561238757604092612382838360008051602061350983398151915297956002955416600052600c84526003876000200161215f81546128f8565b612168565b60405162461bcd60e51b8152600481018490526013602482015272151c99585cdd5c9e481999594819985a5b1959606a1b6044820152606490fd5b6123d99150843d86116106dd576106cf8183612a51565b86612346565b60025490546040518681529088166001600160a01b0316600482015260248101929092529093929084908716816000816044810103925af19182156106e45761243587936123339560009161243c575b50612c0c565b9289612300565b6124539150853d87116106dd576106cf8183612a51565b8b61242f565b6124709150853d87116106dd576106cf8183612a51565b8b6122ee565b3461022e57600036600319011261022e576020600754604051908152f35b3461022e57600036600319011261022e576020600854604051908152f35b3461022e57600036600319011261022e576002546040516001600160a01b039091168152602090f35b3461022e57602036600319011261022e576004356124f761286d565b610258811061250557600655005b60405162461bcd60e51b8152602060048201526011602482015270151a5b595bdd5d081d1bdbc81cda1bdc9d607a1b6044820152606490fd5b3461022e57600036600319011261022e576020600654604051908152f35b3461022e57600036600319011261022e576020600a54604051908152f35b3461022e57602036600319011261022e5760043580600052600b60205260ff601260406000200154166006811015610431576125b69015612960565b6000818152600b602052604090208054336001600160a01b039182161490811561265b575b501561261657601201805460ff191660051790557f0c23eb44b06124e00526761c3c77095fc814bb72c9be3ac1e58f0bc2ebfe4f7e600080a2005b60405162461bcd60e51b815260206004820152601f60248201527f4f6e6c79207269646572206f72206472697665722063616e2063616e63656c006044820152606490fd5b90506001820154163314836125db565b3461022e57600036600319011261022e576020600554604051908152f35b3461022e57602036600319011261022e576004356126a561286d565b600a81116126b257600455005b60405162461bcd60e51b815260206004820152601460248201527304665652063616e6e6f74206578636565642031360641b6044820152606490fd5b3461022e57602036600319011261022e5760043580600052600b60205261272360018060a01b03604060002054163314612914565b80600052600b60205260ff6012604060002001541660068110156104315761274b9015612960565b80600052600b602052604060002090600860048301549283600782015501336001600160601b0360a01b8254161790556040519182527fbdf1e76c2ba2a5c85b93bf78678a4a3b06d63b18422612dac8d7d5249ed4671460203393a3005b3461022e57602036600319011261022e5760e0906001600160a01b036127cd61282a565b16600052600c602052604060002060ff81549160018101549060028101546003820154906005600484015493015493858560081c16968852602088015260408701526060860152608085015216151560a08301526110e681612840565b600435906001600160a01b038216820361022e57565b6004111561043157565b9060068210156104315752565b604090600319011261022e576004359060243590565b6001546001600160a01b0316330361288157565b606460405162461bcd60e51b815260206004820152602060248201527f4f776e61626c653a2063616c6c6572206973206e6f7420746865206f776e65726044820152fd5b8181029291811591840414171561079b57565b81156128e2570490565b634e487b7160e01b600052601260045260246000fd5b600019811461079b5760010190565b9190820180921161079b57565b1561291b57565b60405162461bcd60e51b815260206004820152601a60248201527f4f6e6c79207468652072696465722063616e20646f20746869730000000000006044820152606490fd5b1561296757565b60405162461bcd60e51b815260206004820152602160248201527f52696465206973206e6f7420696e2074686520726571756972656420737461746044820152606560f81b6064820152608490fd5b156129bd57565b60405162461bcd60e51b815260206004820152601d60248201527f4e65676f74696174696f6e2077696e646f772068617320636c6f7365640000006044820152606490fd5b610340810190811067ffffffffffffffff821117612a1f57604052565b634e487b7160e01b600052604160045260246000fd5b60e0810190811067ffffffffffffffff821117612a1f57604052565b90601f8019910116810190811067ffffffffffffffff821117612a1f57604052565b9081602091031261022e5751801515810361022e5790565b600260005414612a9c576002600055565b60405162461bcd60e51b815260206004820152601f60248201527f5265656e7472616e637947756172643a207265656e7472616e742063616c6c006044820152606490fd5b15612ae857565b60405162461bcd60e51b815260206004820152601b60248201527f4f6e6c7920746865206472697665722063616e20646f207468697300000000006044820152606490fd5b15612b3457565b60405162461bcd60e51b81526020600482015260146024820152734e6f20616d656e646d656e742070656e64696e6760601b6044820152606490fd5b9190820391821161079b57565b15612b8457565b60405162461bcd60e51b815260206004820152601f60248201527f5265736f6c76652070656e64696e6720616d656e646d656e74206669727374006044820152606490fd5b15612bd057565b60405162461bcd60e51b8152602060048201526014602482015273111c9a5d995c881c185e5bdd5d0819985a5b195960621b6044820152606490fd5b15612c1357565b60405162461bcd60e51b8152602060048201526012602482015271109bdb99081c995d1d5c9b8819985a5b195960721b6044820152606490fd5b60008181526020600b815260409182812091600b83015491612c7e6064612c76600454866128c5565b048094612b70565b600254600186018054885163a9059cbb60e01b8082526001600160a01b0392831660048301526024820186905294989194938790829060449082908a908a165af1908115612e6b57879492612cde8a9593600c938a91612e4e5750612bc9565b01549081612dc8575b50506002546003548a5192835285166001600160a01b03166004830152602482019290925292839116818581604481015b03925af1918215612dbd5791612da0575b5015612d5d5783519283528201527f316ea47554d67fa539d67f093997afb15473b08c9eff898d60111cb33bcb14679190a2565b60649084519062461bcd60e51b82526004820152601c60248201527f547265617375727920666565207472616e73666572206661696c6564000000006044820152fd5b612db79150823d84116106dd576106cf8183612a51565b38612d29565b8651903d90823e3d90fd5b60025490548b518481529087166001600160a01b031660048201526024810192909252919390925090829085168187816044810103925af1908115612e4457928592612e1f8893612d18968891612e275750612c0c565b909338612ce7565b612e3e9150863d88116106dd576106cf8183612a51565b3861242f565b88513d86823e3d90fd5b612e659150883d8a116106dd576106cf8183612a51565b386122ee565b8a513d88823e3d90fd5b60008181526020600b815260409182812090601882015415612ee4575060158101805460ff1916600290811790915560179091015483516001600160a01b03919091168152918201527ff62c8bde4b16ee761026513cacca0a3cfaf76d09e3d25a1be1e4a7da30d8bf7c9190a2565b9294939160018060a01b038092541691612efc612a8b565b838552600b825286852060128101805460ff191660031790558054821684036130d5576002548154600b8301548a5163a9059cbb60e01b8082529286166001600160a01b0316600482015260248101919091529091859082908616818b816044810103925af19081156130cb5788916130ae575b501561307457600c8201549081612fc7575b50506001969792612fbb600080516020613509833981519152959389809401818154168a52600c84526003878b200161215f81546128f8565b8351928352820152a255565b6002546003548b5192835285166001600160a01b031660048301526024820192909252908490829060449082908b9088165af190811561306a57879161304d575b5015613015573880612f82565b875162461bcd60e51b8152600481018490526011602482015270109bdb99081cdb185cda0819985a5b1959607a1b6044820152606490fd5b6130649150843d86116106dd576106cf8183612a51565b38613008565b89513d89823e3d90fd5b885162461bcd60e51b8152600481018590526013602482015272149a59195c881c99599d5b990819985a5b1959606a1b6044820152606490fd5b6130c59150853d87116106dd576106cf8183612a51565b38612f70565b8a513d8a823e3d90fd5b600b810154886130ec606461228f600454856128c5565b600254600185018054935163a9059cbb60e01b8082529488166001600160a01b0316600482015260248101939093529190879082908816818d816044810103925af19081156132c45787939291613149918c916132ad5750612bc9565b600c8501549081613230575b50506002546003548c5192835286166001600160a01b0316600483015260248201939093529182908516818a81604481015b03925af190811561306a578791613213575b50156131d95760019697926131d4838360008051602061350983398151915297958b9554168a52600c84526003878b200161215f81546128f8565b612fbb565b875162461bcd60e51b8152600481018490526013602482015272151c99585cdd5c9e481999594819985a5b1959606a1b6044820152606490fd5b61322a9150843d86116106dd576106cf8183612a51565b38613199565b60025490548d518481529088166001600160a01b0316600482015260248101929092529192909182908716818c816044810103925af19081156132a35791613284613187949288948c9161328c5750612c0c565b909238613155565b612e3e9150853d87116106dd576106cf8183612a51565b8b513d8b823e3d90fd5b612e659150853d87116106dd576106cf8183612a51565b8c513d8c823e3d90fd5b9061332a61332f92604060018060a01b0380831690600091808352600c6020528383206132fb81546128f8565b90558252600c60205260048383200161331481546128f8565b905585168152600c60205220611bb281546128f8565b613331565b565b6001600160a01b03166000908152600c602052604081208054919291600a11613453576002810154801561343e576001820154600a810290808204600a149015171561342a5790613381916128d8565b60026003830154116133e9575b919250600591603081106133ad575001805461ff001916610300179055565b602b81106133c6575001805461ff001916610200179055565b6023116133dd5701805461ff001916610100179055565b01805461ff0019169055565b600a81111561342057600919810190811161340c5760059293505b83925061338e565b634e487b7160e01b84526011600452602484fd5b5060059192613404565b634e487b7160e01b85526011600452602485fd5b50600501805461ff0019166101001790559050565b600501805461ff00191690559050565b60018060a01b0316600052600c602052604060002060405161348481612a35565b815481526001820154906020810191825260c060ff60056002860154956040850196875260038101546060860152600481015460808601520154818116151560a085015260081c16916134d683612840565b01528151156135015751600a810290808204600a149015171561079b576134fe9151906128d8565b90565b505060009056fe0a1a08d07b8bb2ef5e6eea14f3719239138f1ce03a4ceea3196c1000a265c12aa264697066735822122040e56ae339cd5dfae2ea161d65b3587357544b41269f2c36235b8a923c1ee65e64736f6c63430008140033","opcodes":"PUSH1 0x80 CALLVALUE PUSH3 0xF5 JUMPI PUSH1 0x1F PUSH3 0x3684 CODESIZE DUP2 SWAP1 SUB SWAP2 DUP3 ADD PUSH1 0x1F NOT AND DUP4 ADD SWAP2 PUSH1 0x1 PUSH1 0x1 PUSH1 0x40 SHL SUB DUP4 GT DUP5 DUP5 LT OR PUSH3 0xFA JUMPI DUP1 DUP5 SWAP3 PUSH1 0x40 SWAP5 DUP6 MSTORE DUP4 CODECOPY DUP2 ADD SUB SLT PUSH3 0xF5 JUMPI PUSH3 0x5A PUSH1 0x20 PUSH3 0x52 DUP4 PUSH3 0x110 JUMP JUMPDEST SWAP3 ADD PUSH3 0x110 JUMP JUMPDEST PUSH1 0x1 PUSH1 0x0 DUP2 DUP2 SSTORE DUP2 SLOAD PUSH1 0x1 PUSH1 0x1 PUSH1 0xA0 SHL SUB NOT DUP1 DUP3 AND CALLER SWAP1 DUP2 OR SWAP1 SWAP5 SSTORE PUSH1 0x40 MLOAD SWAP6 SWAP1 SWAP5 PUSH1 0x1 PUSH1 0x1 PUSH1 0xA0 SHL SUB SWAP5 SWAP1 SWAP4 DUP6 SWAP4 DUP5 AND SWAP1 PUSH32 0x8BE0079C531659141344CD1FD0A4F28419497F9722A3DAAFE3B4186F6B6457E0 SWAP1 DUP1 LOG3 PUSH1 0x5 PUSH1 0x4 SSTORE PUSH1 0xA PUSH1 0x5 SSTORE PUSH2 0x708 PUSH1 0x6 SSTORE PUSH1 0x5 PUSH1 0x7 SSTORE PUSH1 0xB4 PUSH1 0x8 SSTORE PUSH1 0x4B PUSH1 0x9 SSTORE PUSH1 0x85 PUSH1 0xA SSTORE AND DUP4 PUSH1 0x2 SLOAD AND OR PUSH1 0x2 SSTORE AND SWAP1 PUSH1 0x3 SLOAD AND OR PUSH1 0x3 SSTORE PUSH2 0x355E SWAP1 DUP2 PUSH3 0x126 DUP3 CODECOPY RETURN JUMPDEST PUSH1 0x0 DUP1 REVERT JUMPDEST PUSH4 0x4E487B71 PUSH1 0xE0 SHL PUSH1 0x0 MSTORE PUSH1 0x41 PUSH1 0x4 MSTORE PUSH1 0x24 PUSH1 0x0 REVERT JUMPDEST MLOAD SWAP1 PUSH1 0x1 PUSH1 0x1 PUSH1 0xA0 SHL SUB DUP3 AND DUP3 SUB PUSH3 0xF5 JUMPI JUMP INVALID PUSH2 0x220 DUP1 PUSH1 0x40 MSTORE PUSH1 0x4 CALLDATASIZE LT ISZERO PUSH2 0x14 JUMPI PUSH1 0x0 DUP1 REVERT JUMPDEST PUSH1 0x0 CALLDATALOAD PUSH1 0xE0 SHR SWAP1 DUP2 PUSH4 0x6FA15A7 EQ PUSH2 0x27A9 JUMPI POP DUP1 PUSH4 0x101AAFAF EQ PUSH2 0x26EE JUMPI DUP1 PUSH4 0x12E8E2C3 EQ PUSH2 0x2689 JUMPI DUP1 PUSH4 0x1F748C42 EQ PUSH2 0x266B JUMPI DUP1 PUSH4 0x266795D4 EQ PUSH2 0x257A JUMPI DUP1 PUSH4 0x2FCA747A EQ PUSH2 0x255C JUMPI DUP1 PUSH4 0x3049AE2A EQ PUSH2 0x253E JUMPI DUP1 PUSH4 0x3264F266 EQ PUSH2 0x24DB JUMPI DUP1 PUSH4 0x3E413BEE EQ PUSH2 0x24B2 JUMPI DUP1 PUSH4 0x4668781E EQ PUSH2 0x2494 JUMPI DUP1 PUSH4 0x4780F77E EQ PUSH2 0x2476 JUMPI DUP1 PUSH4 0x503C5DCE EQ PUSH2 0x2032 JUMPI DUP1 PUSH4 0x5205F112 EQ PUSH2 0x1E05 JUMPI DUP1 PUSH4 0x61D027B3 EQ PUSH2 0x1DDC JUMPI DUP1 PUSH4 0x636BF26D EQ PUSH2 0x1CA0 JUMPI DUP1 PUSH4 0x70851171 EQ PUSH2 0x1ADD JUMPI DUP1 PUSH4 0x715018A6 EQ PUSH2 0x1A80 JUMPI DUP1 PUSH4 0x75C74008 EQ PUSH2 0x1835 JUMPI DUP1 PUSH4 0x7BAB34FA EQ PUSH2 0x1817 JUMPI DUP1 PUSH4 0x7C7B0FF4 EQ PUSH2 0x1490 JUMPI DUP1 PUSH4 0x7EE6E8E0 EQ PUSH2 0x1472 JUMPI DUP1 PUSH4 0x86E773F1 EQ PUSH2 0x12C9 JUMPI DUP1 PUSH4 0x8945BD28 EQ PUSH2 0x1263 JUMPI DUP1 PUSH4 0x8BEED922 EQ PUSH2 0x11B1 JUMPI DUP1 PUSH4 0x8DA5CB5B EQ PUSH2 0x1188 JUMPI DUP1 PUSH4 0x9006B4F6 EQ PUSH2 0x10ED JUMPI DUP1 PUSH4 0x9C89A0E2 EQ PUSH2 0xFE6 JUMPI DUP1 PUSH4 0xA0CDC6C5 EQ PUSH2 0xE76 JUMPI DUP1 PUSH4 0xA329D221 EQ PUSH2 0xC80 JUMPI DUP1 PUSH4 0xB47C1883 EQ PUSH2 0xC62 JUMPI DUP1 PUSH4 0xB8728C35 EQ PUSH2 0x99E JUMPI DUP1 PUSH4 0xC416DD0B EQ PUSH2 0x8DE JUMPI DUP1 PUSH4 0xC815729D EQ PUSH2 0x472 JUMPI DUP1 PUSH4 0xD06509FD EQ PUSH2 0x447 JUMPI DUP1 PUSH4 0xE9C14B1E EQ PUSH2 0x384 JUMPI DUP1 PUSH4 0xF0F44260 EQ PUSH2 0x2F7 JUMPI DUP1 PUSH4 0xF2FDE38B EQ PUSH2 0x233 JUMPI PUSH4 0xFD096D59 EQ PUSH2 0x1C2 JUMPI PUSH1 0x0 DUP1 REVERT JUMPDEST CALLVALUE PUSH2 0x22E JUMPI PUSH1 0x20 CALLDATASIZE PUSH1 0x3 NOT ADD SLT PUSH2 0x22E JUMPI PUSH2 0x1DB PUSH2 0x282A JUMP JUMPDEST PUSH2 0x1E3 PUSH2 0x286D JUMP JUMPDEST PUSH1 0x1 PUSH1 0x1 PUSH1 0xA0 SHL SUB AND PUSH1 0x0 DUP2 DUP2 MSTORE PUSH1 0xC PUSH1 0x20 MSTORE PUSH1 0x40 DUP2 KECCAK256 PUSH1 0x5 ADD DUP1 SLOAD PUSH1 0xFF NOT AND PUSH1 0x1 OR SWAP1 SSTORE PUSH32 0x657E787A6E7F3E5131CD8B43AC34AD906223090017FD6D34EFBD75F5B9E2CF91 SWAP1 DUP1 LOG2 STOP JUMPDEST PUSH1 0x0 DUP1 REVERT JUMPDEST CALLVALUE PUSH2 0x22E JUMPI PUSH1 0x20 CALLDATASIZE PUSH1 0x3 NOT ADD SLT PUSH2 0x22E JUMPI PUSH2 0x24C PUSH2 0x282A JUMP JUMPDEST PUSH2 0x254 PUSH2 0x286D JUMP JUMPDEST PUSH1 0x1 PUSH1 0x1 PUSH1 0xA0 SHL SUB SWAP1 DUP2 AND SWAP1 DUP2 ISZERO PUSH2 0x2A3 JUMPI PUSH1 0x1 SLOAD DUP3 PUSH1 0x1 PUSH1 0x1 PUSH1 0x60 SHL SUB PUSH1 0xA0 SHL DUP3 AND OR PUSH1 0x1 SSTORE AND PUSH32 0x8BE0079C531659141344CD1FD0A4F28419497F9722A3DAAFE3B4186F6B6457E0 PUSH1 0x0 DUP1 LOG3 STOP JUMPDEST PUSH1 0x40 MLOAD PUSH3 0x461BCD PUSH1 0xE5 SHL DUP2 MSTORE PUSH1 0x20 PUSH1 0x4 DUP3 ADD MSTORE PUSH1 0x26 PUSH1 0x24 DUP3 ADD MSTORE PUSH32 0x4F776E61626C653A206E6577206F776E657220697320746865207A65726F2061 PUSH1 0x44 DUP3 ADD MSTORE PUSH6 0x646472657373 PUSH1 0xD0 SHL PUSH1 0x64 DUP3 ADD MSTORE PUSH1 0x84 SWAP1 REVERT JUMPDEST CALLVALUE PUSH2 0x22E JUMPI PUSH1 0x20 CALLDATASIZE PUSH1 0x3 NOT ADD SLT PUSH2 0x22E JUMPI PUSH2 0x310 PUSH2 0x282A JUMP JUMPDEST PUSH2 0x318 PUSH2 0x286D JUMP JUMPDEST PUSH1 0x1 PUSH1 0x1 PUSH1 0xA0 SHL SUB AND DUP1 ISZERO PUSH2 0x33F JUMPI PUSH1 0x1 PUSH1 0x1 PUSH1 0x60 SHL SUB PUSH1 0xA0 SHL PUSH1 0x3 SLOAD AND OR PUSH1 0x3 SSTORE PUSH1 0x0 DUP1 RETURN JUMPDEST PUSH1 0x40 MLOAD PUSH3 0x461BCD PUSH1 0xE5 SHL DUP2 MSTORE PUSH1 0x20 PUSH1 0x4 DUP3 ADD MSTORE PUSH1 0x18 PUSH1 0x24 DUP3 ADD MSTORE PUSH32 0x496E76616C696420747265617375727920616464726573730000000000000000 PUSH1 0x44 DUP3 ADD MSTORE PUSH1 0x64 SWAP1 REVERT JUMPDEST CALLVALUE PUSH2 0x22E JUMPI PUSH1 0x20 CALLDATASIZE PUSH1 0x3 NOT ADD SLT PUSH2 0x22E JUMPI PUSH1 0x4 CALLDATALOAD DUP1 PUSH1 0x0 MSTORE PUSH1 0xB PUSH1 0x20 MSTORE PUSH2 0x3B9 PUSH1 0x1 DUP1 PUSH1 0xA0 SHL SUB PUSH1 0x40 PUSH1 0x0 KECCAK256 SLOAD AND CALLER EQ PUSH2 0x2914 JUMP JUMPDEST DUP1 PUSH1 0x0 MSTORE PUSH1 0xB PUSH1 0x20 MSTORE PUSH1 0xFF PUSH1 0x12 PUSH1 0x40 PUSH1 0x0 KECCAK256 ADD SLOAD AND PUSH1 0x6 DUP2 LT ISZERO PUSH2 0x431 JUMPI PUSH1 0x1 PUSH2 0x3E3 SWAP2 EQ PUSH2 0x2960 JUMP JUMPDEST DUP1 PUSH1 0x0 MSTORE PUSH1 0xB PUSH1 0x20 MSTORE PUSH1 0x12 PUSH1 0x40 PUSH1 0x0 KECCAK256 TIMESTAMP PUSH1 0xF DUP3 ADD SSTORE ADD PUSH1 0x2 PUSH1 0xFF NOT DUP3 SLOAD AND OR SWAP1 SSTORE PUSH32 0x884E74A3DB749C25405961706345237200F5C61A4928338E070B2E6422DA2E62 PUSH1 0x20 PUSH1 0x40 MLOAD TIMESTAMP DUP2 MSTORE LOG2 STOP JUMPDEST PUSH4 0x4E487B71 PUSH1 0xE0 SHL PUSH1 0x0 MSTORE PUSH1 0x21 PUSH1 0x4 MSTORE PUSH1 0x24 PUSH1 0x0 REVERT JUMPDEST CALLVALUE PUSH2 0x22E JUMPI PUSH1 0x20 CALLDATASIZE PUSH1 0x3 NOT ADD SLT PUSH2 0x22E JUMPI PUSH1 0x20 PUSH2 0x46A PUSH2 0x465 PUSH2 0x282A JUMP JUMPDEST PUSH2 0x3463 JUMP JUMPDEST PUSH1 0x40 MLOAD SWAP1 DUP2 MSTORE RETURN JUMPDEST CALLVALUE PUSH2 0x22E JUMPI PUSH1 0x20 DUP1 PUSH1 0x3 NOT CALLDATASIZE ADD SLT PUSH2 0x22E JUMPI PUSH1 0x4 CALLDATALOAD PUSH2 0x48F PUSH2 0x2A8B JUMP JUMPDEST DUP1 PUSH1 0x0 MSTORE PUSH1 0xB DUP3 MSTORE PUSH1 0xFF PUSH1 0x12 PUSH1 0x40 PUSH1 0x0 KECCAK256 ADD SLOAD AND PUSH1 0x6 DUP2 LT ISZERO PUSH2 0x431 JUMPI PUSH2 0x4B6 SWAP1 ISZERO PUSH2 0x2960 JUMP JUMPDEST DUP1 PUSH1 0x0 MSTORE PUSH1 0xB DUP3 MSTORE PUSH1 0x40 PUSH1 0x0 KECCAK256 SWAP2 PUSH2 0x4D4 PUSH1 0xA DUP5 ADD SLOAD TIMESTAMP GT ISZERO PUSH2 0x29B6 JUMP JUMPDEST PUSH1 0x8 DUP4 ADD SLOAD PUSH1 0x1 PUSH1 0x1 PUSH1 0xA0 SHL SUB SWAP1 DUP2 AND CALLER EQ PUSH2 0x899 JUMPI DUP1 DUP5 SLOAD AND SWAP4 DUP5 CALLER EQ DUP1 ISZERO SWAP1 DUP2 PUSH2 0x87F JUMPI JUMPDEST ISZERO PUSH2 0x829 JUMPI PUSH2 0x7C4 JUMPI JUMPDEST PUSH1 0x7 DUP2 ADD SLOAD SWAP1 PUSH1 0xB DUP2 ADD SWAP6 DUP3 DUP8 SSTORE DUP5 PUSH1 0x1 DUP4 ADD SWAP4 DUP6 DUP6 SLOAD AND PUSH1 0x0 MSTORE PUSH1 0xC DUP3 MSTORE PUSH1 0xFF PUSH1 0x5 PUSH1 0x40 PUSH1 0x0 KECCAK256 ADD SLOAD PUSH1 0x8 SHR AND PUSH1 0x0 SWAP1 PUSH2 0x53F DUP2 PUSH2 0x2840 JUMP JUMPDEST DUP1 ISZERO DUP1 ISZERO PUSH2 0x7B1 JUMPI JUMPDEST ISZERO PUSH2 0x752 JUMPI POP POP SWAP1 PUSH2 0x5C5 PUSH1 0x0 SWAP3 PUSH1 0x12 PUSH1 0x64 PUSH2 0x566 PUSH1 0x5 SLOAD DUP5 PUSH2 0x28C5 JUMP JUMPDEST DIV SWAP7 JUMPDEST PUSH1 0xC DUP2 ADD DUP9 SWAP1 SSTORE TIMESTAMP PUSH1 0xE DUP3 ADD SSTORE ADD DUP1 SLOAD PUSH1 0xFF NOT AND PUSH1 0x1 OR SWAP1 SSTORE PUSH1 0x2 SLOAD PUSH1 0x40 MLOAD PUSH4 0x23B872DD PUSH1 0xE0 SHL DUP1 DUP3 MSTORE PUSH1 0x1 PUSH1 0x1 PUSH1 0xA0 SHL SUB SWAP1 SWAP8 AND PUSH1 0x4 DUP3 ADD MSTORE ADDRESS PUSH1 0x24 DUP3 ADD MSTORE PUSH1 0x44 DUP2 ADD SWAP3 SWAP1 SWAP3 MSTORE SWAP1 SWAP4 DUP5 SWAP3 SWAP2 DUP10 AND SWAP2 DUP4 SWAP2 SWAP1 DUP3 SWAP1 PUSH1 0x64 DUP3 ADD SWAP1 JUMP JUMPDEST SUB SWAP3 GAS CALL SWAP1 DUP2 ISZERO PUSH2 0x6E4 JUMPI PUSH1 0x0 SWAP2 PUSH2 0x735 JUMPI JUMPDEST POP ISZERO PUSH2 0x6F0 JUMPI DUP2 PUSH2 0x61C JUMPI JUMPDEST POP POP SWAP1 PUSH32 0x44D2438F8C7773102E178FDE6E6E3F82515D4F80C38C5A1E5F36BCB01F6322F1 SWAP3 SWAP2 SLOAD AND SWAP4 SLOAD PUSH1 0x40 MLOAD SWAP1 DUP2 MSTORE LOG3 PUSH1 0x1 PUSH1 0x0 SSTORE STOP JUMPDEST PUSH1 0x2 SLOAD DUP4 SLOAD PUSH1 0x40 MLOAD SWAP3 DUP4 MSTORE DUP6 AND PUSH1 0x1 PUSH1 0x1 PUSH1 0xA0 SHL SUB AND PUSH1 0x4 DUP4 ADD MSTORE ADDRESS PUSH1 0x24 DUP4 ADD MSTORE PUSH1 0x44 DUP3 ADD SWAP3 SWAP1 SWAP3 MSTORE SWAP1 DUP5 SWAP1 DUP3 SWAP1 PUSH1 0x64 SWAP1 DUP3 SWAP1 PUSH1 0x0 SWAP1 DUP9 AND GAS CALL SWAP1 DUP2 ISZERO PUSH2 0x6E4 JUMPI PUSH1 0x0 SWAP2 PUSH2 0x6B7 JUMPI JUMPDEST POP ISZERO PUSH2 0x672 JUMPI DUP6 DUP1 PUSH2 0x5E4 JUMP JUMPDEST PUSH1 0x40 MLOAD PUSH3 0x461BCD PUSH1 0xE5 SHL DUP2 MSTORE PUSH1 0x4 DUP2 ADD DUP5 SWAP1 MSTORE PUSH1 0x1A PUSH1 0x24 DUP3 ADD MSTORE PUSH32 0x44726976657220626F6E64206465706F736974206661696C6564000000000000 PUSH1 0x44 DUP3 ADD MSTORE PUSH1 0x64 SWAP1 REVERT JUMPDEST PUSH2 0x6D7 SWAP2 POP DUP5 RETURNDATASIZE DUP7 GT PUSH2 0x6DD JUMPI JUMPDEST PUSH2 0x6CF DUP2 DUP4 PUSH2 0x2A51 JUMP JUMPDEST DUP2 ADD SWAP1 PUSH2 0x2A73 JUMP JUMPDEST DUP7 PUSH2 0x665 JUMP JUMPDEST POP RETURNDATASIZE PUSH2 0x6C5 JUMP JUMPDEST PUSH1 0x40 MLOAD RETURNDATASIZE PUSH1 0x0 DUP3 RETURNDATACOPY RETURNDATASIZE SWAP1 REVERT JUMPDEST PUSH1 0x40 MLOAD PUSH3 0x461BCD PUSH1 0xE5 SHL DUP2 MSTORE PUSH1 0x4 DUP2 ADD DUP7 SWAP1 MSTORE PUSH1 0x19 PUSH1 0x24 DUP3 ADD MSTORE PUSH32 0x52696465722055534443206465706F736974206661696C656400000000000000 PUSH1 0x44 DUP3 ADD MSTORE PUSH1 0x64 SWAP1 REVERT JUMPDEST PUSH2 0x74C SWAP2 POP DUP7 RETURNDATASIZE DUP9 GT PUSH2 0x6DD JUMPI PUSH2 0x6CF DUP2 DUP4 PUSH2 0x2A51 JUMP JUMPDEST DUP9 PUSH2 0x5D8 JUMP JUMPDEST DUP1 PUSH2 0x761 PUSH1 0x2 SWAP3 SWAP8 SWAP4 SWAP8 PUSH2 0x2840 JUMP JUMPDEST EQ PUSH2 0x776 JUMPI JUMPDEST PUSH1 0x0 SWAP3 SWAP2 PUSH1 0x12 PUSH2 0x5C5 SWAP3 PUSH2 0x569 JUMP JUMPDEST SWAP4 POP SWAP1 POP PUSH1 0x5 DUP2 MUL SWAP1 DUP1 DUP3 DIV PUSH1 0x5 EQ DUP2 ISZERO OR ISZERO PUSH2 0x79B JUMPI PUSH1 0x64 SWAP1 SWAP2 DIV SWAP3 DUP7 SWAP2 SWAP1 PUSH2 0x767 JUMP JUMPDEST PUSH4 0x4E487B71 PUSH1 0xE0 SHL PUSH1 0x0 MSTORE PUSH1 0x11 PUSH1 0x4 MSTORE PUSH1 0x24 PUSH1 0x0 REVERT JUMPDEST POP PUSH2 0x7BB DUP2 PUSH2 0x2840 JUMP JUMPDEST PUSH1 0x1 DUP2 EQ PUSH2 0x548 JUMP JUMPDEST PUSH1 0x1 DUP2 ADD DUP1 SLOAD DUP4 DUP2 AND PUSH2 0x7E4 JUMPI PUSH1 0x1 PUSH1 0x1 PUSH1 0xA0 SHL SUB NOT AND CALLER OR SWAP1 SSTORE PUSH2 0x505 JUMP JUMPDEST PUSH1 0x40 MLOAD PUSH3 0x461BCD PUSH1 0xE5 SHL DUP2 MSTORE PUSH1 0x4 DUP2 ADD DUP7 SWAP1 MSTORE PUSH1 0x19 PUSH1 0x24 DUP3 ADD MSTORE PUSH32 0x5269646520616C72656164792068617320612064726976657200000000000000 PUSH1 0x44 DUP3 ADD MSTORE PUSH1 0x64 SWAP1 REVERT JUMPDEST PUSH1 0x40 MLOAD PUSH3 0x461BCD PUSH1 0xE5 SHL DUP2 MSTORE PUSH1 0x4 DUP2 ADD DUP6 SWAP1 MSTORE PUSH1 0x28 PUSH1 0x24 DUP3 ADD MSTORE PUSH32 0x4F6E6C79207269646572206F7220766572696669656420647269766572206361 PUSH1 0x44 DUP3 ADD MSTORE PUSH8 0x1B881858D8D95C1D PUSH1 0xC2 SHL PUSH1 0x64 DUP3 ADD MSTORE PUSH1 0x84 SWAP1 REVERT JUMPDEST POP CALLER PUSH1 0x0 MSTORE PUSH1 0xC DUP5 MSTORE PUSH1 0xFF PUSH1 0x5 PUSH1 0x40 PUSH1 0x0 KECCAK256 ADD SLOAD AND PUSH2 0x4FB JUMP JUMPDEST PUSH1 0x40 MLOAD PUSH3 0x461BCD PUSH1 0xE5 SHL DUP2 MSTORE PUSH1 0x4 DUP2 ADD DUP4 SWAP1 MSTORE PUSH1 0x1C PUSH1 0x24 DUP3 ADD MSTORE PUSH32 0x43616E6E6F742061636365707420796F7572206F776E206F6666657200000000 PUSH1 0x44 DUP3 ADD MSTORE PUSH1 0x64 SWAP1 REVERT JUMPDEST CALLVALUE PUSH2 0x22E JUMPI PUSH1 0x20 CALLDATASIZE PUSH1 0x3 NOT ADD SLT PUSH2 0x22E JUMPI PUSH1 0x4 CALLDATALOAD DUP1 PUSH1 0x0 MSTORE PUSH1 0xB PUSH1 0x20 MSTORE PUSH1 0x1 DUP1 PUSH1 0xA0 SHL SUB SWAP1 PUSH2 0x915 DUP3 PUSH1 0x40 PUSH1 0x0 KECCAK256 SLOAD AND CALLER EQ PUSH2 0x2914 JUMP JUMPDEST DUP1 PUSH1 0x0 MSTORE PUSH1 0xB PUSH1 0x20 MSTORE PUSH1 0xFF PUSH1 0x12 PUSH1 0x40 PUSH1 0x0 KECCAK256 ADD SLOAD AND SWAP2 PUSH1 0x6 DUP4 LT ISZERO PUSH2 0x431 JUMPI PUSH2 0x943 PUSH1 0x2 PUSH2 0x997 SWAP5 EQ PUSH2 0x2960 JUMP JUMPDEST PUSH2 0x94B PUSH2 0x2A8B JUMP JUMPDEST DUP2 PUSH1 0x0 MSTORE PUSH1 0xB PUSH1 0x20 MSTORE PUSH2 0x987 PUSH1 0x40 PUSH1 0x0 KECCAK256 SWAP3 PUSH1 0x12 DUP5 ADD PUSH1 0x3 DUP2 SLOAD PUSH2 0x975 PUSH1 0xFF DUP3 PUSH1 0x8 SHR AND ISZERO PUSH2 0x2B7D JUMP JUMPDEST TIMESTAMP PUSH1 0x11 DUP9 ADD SSTORE PUSH1 0xFF NOT AND OR SWAP1 SSTORE PUSH2 0x2C4D JUMP JUMPDEST DUP1 PUSH1 0x1 DUP4 ADD SLOAD AND SWAP2 SLOAD AND SWAP1 PUSH2 0x32CE JUMP JUMPDEST PUSH1 0x1 PUSH1 0x0 SSTORE STOP JUMPDEST CALLVALUE PUSH2 0x22E JUMPI PUSH1 0x20 DUP1 PUSH1 0x3 NOT CALLDATASIZE ADD SLT PUSH2 0x22E JUMPI PUSH1 0x4 CALLDATALOAD SWAP1 DUP2 PUSH1 0x0 MSTORE PUSH1 0xB DUP2 MSTORE PUSH1 0x1 DUP1 PUSH1 0xA0 SHL SUB SWAP1 PUSH2 0x9D9 DUP3 PUSH1 0x1 PUSH1 0x40 PUSH1 0x0 KECCAK256 ADD SLOAD AND CALLER EQ PUSH2 0x2AE1 JUMP JUMPDEST DUP3 PUSH1 0x0 MSTORE PUSH1 0xB DUP2 MSTORE PUSH1 0xFF PUSH1 0x12 PUSH1 0x40 PUSH1 0x0 KECCAK256 ADD SLOAD AND PUSH1 0x6 DUP2 LT ISZERO PUSH2 0x431 JUMPI PUSH1 0x2 PUSH2 0xA02 SWAP2 EQ PUSH2 0x2960 JUMP JUMPDEST PUSH2 0xA0A PUSH2 0x2A8B JUMP JUMPDEST DUP3 PUSH1 0x0 MSTORE PUSH1 0xB DUP2 MSTORE PUSH1 0x40 PUSH1 0x0 KECCAK256 PUSH1 0x12 DUP2 ADD SWAP1 PUSH2 0xA2C PUSH1 0xFF DUP4 SLOAD PUSH1 0x8 SHR AND PUSH2 0x2B2D JUMP JUMPDEST PUSH1 0xB DUP2 ADD DUP1 SLOAD DUP5 PUSH1 0x14 DUP5 ADD SLOAD SWAP7 DUP3 DUP9 GT PUSH1 0x0 EQ PUSH2 0xB61 JUMPI SWAP2 DUP3 PUSH2 0xA5B PUSH2 0xA96 SWAP5 PUSH1 0x2 SLOAD AND SWAP2 DUP8 SLOAD AND SWAP3 DUP11 PUSH2 0x2B70 JUMP JUMPDEST PUSH1 0x40 MLOAD PUSH4 0x23B872DD PUSH1 0xE0 SHL DUP2 MSTORE PUSH1 0x1 PUSH1 0x1 PUSH1 0xA0 SHL SUB SWAP1 SWAP4 AND PUSH1 0x4 DUP5 ADD MSTORE ADDRESS PUSH1 0x24 DUP5 ADD MSTORE PUSH1 0x44 DUP4 ADD MSTORE SWAP1 SWAP3 DUP4 SWAP2 SWAP1 DUP3 SWAP1 PUSH1 0x0 SWAP1 DUP3 SWAP1 PUSH1 0x64 DUP3 ADD SWAP1 JUMP JUMPDEST SUB SWAP3 GAS CALL SWAP1 DUP2 ISZERO PUSH2 0x6E4 JUMPI PUSH1 0x0 SWAP2 PUSH2 0xB44 JUMPI JUMPDEST POP ISZERO PUSH2 0xAFF JUMPI SWAP3 PUSH1 0x3 SWAP3 DUP6 SWAP3 PUSH32 0x363E356DEB2C47A81A1625AB07673E446497A542C1F228E0231E679AF8010213 SWAP7 PUSH1 0x40 SWAP7 JUMPDEST SSTORE PUSH1 0x13 DUP2 ADD SLOAD SWAP5 ADD DUP5 SWAP1 SSTORE DUP1 SLOAD PUSH2 0xFF00 NOT AND SWAP1 SSTORE DUP4 MLOAD SWAP3 DUP4 MSTORE DUP3 ADD MSTORE LOG2 PUSH1 0x1 PUSH1 0x0 SSTORE STOP JUMPDEST PUSH1 0x40 MLOAD PUSH3 0x461BCD PUSH1 0xE5 SHL DUP2 MSTORE PUSH1 0x4 DUP2 ADD DUP6 SWAP1 MSTORE PUSH1 0x1E PUSH1 0x24 DUP3 ADD MSTORE PUSH32 0x4164646974696F6E616C2066617265207061796D656E74206661696C65640000 PUSH1 0x44 DUP3 ADD MSTORE PUSH1 0x64 SWAP1 REVERT JUMPDEST PUSH2 0xB5B SWAP2 POP DUP6 RETURNDATASIZE DUP8 GT PUSH2 0x6DD JUMPI PUSH2 0x6CF DUP2 DUP4 PUSH2 0x2A51 JUMP JUMPDEST DUP8 PUSH2 0xAA9 JUMP JUMPDEST SWAP1 POP DUP2 DUP8 LT PUSH2 0xB9D JUMPI JUMPDEST POP POP SWAP3 PUSH1 0x3 SWAP3 DUP6 SWAP3 PUSH32 0x363E356DEB2C47A81A1625AB07673E446497A542C1F228E0231E679AF8010213 SWAP7 PUSH1 0x40 SWAP7 PUSH2 0xADB JUMP JUMPDEST PUSH2 0xBEB SWAP2 DUP2 PUSH2 0xBB6 DUP10 DUP10 SWAP5 PUSH1 0x2 SLOAD AND SWAP3 DUP9 SLOAD AND SWAP4 PUSH2 0x2B70 JUMP JUMPDEST PUSH1 0x40 MLOAD PUSH4 0xA9059CBB PUSH1 0xE0 SHL DUP2 MSTORE PUSH1 0x1 PUSH1 0x1 PUSH1 0xA0 SHL SUB SWAP1 SWAP4 AND PUSH1 0x4 DUP5 ADD MSTORE PUSH1 0x24 DUP4 ADD MSTORE SWAP1 SWAP3 DUP4 SWAP2 SWAP1 DUP3 SWAP1 PUSH1 0x0 SWAP1 DUP3 SWAP1 PUSH1 0x44 DUP3 ADD SWAP1 JUMP JUMPDEST SUB SWAP3 GAS CALL SWAP1 DUP2 ISZERO PUSH2 0x6E4 JUMPI PUSH1 0x0 SWAP2 PUSH2 0xC45 JUMPI JUMPDEST POP ISZERO PUSH2 0xC0B JUMPI DUP7 DUP1 PUSH2 0xB6B JUMP JUMPDEST PUSH1 0x40 MLOAD PUSH3 0x461BCD PUSH1 0xE5 SHL DUP2 MSTORE PUSH1 0x4 DUP2 ADD DUP6 SWAP1 MSTORE PUSH1 0x12 PUSH1 0x24 DUP3 ADD MSTORE PUSH18 0x11985C99481C99599D5B990819985A5B1959 PUSH1 0x72 SHL PUSH1 0x44 DUP3 ADD MSTORE PUSH1 0x64 SWAP1 REVERT JUMPDEST PUSH2 0xC5C SWAP2 POP DUP6 RETURNDATASIZE DUP8 GT PUSH2 0x6DD JUMPI PUSH2 0x6CF DUP2 DUP4 PUSH2 0x2A51 JUMP JUMPDEST DUP8 PUSH2 0xBFE JUMP JUMPDEST CALLVALUE PUSH2 0x22E JUMPI PUSH1 0x0 CALLDATASIZE PUSH1 0x3 NOT ADD SLT PUSH2 0x22E JUMPI PUSH1 0x20 PUSH1 0xD SLOAD PUSH1 0x40 MLOAD SWAP1 DUP2 MSTORE RETURN JUMPDEST CALLVALUE PUSH2 0x22E JUMPI PUSH1 0xA0 CALLDATASIZE PUSH1 0x3 NOT ADD SLT PUSH2 0x22E JUMPI PUSH1 0x44 CALLDATALOAD PUSH1 0x24 CALLDATALOAD PUSH1 0x84 CALLDATALOAD PUSH1 0x4 CALLDATALOAD DUP4 ISZERO PUSH2 0xE31 JUMPI PUSH1 0x64 PUSH2 0xCB1 PUSH1 0x9 SLOAD DUP7 PUSH2 0x28C5 JUMP JUMPDEST DIV PUSH1 0x64 PUSH2 0xCC0 PUSH1 0xA SLOAD DUP8 PUSH2 0x28C5 JUMP JUMPDEST DIV SWAP1 DUP1 DUP5 LT ISZERO DUP1 PUSH2 0xE27 JUMPI JUMPDEST ISZERO PUSH2 0xDD3 JUMPI PUSH1 0x20 SWAP6 PUSH2 0xCDF PUSH1 0xD SLOAD PUSH2 0x28F8 JUMP JUMPDEST SWAP6 DUP7 PUSH1 0xD SSTORE DUP7 PUSH1 0x0 MSTORE PUSH1 0xB DUP9 MSTORE PUSH1 0x12 PUSH1 0x40 PUSH1 0x0 KECCAK256 PUSH1 0x1 PUSH1 0x1 PUSH1 0x60 SHL SUB PUSH1 0xA0 SHL CALLER DUP2 DUP4 SLOAD AND OR DUP3 SSTORE DUP8 PUSH1 0x2 DUP4 ADD SSTORE DUP4 PUSH1 0x3 DUP4 ADD SSTORE DUP5 PUSH1 0x4 DUP4 ADD SSTORE DUP6 PUSH1 0x5 DUP4 ADD SSTORE DUP7 PUSH1 0x6 DUP4 ADD SSTORE DUP9 PUSH1 0x7 DUP4 ADD SSTORE PUSH1 0x8 DUP3 ADD SWAP1 CALLER SWAP1 DUP3 SLOAD AND OR SWAP1 SSTORE PUSH2 0xD43 PUSH1 0x8 SLOAD TIMESTAMP PUSH2 0x2907 JUMP JUMPDEST PUSH1 0xA DUP3 ADD SSTORE TIMESTAMP PUSH1 0xD DUP3 ADD SSTORE PUSH1 0x64 CALLDATALOAD PUSH1 0x10 DUP3 ADD SSTORE ADD PUSH1 0xFF NOT DUP2 SLOAD AND SWAP1 SSTORE PUSH1 0x40 MLOAD SWAP5 DUP6 MSTORE DUP8 DUP6 ADD MSTORE PUSH1 0x40 DUP5 ADD MSTORE PUSH1 0x60 DUP4 ADD MSTORE PUSH1 0x80 DUP3 ADD MSTORE DUP3 PUSH32 0x715F9C7945FDE2A603EC88EFD3ACFDBF83BD75A8B0228C8A8543840396231119 PUSH1 0xA0 CALLER SWAP4 LOG3 PUSH1 0x40 MLOAD SWAP1 DUP2 MSTORE DUP2 PUSH32 0xBDF1E76C2BA2A5C85B93BF78678A4A3B06D63B18422612DAC8D7D5249ED46714 DUP5 CALLER SWAP4 LOG3 PUSH1 0x40 MLOAD SWAP1 DUP2 MSTORE RETURN JUMPDEST PUSH1 0x40 MLOAD PUSH3 0x461BCD PUSH1 0xE5 SHL DUP2 MSTORE PUSH1 0x20 PUSH1 0x4 DUP3 ADD MSTORE PUSH1 0x26 PUSH1 0x24 DUP3 ADD MSTORE PUSH32 0x4F70656E696E67206F66666572206F757473696465206E65676F74696174696F PUSH1 0x44 DUP3 ADD MSTORE PUSH6 0x1B8818985B99 PUSH1 0xD2 SHL PUSH1 0x64 DUP3 ADD MSTORE PUSH1 0x84 SWAP1 REVERT JUMPDEST POP DUP2 DUP5 GT ISZERO PUSH2 0xCCC JUMP JUMPDEST PUSH1 0x40 MLOAD PUSH3 0x461BCD PUSH1 0xE5 SHL DUP2 MSTORE PUSH1 0x20 PUSH1 0x4 DUP3 ADD MSTORE PUSH1 0x1E PUSH1 0x24 DUP3 ADD MSTORE PUSH32 0x46617265206D7573742062652067726561746572207468616E207A65726F0000 PUSH1 0x44 DUP3 ADD MSTORE PUSH1 0x64 SWAP1 REVERT JUMPDEST CALLVALUE PUSH2 0x22E JUMPI PUSH1 0x60 CALLDATASIZE PUSH1 0x3 NOT ADD SLT PUSH2 0x22E JUMPI PUSH1 0x4 CALLDATALOAD PUSH1 0x24 CALLDATALOAD PUSH1 0x44 CALLDATALOAD DUP3 PUSH1 0x0 MSTORE PUSH1 0x20 PUSH1 0xB DUP2 MSTORE PUSH2 0xEB2 PUSH1 0x1 DUP1 PUSH1 0xA0 SHL SUB PUSH1 0x40 PUSH1 0x0 KECCAK256 SLOAD AND CALLER EQ PUSH2 0x2914 JUMP JUMPDEST DUP4 PUSH1 0x0 MSTORE PUSH1 0xB DUP2 MSTORE PUSH1 0xFF PUSH1 0x12 PUSH1 0x40 PUSH1 0x0 KECCAK256 ADD SLOAD AND PUSH1 0x6 DUP2 LT ISZERO PUSH2 0x431 JUMPI PUSH1 0x2 PUSH2 0xEDB SWAP2 EQ PUSH2 0x2960 JUMP JUMPDEST DUP4 PUSH1 0x0 MSTORE PUSH1 0xB DUP2 MSTORE PUSH1 0x40 PUSH1 0x0 KECCAK256 PUSH1 0x12 DUP2 ADD DUP1 SLOAD PUSH1 0xFF DUP2 PUSH1 0x8 SHR AND PUSH2 0xFA1 JUMPI PUSH1 0x5 DUP4 ADD SLOAD DUP6 LT ISZERO DUP1 PUSH2 0xF93 JUMPI JUMPDEST ISZERO PUSH2 0xF56 JUMPI SWAP4 PUSH1 0x14 DUP2 SWAP4 PUSH32 0x1D827405B2FF829E89ABE7167A97CCE740E9D6CC191E135566BE04BE196D560B SWAP8 SWAP6 SWAP4 PUSH2 0x100 PUSH1 0x40 SWAP9 PUSH2 0xFF00 NOT AND OR SWAP1 SSTORE DUP6 PUSH1 0x13 DUP3 ADD SSTORE ADD SSTORE DUP4 MLOAD SWAP3 DUP4 MSTORE DUP3 ADD MSTORE LOG2 STOP JUMPDEST PUSH1 0x40 MLOAD PUSH3 0x461BCD PUSH1 0xE5 SHL DUP2 MSTORE PUSH1 0x4 DUP2 ADD DUP6 SWAP1 MSTORE PUSH1 0x15 PUSH1 0x24 DUP3 ADD MSTORE PUSH21 0x13995DC819985C99481BDD5D1CDA59194818985B99 PUSH1 0x5A SHL PUSH1 0x44 DUP3 ADD MSTORE PUSH1 0x64 SWAP1 REVERT JUMPDEST POP PUSH1 0x6 DUP4 ADD SLOAD DUP6 GT ISZERO PUSH2 0xF07 JUMP JUMPDEST PUSH1 0x40 MLOAD PUSH3 0x461BCD PUSH1 0xE5 SHL DUP2 MSTORE PUSH1 0x4 DUP2 ADD DUP6 SWAP1 MSTORE PUSH1 0x19 PUSH1 0x24 DUP3 ADD MSTORE PUSH32 0x416D656E646D656E7420616C72656164792070656E64696E6700000000000000 PUSH1 0x44 DUP3 ADD MSTORE PUSH1 0x64 SWAP1 REVERT JUMPDEST CALLVALUE PUSH2 0x22E JUMPI PUSH1 0x20 CALLDATASIZE PUSH1 0x3 NOT ADD SLT PUSH2 0x22E JUMPI PUSH2 0xFFF PUSH2 0x282A JUMP JUMPDEST PUSH1 0x0 PUSH1 0xC0 PUSH1 0x40 MLOAD PUSH2 0x100F DUP2 PUSH2 0x2A35 JUMP JUMPDEST DUP3 DUP2 MSTORE DUP3 PUSH1 0x20 DUP3 ADD MSTORE DUP3 PUSH1 0x40 DUP3 ADD MSTORE DUP3 PUSH1 0x60 DUP3 ADD MSTORE DUP3 PUSH1 0x80 DUP3 ADD MSTORE DUP3 PUSH1 0xA0 DUP3 ADD MSTORE ADD MSTORE PUSH1 0x1 DUP1 PUSH1 0xA0 SHL SUB AND PUSH1 0x0 MSTORE PUSH1 0xC PUSH1 0x20 MSTORE PUSH1 0xE0 PUSH1 0x40 PUSH1 0x0 KECCAK256 PUSH1 0x40 MLOAD SWAP1 PUSH2 0x1056 DUP3 PUSH2 0x2A35 JUMP JUMPDEST DUP1 SLOAD DUP3 MSTORE PUSH1 0x1 DUP2 ADD SLOAD SWAP1 PUSH1 0x20 DUP4 ADD SWAP2 DUP3 MSTORE PUSH1 0x2 DUP2 ADD SLOAD SWAP1 PUSH1 0x40 DUP5 ADD SWAP2 DUP3 MSTORE PUSH1 0x3 DUP2 ADD SLOAD PUSH1 0x60 DUP6 ADD SWAP1 DUP2 MSTORE PUSH1 0x5 PUSH1 0x4 DUP4 ADD SLOAD SWAP3 PUSH1 0x80 DUP8 ADD SWAP4 DUP5 MSTORE ADD SLOAD SWAP3 PUSH1 0xFF PUSH1 0xA0 DUP8 ADD SWAP5 DUP2 DUP2 AND ISZERO ISZERO DUP7 MSTORE PUSH1 0x8 SHR AND SWAP5 PUSH1 0xC0 DUP8 ADD SWAP6 PUSH2 0x10B3 DUP2 PUSH2 0x2840 JUMP JUMPDEST DUP7 MSTORE PUSH1 0x40 MLOAD SWAP7 MLOAD DUP8 MSTORE MLOAD PUSH1 0x20 DUP8 ADD MSTORE MLOAD PUSH1 0x40 DUP7 ADD MSTORE MLOAD PUSH1 0x60 DUP6 ADD MSTORE MLOAD PUSH1 0x80 DUP5 ADD MSTORE MLOAD ISZERO ISZERO PUSH1 0xA0 DUP4 ADD MSTORE MLOAD PUSH2 0x10E6 DUP2 PUSH2 0x2840 JUMP JUMPDEST PUSH1 0xC0 DUP3 ADD MSTORE RETURN JUMPDEST CALLVALUE PUSH2 0x22E JUMPI PUSH2 0x10FB CALLDATASIZE PUSH2 0x2857 JUMP JUMPDEST DUP2 PUSH1 0x0 MSTORE PUSH1 0xB PUSH1 0x20 MSTORE PUSH2 0x111F PUSH1 0x1 DUP1 PUSH1 0xA0 SHL SUB PUSH1 0x1 PUSH1 0x40 PUSH1 0x0 KECCAK256 ADD SLOAD AND CALLER EQ PUSH2 0x2AE1 JUMP JUMPDEST DUP2 PUSH1 0x0 MSTORE PUSH1 0xB PUSH1 0x20 MSTORE PUSH1 0xFF PUSH1 0x12 PUSH1 0x40 PUSH1 0x0 KECCAK256 ADD SLOAD AND PUSH1 0x6 DUP2 LT ISZERO PUSH2 0x431 JUMPI PUSH32 0x992832964A8665164F734A66E8372A10A53B1A2D75A0645CEAC6D9EAEC28C004 SWAP2 PUSH2 0x116D PUSH1 0x2 PUSH1 0x20 SWAP4 EQ PUSH2 0x2960 JUMP JUMPDEST DUP4 PUSH1 0x0 MSTORE PUSH1 0xB DUP3 MSTORE DUP1 PUSH1 0x18 PUSH1 0x40 PUSH1 0x0 KECCAK256 ADD SSTORE PUSH1 0x40 MLOAD SWAP1 DUP2 MSTORE LOG2 STOP JUMPDEST CALLVALUE PUSH2 0x22E JUMPI PUSH1 0x0 CALLDATASIZE PUSH1 0x3 NOT ADD SLT PUSH2 0x22E JUMPI PUSH1 0x1 SLOAD PUSH1 0x40 MLOAD PUSH1 0x1 PUSH1 0x1 PUSH1 0xA0 SHL SUB SWAP1 SWAP2 AND DUP2 MSTORE PUSH1 0x20 SWAP1 RETURN JUMPDEST CALLVALUE PUSH2 0x22E JUMPI PUSH1 0x20 CALLDATASIZE PUSH1 0x3 NOT ADD SLT PUSH2 0x22E JUMPI PUSH1 0x4 CALLDATALOAD DUP1 PUSH1 0x0 MSTORE PUSH1 0xB PUSH1 0x20 MSTORE PUSH2 0x11E9 PUSH1 0x1 DUP1 PUSH1 0xA0 SHL SUB PUSH1 0x1 PUSH1 0x40 PUSH1 0x0 KECCAK256 ADD SLOAD AND CALLER EQ PUSH2 0x2AE1 JUMP JUMPDEST DUP1 PUSH1 0x0 MSTORE PUSH1 0xB PUSH1 0x20 MSTORE PUSH1 0xFF PUSH1 0x12 PUSH1 0x40 PUSH1 0x0 KECCAK256 ADD SLOAD AND PUSH1 0x6 DUP2 LT ISZERO PUSH2 0x431 JUMPI PUSH1 0x2 PUSH2 0x1213 SWAP2 EQ PUSH2 0x2960 JUMP JUMPDEST DUP1 PUSH1 0x0 MSTORE PUSH1 0xB PUSH1 0x20 MSTORE PUSH1 0x12 PUSH1 0x40 PUSH1 0x0 KECCAK256 ADD DUP1 SLOAD PUSH2 0x1235 PUSH1 0xFF DUP3 PUSH1 0x8 SHR AND PUSH2 0x2B2D JUMP JUMPDEST PUSH2 0xFF00 NOT AND SWAP1 SSTORE PUSH32 0x71F1F55FB89AC764C73BEE032AEC484A506126AF59A9C9665037ABC69798E6C5 PUSH1 0x0 DUP1 LOG2 STOP JUMPDEST CALLVALUE PUSH2 0x22E JUMPI PUSH1 0x20 CALLDATASIZE PUSH1 0x3 NOT ADD SLT PUSH2 0x22E JUMPI PUSH1 0x4 CALLDATALOAD PUSH2 0x127F PUSH2 0x286D JUMP JUMPDEST PUSH1 0x14 DUP2 GT PUSH2 0x128C JUMPI PUSH1 0x5 SSTORE STOP JUMPDEST PUSH1 0x40 MLOAD PUSH3 0x461BCD PUSH1 0xE5 SHL DUP2 MSTORE PUSH1 0x20 PUSH1 0x4 DUP3 ADD MSTORE PUSH1 0x15 PUSH1 0x24 DUP3 ADD MSTORE PUSH21 0x426F6E642063616E6E6F742065786365656420323 PUSH1 0x5C SHL PUSH1 0x44 DUP3 ADD MSTORE PUSH1 0x64 SWAP1 REVERT JUMPDEST CALLVALUE PUSH2 0x22E JUMPI PUSH1 0x20 DUP1 PUSH1 0x3 NOT CALLDATASIZE ADD SLT PUSH2 0x22E JUMPI PUSH1 0x4 CALLDATALOAD SWAP1 DUP2 PUSH1 0x0 MSTORE PUSH1 0xB DUP2 MSTORE PUSH1 0x1 DUP1 PUSH1 0xA0 SHL SUB PUSH2 0x1303 DUP2 PUSH1 0x1 PUSH1 0x40 PUSH1 0x0 KECCAK256 ADD SLOAD AND CALLER EQ PUSH2 0x2AE1 JUMP JUMPDEST DUP3 PUSH1 0x0 MSTORE PUSH1 0xB DUP3 MSTORE PUSH1 0xFF PUSH1 0x12 PUSH1 0x40 PUSH1 0x0 KECCAK256 ADD SLOAD AND PUSH1 0x6 DUP2 LT ISZERO PUSH2 0x431 JUMPI PUSH1 0x2 PUSH2 0x132C SWAP2 EQ PUSH2 0x2960 JUMP JUMPDEST PUSH2 0x1334 PUSH2 0x2A8B JUMP JUMPDEST DUP3 PUSH1 0x0 MSTORE PUSH1 0xB DUP3 MSTORE PUSH1 0x40 PUSH1 0x0 KECCAK256 SWAP1 PUSH1 0x12 DUP3 ADD DUP1 SLOAD PUSH1 0xFF DUP2 AND PUSH1 0x6 DUP2 LT ISZERO PUSH2 0x431 JUMPI PUSH1 0x4 EQ PUSH2 0x142D JUMPI PUSH2 0x136C PUSH1 0xFF DUP3 PUSH1 0x8 SHR AND ISZERO PUSH2 0x2B7D JUMP JUMPDEST PUSH2 0x138B PUSH2 0x1382 PUSH1 0xF DUP7 ADD SLOAD PUSH1 0x10 DUP8 ADD SLOAD SWAP1 PUSH2 0x2907 JUMP JUMPDEST PUSH1 0x6 SLOAD SWAP1 PUSH2 0x2907 JUMP JUMPDEST TIMESTAMP LT PUSH2 0x13DE JUMPI TIMESTAMP PUSH1 0x11 DUP6 ADD SSTORE PUSH1 0xFF NOT AND PUSH1 0x3 OR SWAP1 SSTORE PUSH32 0x2506B4EED08805D7166C29CFD21DBB2C2B7F3009CA99B3CF919DD573ED05AD51 SWAP3 SWAP2 PUSH2 0x13D0 SWAP2 PUSH2 0x987 DUP7 PUSH2 0x2C4D JUMP JUMPDEST PUSH1 0x40 MLOAD CALLER DUP2 MSTORE LOG2 PUSH1 0x1 PUSH1 0x0 SSTORE STOP JUMPDEST PUSH1 0x40 MLOAD PUSH3 0x461BCD PUSH1 0xE5 SHL DUP2 MSTORE PUSH1 0x4 DUP2 ADD DUP7 SWAP1 MSTORE PUSH1 0x21 PUSH1 0x24 DUP3 ADD MSTORE PUSH32 0x54696D656F75742077696E646F7720686173206E6F7420706173736564207965 PUSH1 0x44 DUP3 ADD MSTORE PUSH1 0x1D PUSH1 0xFA SHL PUSH1 0x64 DUP3 ADD MSTORE PUSH1 0x84 SWAP1 REVERT JUMPDEST PUSH1 0x40 MLOAD PUSH3 0x461BCD PUSH1 0xE5 SHL DUP2 MSTORE PUSH1 0x4 DUP2 ADD DUP7 SWAP1 MSTORE PUSH1 0x1E PUSH1 0x24 DUP3 ADD MSTORE PUSH32 0x43616E6E6F742074696D656F7574206120646973707574656420726964650000 PUSH1 0x44 DUP3 ADD MSTORE PUSH1 0x64 SWAP1 REVERT JUMPDEST CALLVALUE PUSH2 0x22E JUMPI PUSH1 0x0 CALLDATASIZE PUSH1 0x3 NOT ADD SLT PUSH2 0x22E JUMPI PUSH1 0x20 PUSH1 0x4 SLOAD PUSH1 0x40 MLOAD SWAP1 DUP2 MSTORE RETURN JUMPDEST CALLVALUE PUSH2 0x22E JUMPI PUSH1 0x20 CALLDATASIZE PUSH1 0x3 NOT ADD SLT PUSH2 0x22E JUMPI PUSH1 0x0 PUSH2 0x320 PUSH1 0x40 MLOAD PUSH2 0x14B2 DUP2 PUSH2 0x2A02 JUMP JUMPDEST DUP3 DUP2 MSTORE DUP3 PUSH1 0x20 DUP3 ADD MSTORE DUP3 PUSH1 0x40 DUP3 ADD MSTORE DUP3 PUSH1 0x60 DUP3 ADD MSTORE DUP3 PUSH1 0x80 DUP3 ADD MSTORE DUP3 PUSH1 0xA0 DUP3 ADD MSTORE DUP3 PUSH1 0xC0 DUP3 ADD MSTORE DUP3 PUSH1 0xE0 DUP3 ADD MSTORE DUP3 PUSH2 0x100 DUP3 ADD MSTORE DUP3 PUSH2 0x120 DUP3 ADD MSTORE DUP3 PUSH2 0x140 DUP3 ADD MSTORE DUP3 PUSH2 0x160 DUP3 ADD MSTORE DUP3 PUSH2 0x180 DUP3 ADD MSTORE DUP3 PUSH2 0x1A0 DUP3 ADD MSTORE DUP3 PUSH2 0x1C0 DUP3 ADD MSTORE DUP3 PUSH2 0x1E0 DUP3 ADD MSTORE DUP3 PUSH2 0x200 DUP3 ADD MSTORE DUP3 PUSH2 0x220 DUP3 ADD MSTORE DUP3 PUSH2 0x240 DUP3 ADD MSTORE DUP3 PUSH2 0x260 DUP3 ADD MSTORE DUP3 PUSH2 0x280 DUP3 ADD MSTORE DUP3 PUSH2 0x2A0 DUP3 ADD MSTORE DUP3 PUSH2 0x2C0 DUP3 ADD MSTORE DUP3 PUSH2 0x2E0 DUP3 ADD MSTORE DUP3 PUSH2 0x300 DUP3 ADD MSTORE ADD MSTORE PUSH1 0x4 CALLDATALOAD PUSH1 0x0 MSTORE PUSH1 0xB PUSH1 0x20 MSTORE PUSH1 0x40 PUSH1 0x0 KECCAK256 PUSH1 0x40 MLOAD PUSH2 0x1574 DUP2 PUSH2 0x2A02 JUMP JUMPDEST DUP2 SLOAD PUSH1 0x1 PUSH1 0x1 PUSH1 0xA0 SHL SUB SWAP1 DUP2 AND DUP3 MSTORE PUSH1 0x1 DUP4 ADD SLOAD DUP2 AND PUSH1 0x20 DUP4 ADD MSTORE PUSH1 0x2 DUP4 ADD SLOAD PUSH1 0x40 DUP4 ADD MSTORE PUSH1 0x3 DUP4 ADD SLOAD PUSH1 0x60 DUP4 ADD MSTORE PUSH1 0x4 DUP4 ADD SLOAD PUSH1 0x80 DUP4 ADD MSTORE PUSH1 0x5 DUP4 ADD SLOAD PUSH1 0xA0 DUP4 ADD MSTORE PUSH1 0x6 DUP1 DUP5 ADD SLOAD PUSH1 0xC0 DUP5 ADD MSTORE PUSH1 0x7 DUP5 ADD SLOAD PUSH1 0xE0 DUP5 ADD MSTORE PUSH1 0x8 DUP5 ADD SLOAD SWAP1 SWAP2 AND PUSH2 0x100 DUP4 ADD MSTORE PUSH1 0x9 DUP4 ADD SLOAD PUSH2 0x120 DUP4 ADD MSTORE PUSH1 0xA DUP4 ADD SLOAD PUSH2 0x140 DUP4 ADD MSTORE PUSH1 0xB DUP4 ADD SLOAD PUSH2 0x160 DUP4 ADD MSTORE PUSH1 0xC DUP4 ADD SLOAD PUSH2 0x180 DUP4 ADD MSTORE PUSH1 0xD DUP4 ADD SLOAD PUSH2 0x1A0 DUP4 ADD MSTORE PUSH1 0xE DUP4 ADD SLOAD PUSH2 0x1C0 DUP4 ADD MSTORE PUSH1 0xF DUP4 ADD SLOAD PUSH2 0x1E0 DUP4 ADD MSTORE PUSH1 0x10 DUP4 ADD SLOAD PUSH2 0x200 DUP4 ADD MSTORE PUSH1 0x11 DUP4 ADD SLOAD PUSH2 0x220 DUP4 ADD MSTORE PUSH1 0x12 DUP4 ADD SLOAD SWAP1 PUSH1 0xFF DUP3 AND LT ISZERO PUSH2 0x431 JUMPI PUSH2 0x340 SWAP3 PUSH1 0xFF DUP3 DUP2 PUSH1 0x18 SWAP5 AND PUSH2 0x240 DUP7 ADD MSTORE PUSH1 0x8 SHR AND ISZERO ISZERO PUSH2 0x260 DUP5 ADD MSTORE PUSH1 0x13 DUP2 ADD SLOAD PUSH2 0x280 DUP5 ADD MSTORE PUSH1 0x14 DUP2 ADD SLOAD PUSH2 0x2A0 DUP5 ADD MSTORE PUSH1 0xFF PUSH1 0x15 DUP3 ADD SLOAD AND PUSH2 0x1692 DUP2 PUSH2 0x2840 JUMP JUMPDEST PUSH2 0x2C0 DUP5 ADD MSTORE PUSH1 0x16 DUP2 ADD SLOAD PUSH2 0x2E0 DUP5 ADD MSTORE PUSH1 0x1 DUP1 PUSH1 0xA0 SHL SUB PUSH1 0x17 DUP3 ADD SLOAD AND PUSH2 0x300 DUP5 ADD MSTORE ADD SLOAD PUSH2 0x320 DUP3 ADD MSTORE PUSH2 0x320 PUSH1 0x40 MLOAD SWAP2 PUSH1 0x1 DUP1 PUSH1 0xA0 SHL SUB DUP2 MLOAD AND DUP4 MSTORE PUSH1 0x1 DUP1 PUSH1 0xA0 SHL SUB PUSH1 0x20 DUP3 ADD MLOAD AND PUSH1 0x20 DUP5 ADD MSTORE PUSH1 0x40 DUP2 ADD MLOAD PUSH1 0x40 DUP5 ADD MSTORE PUSH1 0x60 DUP2 ADD MLOAD PUSH1 0x60 DUP5 ADD MSTORE PUSH1 0x80 DUP2 ADD MLOAD PUSH1 0x80 DUP5 ADD MSTORE PUSH1 0xA0 DUP2 ADD MLOAD PUSH1 0xA0 DUP5 ADD MSTORE PUSH1 0xC0 DUP2 ADD MLOAD PUSH1 0xC0 DUP5 ADD MSTORE PUSH1 0xE0 DUP2 ADD MLOAD PUSH1 0xE0 DUP5 ADD MSTORE PUSH1 0x1 DUP1 PUSH1 0xA0 SHL SUB PUSH2 0x100 DUP3 ADD MLOAD AND PUSH2 0x100 DUP5 ADD MSTORE PUSH2 0x120 DUP2 ADD MLOAD PUSH2 0x120 DUP5 ADD MSTORE PUSH2 0x140 DUP2 ADD MLOAD PUSH2 0x140 DUP5 ADD MSTORE PUSH2 0x160 DUP2 ADD MLOAD PUSH2 0x160 DUP5 ADD MSTORE PUSH2 0x180 DUP2 ADD MLOAD PUSH2 0x180 DUP5 ADD MSTORE PUSH2 0x1A0 DUP2 ADD MLOAD PUSH2 0x1A0 DUP5 ADD MSTORE PUSH2 0x1C0 DUP2 ADD MLOAD PUSH2 0x1C0 DUP5 ADD MSTORE PUSH2 0x1E0 DUP2 ADD MLOAD PUSH2 0x1E0 DUP5 ADD MSTORE PUSH2 0x200 DUP2 ADD MLOAD PUSH2 0x200 DUP5 ADD MSTORE PUSH2 0x220 DUP2 ADD MLOAD PUSH2 0x220 DUP5 ADD MSTORE PUSH2 0x17B3 PUSH2 0x240 DUP3 ADD MLOAD PUSH2 0x240 DUP6 ADD SWAP1 PUSH2 0x284A JUMP JUMPDEST PUSH2 0x260 DUP2 ADD MLOAD ISZERO ISZERO PUSH2 0x260 DUP5 ADD MSTORE PUSH2 0x280 DUP2 ADD MLOAD PUSH2 0x280 DUP5 ADD MSTORE PUSH2 0x2A0 DUP2 ADD MLOAD PUSH2 0x2A0 DUP5 ADD MSTORE PUSH2 0x2C0 DUP2 ADD MLOAD PUSH2 0x17E8 DUP2 PUSH2 0x2840 JUMP JUMPDEST PUSH2 0x2C0 DUP5 ADD MSTORE PUSH2 0x2E0 DUP2 DUP2 ADD MLOAD SWAP1 DUP5 ADD MSTORE PUSH2 0x300 DUP1 DUP3 ADD MLOAD PUSH1 0x1 PUSH1 0x1 PUSH1 0xA0 SHL SUB AND SWAP1 DUP5 ADD MSTORE ADD MLOAD PUSH2 0x320 DUP3 ADD MSTORE RETURN JUMPDEST CALLVALUE PUSH2 0x22E JUMPI PUSH1 0x0 CALLDATASIZE PUSH1 0x3 NOT ADD SLT PUSH2 0x22E JUMPI PUSH1 0x20 PUSH1 0x9 SLOAD PUSH1 0x40 MLOAD SWAP1 DUP2 MSTORE RETURN JUMPDEST CALLVALUE PUSH2 0x22E JUMPI PUSH2 0x1843 CALLDATASIZE PUSH2 0x2857 JUMP JUMPDEST SWAP1 DUP1 PUSH1 0x0 MSTORE PUSH1 0x20 PUSH1 0xB DUP2 MSTORE PUSH1 0xFF PUSH1 0x12 PUSH1 0x40 PUSH1 0x0 KECCAK256 ADD SLOAD AND PUSH1 0x6 DUP2 LT ISZERO PUSH2 0x431 JUMPI PUSH2 0x186D SWAP1 ISZERO PUSH2 0x2960 JUMP JUMPDEST DUP2 PUSH1 0x0 MSTORE PUSH1 0xB DUP2 MSTORE PUSH1 0x40 PUSH1 0x0 KECCAK256 PUSH2 0x188A PUSH1 0xA DUP3 ADD SLOAD TIMESTAMP GT ISZERO PUSH2 0x29B6 JUMP JUMPDEST PUSH1 0x9 DUP2 ADD SWAP1 DUP2 SLOAD SWAP1 PUSH1 0x7 SLOAD DUP3 LT ISZERO PUSH2 0x1A30 JUMPI PUSH1 0x5 DUP2 ADD SLOAD DUP7 LT ISZERO DUP1 PUSH2 0x1A22 JUMPI JUMPDEST ISZERO PUSH2 0x19DD JUMPI PUSH1 0x8 DUP2 ADD DUP1 SLOAD SWAP1 SWAP2 PUSH1 0x1 PUSH1 0x1 PUSH1 0xA0 SHL SUB CALLER DUP2 DUP5 AND EQ PUSH2 0x1998 JUMPI DUP2 SLOAD AND CALLER EQ DUP1 ISZERO PUSH2 0x197E JUMPI JUMPDEST ISZERO PUSH2 0x1927 JUMPI PUSH1 0x7 ADD DUP8 SWAP1 SSTORE PUSH1 0x1 PUSH1 0x1 PUSH1 0xA0 SHL SUB NOT AND CALLER OR SWAP1 SSTORE PUSH32 0xBDF1E76C2BA2A5C85B93BF78678A4A3B06D63B18422612DAC8D7D5249ED46714 SWAP3 SWAP2 SWAP1 PUSH2 0x191A SWAP1 PUSH2 0x28F8 JUMP JUMPDEST SWAP1 SSTORE PUSH1 0x40 MLOAD SWAP4 DUP5 MSTORE CALLER SWAP4 LOG3 STOP JUMPDEST PUSH1 0x40 MLOAD PUSH3 0x461BCD PUSH1 0xE5 SHL DUP2 MSTORE PUSH1 0x4 DUP2 ADD DUP8 SWAP1 MSTORE PUSH1 0x29 PUSH1 0x24 DUP3 ADD MSTORE PUSH32 0x4F6E6C79207269646572206F7220766572696669656420647269766572206361 PUSH1 0x44 DUP3 ADD MSTORE PUSH9 0x371031B7BAB73A32B9 PUSH1 0xB9 SHL PUSH1 0x64 DUP3 ADD MSTORE PUSH1 0x84 SWAP1 REVERT JUMPDEST POP CALLER PUSH1 0x0 MSTORE PUSH1 0xC DUP7 MSTORE PUSH1 0xFF PUSH1 0x5 PUSH1 0x40 PUSH1 0x0 KECCAK256 ADD SLOAD AND PUSH2 0x18D4 JUMP JUMPDEST PUSH1 0x40 MLOAD PUSH3 0x461BCD PUSH1 0xE5 SHL DUP2 MSTORE PUSH1 0x4 DUP2 ADD DUP9 SWAP1 MSTORE PUSH1 0x1D PUSH1 0x24 DUP3 ADD MSTORE PUSH32 0x43616E6E6F7420636F756E74657220796F7572206F776E206F66666572000000 PUSH1 0x44 DUP3 ADD MSTORE PUSH1 0x64 SWAP1 REVERT JUMPDEST PUSH1 0x40 MLOAD PUSH3 0x461BCD PUSH1 0xE5 SHL DUP2 MSTORE PUSH1 0x4 DUP2 ADD DUP6 SWAP1 MSTORE PUSH1 0x1E PUSH1 0x24 DUP3 ADD MSTORE PUSH32 0x4F66666572206F757473696465206E65676F74696174696F6E2062616E640000 PUSH1 0x44 DUP3 ADD MSTORE PUSH1 0x64 SWAP1 REVERT JUMPDEST POP PUSH1 0x6 DUP2 ADD SLOAD DUP7 GT ISZERO PUSH2 0x18AA JUMP JUMPDEST PUSH1 0x40 MLOAD PUSH3 0x461BCD PUSH1 0xE5 SHL DUP2 MSTORE PUSH1 0x4 DUP2 ADD DUP6 SWAP1 MSTORE PUSH1 0x22 PUSH1 0x24 DUP3 ADD MSTORE PUSH32 0x4D6178696D756D206E65676F74696174696F6E20726F756E6473207265616368 PUSH1 0x44 DUP3 ADD MSTORE PUSH2 0x1959 PUSH1 0xF2 SHL PUSH1 0x64 DUP3 ADD MSTORE PUSH1 0x84 SWAP1 REVERT JUMPDEST CALLVALUE PUSH2 0x22E JUMPI PUSH1 0x0 CALLDATASIZE PUSH1 0x3 NOT ADD SLT PUSH2 0x22E JUMPI PUSH2 0x1A99 PUSH2 0x286D JUMP JUMPDEST PUSH1 0x1 DUP1 SLOAD PUSH1 0x1 PUSH1 0x1 PUSH1 0xA0 SHL SUB NOT DUP2 AND SWAP1 SWAP2 SSTORE PUSH1 0x0 SWAP1 PUSH1 0x1 PUSH1 0x1 PUSH1 0xA0 SHL SUB AND PUSH32 0x8BE0079C531659141344CD1FD0A4F28419497F9722A3DAAFE3B4186F6B6457E0 DUP3 DUP1 LOG3 STOP JUMPDEST CALLVALUE PUSH2 0x22E JUMPI PUSH2 0x1AEB CALLDATASIZE PUSH2 0x2857 JUMP JUMPDEST DUP2 PUSH1 0x0 MSTORE PUSH1 0x20 SWAP2 PUSH1 0xB DUP4 MSTORE PUSH1 0x40 PUSH1 0x0 KECCAK256 SWAP3 PUSH1 0xFF PUSH1 0x12 DUP6 ADD SLOAD AND PUSH1 0x6 DUP2 LT ISZERO PUSH2 0x431 JUMPI PUSH1 0x3 SUB PUSH2 0x1C67 JUMPI PUSH1 0x1 DUP4 LT ISZERO DUP1 PUSH2 0x1C5C JUMPI JUMPDEST ISZERO PUSH2 0x1C21 JUMPI DUP4 SLOAD PUSH1 0x1 PUSH1 0x1 PUSH1 0xA0 SHL SUB SWAP5 SWAP1 DUP6 AND CALLER DUP2 EQ DUP1 DUP1 ISZERO PUSH2 0x1C12 JUMPI JUMPDEST ISZERO PUSH2 0x1BCD JUMPI PUSH32 0xAC4CF76091AA7BCBDA7B8EFFAEF21948AFF7D58739956CA66DE94676BF466B5E SWAP4 SWAP3 PUSH2 0x1BB9 SWAP3 DUP9 SWAP3 ISZERO PUSH2 0x1BC4 JUMPI POP PUSH1 0x1 ADD SLOAD AND SWAP6 JUMPDEST DUP7 AND SWAP6 DUP7 PUSH1 0x0 MSTORE PUSH1 0xC DUP4 MSTORE PUSH1 0x1 PUSH1 0x40 PUSH1 0x0 KECCAK256 ADD PUSH2 0x1B96 DUP8 DUP3 SLOAD PUSH2 0x2907 JUMP JUMPDEST SWAP1 SSTORE DUP7 PUSH1 0x0 MSTORE PUSH1 0xC DUP4 MSTORE PUSH1 0x2 PUSH1 0x40 PUSH1 0x0 KECCAK256 ADD PUSH2 0x1BB2 DUP2 SLOAD PUSH2 0x28F8 JUMP JUMPDEST SWAP1 SSTORE PUSH2 0x3331 JUMP JUMPDEST PUSH1 0x40 MLOAD SWAP4 DUP5 MSTORE CALLER SWAP4 LOG4 STOP JUMPDEST SWAP2 POP POP SWAP6 PUSH2 0x1B78 JUMP JUMPDEST PUSH1 0x40 MLOAD PUSH3 0x461BCD PUSH1 0xE5 SHL DUP2 MSTORE PUSH1 0x4 DUP2 ADD DUP6 SWAP1 MSTORE PUSH1 0x1F PUSH1 0x24 DUP3 ADD MSTORE PUSH32 0x4F6E6C792072696465207061727469636970616E74732063616E207261746500 PUSH1 0x44 DUP3 ADD MSTORE PUSH1 0x64 SWAP1 REVERT JUMPDEST POP DUP7 PUSH1 0x1 DUP5 ADD SLOAD AND CALLER EQ PUSH2 0x1B3D JUMP JUMPDEST PUSH1 0x64 SWAP1 PUSH1 0x40 MLOAD SWAP1 PUSH3 0x461BCD PUSH1 0xE5 SHL DUP3 MSTORE PUSH1 0x4 DUP3 ADD MSTORE PUSH1 0x14 PUSH1 0x24 DUP3 ADD MSTORE PUSH20 0x53636F7265206D757374206265203120746F2035 PUSH1 0x60 SHL PUSH1 0x44 DUP3 ADD MSTORE REVERT JUMPDEST POP PUSH1 0x5 DUP4 GT ISZERO PUSH2 0x1B1F JUMP JUMPDEST PUSH1 0x64 SWAP1 PUSH1 0x40 MLOAD SWAP1 PUSH3 0x461BCD PUSH1 0xE5 SHL DUP3 MSTORE PUSH1 0x4 DUP3 ADD MSTORE PUSH1 0x12 PUSH1 0x24 DUP3 ADD MSTORE PUSH18 0x149A5919481B9BDD0818DBDB5C1B195D1959 PUSH1 0x72 SHL PUSH1 0x44 DUP3 ADD MSTORE REVERT JUMPDEST CALLVALUE PUSH2 0x22E JUMPI PUSH2 0x1CAE CALLDATASIZE PUSH2 0x2857 JUMP JUMPDEST SWAP1 DUP1 PUSH1 0x0 MSTORE PUSH1 0xB PUSH1 0x20 MSTORE PUSH1 0xFF PUSH1 0x12 PUSH1 0x40 PUSH1 0x0 KECCAK256 ADD SLOAD AND PUSH1 0x6 DUP2 LT ISZERO PUSH2 0x431 JUMPI PUSH1 0x2 PUSH2 0x1CD9 SWAP2 EQ PUSH2 0x2960 JUMP JUMPDEST DUP1 PUSH1 0x0 MSTORE PUSH1 0xB PUSH1 0x20 MSTORE PUSH1 0x40 PUSH1 0x0 KECCAK256 SWAP2 PUSH1 0x1 DUP1 PUSH1 0xA0 SHL SUB DUP1 DUP5 SLOAD AND CALLER EQ SWAP1 DUP2 ISZERO PUSH2 0x1DCC JUMPI JUMPDEST POP ISZERO PUSH2 0x1D78 JUMPI PUSH1 0x1 PUSH1 0x15 DUP5 PUSH1 0x12 PUSH2 0x1D76 SWAP7 ADD SWAP4 PUSH1 0xFF NOT SWAP5 PUSH1 0x4 DUP7 DUP3 SLOAD AND OR SWAP1 SSTORE PUSH1 0x16 DUP3 ADD SSTORE PUSH1 0x17 DUP2 ADD CALLER PUSH1 0x1 PUSH1 0x1 PUSH1 0x60 SHL SUB PUSH1 0xA0 SHL DUP3 SLOAD AND OR SWAP1 SSTORE ADD SWAP2 DUP3 SLOAD AND OR SWAP1 SSTORE DUP1 PUSH32 0xF62C8BDE4B16EE761026513CACCA0A3CFAF76D09E3D25A1BE1E4A7DA30D8BF7C PUSH1 0x40 DUP1 MLOAD CALLER DUP2 MSTORE PUSH1 0x1 PUSH1 0x20 DUP3 ADD MSTORE LOG2 PUSH2 0x2E75 JUMP JUMPDEST STOP JUMPDEST PUSH1 0x40 MLOAD PUSH3 0x461BCD PUSH1 0xE5 SHL DUP2 MSTORE PUSH1 0x20 PUSH1 0x4 DUP3 ADD MSTORE PUSH1 0x26 PUSH1 0x24 DUP3 ADD MSTORE PUSH32 0x4F6E6C79207269646572206F72206472697665722063616E2072616973652064 PUSH1 0x44 DUP3 ADD MSTORE PUSH6 0x697370757465 PUSH1 0xD0 SHL PUSH1 0x64 DUP3 ADD MSTORE PUSH1 0x84 SWAP1 REVERT JUMPDEST SWAP1 POP PUSH1 0x1 DUP5 ADD SLOAD AND CALLER EQ DUP5 PUSH2 0x1CFD JUMP JUMPDEST CALLVALUE PUSH2 0x22E JUMPI PUSH1 0x0 CALLDATASIZE PUSH1 0x3 NOT ADD SLT PUSH2 0x22E JUMPI PUSH1 0x3 SLOAD PUSH1 0x40 MLOAD PUSH1 0x1 PUSH1 0x1 PUSH1 0xA0 SHL SUB SWAP1 SWAP2 AND DUP2 MSTORE PUSH1 0x20 SWAP1 RETURN JUMPDEST CALLVALUE PUSH2 0x22E JUMPI PUSH1 0x20 CALLDATASIZE PUSH1 0x3 NOT ADD SLT PUSH2 0x22E JUMPI PUSH1 0x4 CALLDATALOAD PUSH1 0x0 MSTORE PUSH1 0xB PUSH1 0x20 MSTORE PUSH1 0x40 PUSH1 0x0 KECCAK256 DUP1 PUSH2 0x180 MSTORE DUP1 DUP1 DUP1 DUP1 DUP1 DUP1 DUP1 DUP1 DUP1 DUP1 DUP1 DUP1 DUP1 PUSH1 0x18 PUSH1 0xF PUSH1 0xE PUSH1 0xD PUSH1 0xC PUSH1 0xB PUSH1 0xA PUSH1 0x9 PUSH1 0x7 PUSH1 0x6 PUSH1 0x5 PUSH1 0x4 PUSH1 0x3 DUP14 PUSH1 0x1 DUP1 PUSH1 0xA0 SHL SUB SWAP1 SLOAD AND SWAP14 PUSH1 0x1 DUP1 PUSH1 0xA0 SHL SUB PUSH1 0x1 DUP3 ADD SLOAD AND PUSH1 0xA0 MSTORE PUSH1 0x2 DUP2 ADD SLOAD PUSH1 0xC0 MSTORE ADD SLOAD SWAP14 ADD SLOAD SWAP14 ADD SLOAD SWAP14 ADD SLOAD SWAP14 ADD SLOAD SWAP14 PUSH1 0x8 PUSH1 0x1 DUP1 PUSH1 0xA0 SHL SUB SWAP2 ADD SLOAD AND SWAP15 ADD SLOAD SWAP15 ADD SLOAD SWAP15 ADD SLOAD SWAP15 ADD SLOAD SWAP15 ADD SLOAD SWAP15 ADD SLOAD SWAP15 ADD SLOAD SWAP15 PUSH1 0x10 DUP2 ADD SLOAD PUSH2 0x200 MSTORE PUSH1 0x11 DUP2 ADD SLOAD PUSH2 0x1A0 MSTORE PUSH1 0x12 DUP2 ADD SLOAD PUSH1 0xE0 MSTORE PUSH1 0x13 DUP2 ADD SLOAD PUSH2 0x100 MSTORE PUSH1 0x14 DUP2 ADD SLOAD PUSH2 0x140 MSTORE PUSH1 0xFF PUSH1 0x15 DUP3 ADD SLOAD AND PUSH2 0x120 MSTORE PUSH1 0x16 DUP2 ADD SLOAD PUSH2 0x1C0 MSTORE PUSH1 0x1 DUP1 PUSH1 0xA0 SHL SUB PUSH1 0x17 DUP3 ADD SLOAD AND PUSH2 0x1E0 MSTORE ADD SLOAD PUSH1 0x80 MSTORE PUSH1 0x40 MLOAD DUP1 PUSH2 0x160 MSTORE MSTORE PUSH1 0xA0 MLOAD PUSH1 0x20 PUSH2 0x160 MLOAD ADD MSTORE PUSH1 0xC0 MLOAD PUSH1 0x40 PUSH2 0x160 MLOAD ADD MSTORE PUSH1 0x60 PUSH2 0x160 MLOAD ADD MSTORE PUSH1 0x80 PUSH2 0x160 MLOAD ADD MSTORE PUSH1 0xA0 PUSH2 0x160 MLOAD ADD MSTORE PUSH1 0xC0 PUSH2 0x160 MLOAD ADD MSTORE PUSH1 0xE0 PUSH2 0x160 MLOAD ADD MSTORE PUSH2 0x100 PUSH2 0x160 MLOAD ADD MSTORE PUSH2 0x120 PUSH2 0x160 MLOAD ADD MSTORE PUSH2 0x140 PUSH2 0x160 MLOAD ADD MSTORE PUSH2 0x160 DUP1 MLOAD ADD MSTORE PUSH2 0x180 PUSH2 0x160 MLOAD ADD MSTORE PUSH2 0x1A0 PUSH2 0x160 MLOAD ADD MSTORE PUSH2 0x1C0 PUSH2 0x160 MLOAD ADD MSTORE PUSH2 0x1E0 PUSH2 0x160 MLOAD ADD MSTORE PUSH2 0x200 MLOAD PUSH2 0x200 PUSH2 0x160 MLOAD ADD MSTORE PUSH2 0x1A0 MLOAD PUSH2 0x220 PUSH2 0x160 MLOAD ADD MSTORE PUSH2 0x1FBC PUSH2 0x240 PUSH2 0x160 MLOAD ADD PUSH1 0xFF PUSH1 0xE0 MLOAD AND PUSH2 0x284A JUMP JUMPDEST PUSH1 0xFF PUSH1 0xE0 MLOAD PUSH1 0x8 SHR AND ISZERO ISZERO PUSH2 0x260 PUSH2 0x160 MLOAD ADD MSTORE PUSH2 0x100 MLOAD PUSH2 0x280 PUSH2 0x160 MLOAD ADD MSTORE PUSH2 0x140 MLOAD PUSH2 0x2A0 PUSH2 0x160 MLOAD ADD MSTORE PUSH2 0x1FF6 PUSH2 0x120 MLOAD PUSH2 0x2840 JUMP JUMPDEST PUSH2 0x120 MLOAD PUSH2 0x2C0 PUSH2 0x160 MLOAD ADD MSTORE PUSH2 0x1C0 MLOAD PUSH2 0x2E0 PUSH2 0x160 MLOAD ADD MSTORE PUSH2 0x1E0 MLOAD PUSH2 0x300 PUSH2 0x160 MLOAD ADD MSTORE PUSH1 0x80 MLOAD PUSH2 0x320 PUSH2 0x160 MLOAD ADD MSTORE PUSH2 0x340 PUSH2 0x160 MLOAD RETURN JUMPDEST CALLVALUE PUSH2 0x22E JUMPI PUSH1 0x40 CALLDATASIZE PUSH1 0x3 NOT ADD SLT PUSH2 0x22E JUMPI PUSH1 0x4 CALLDATALOAD PUSH1 0x24 CALLDATALOAD PUSH1 0x1 PUSH1 0x1 PUSH1 0xA0 SHL SUB DUP2 DUP2 AND SWAP2 DUP3 SWAP1 SUB PUSH2 0x22E JUMPI PUSH2 0x2064 PUSH2 0x286D JUMP JUMPDEST DUP3 PUSH1 0x0 MSTORE PUSH1 0x20 SWAP1 PUSH1 0xB DUP3 MSTORE PUSH1 0xFF PUSH1 0x12 PUSH1 0x40 PUSH1 0x0 KECCAK256 ADD SLOAD AND PUSH1 0x6 DUP2 LT ISZERO PUSH2 0x431 JUMPI PUSH1 0x4 PUSH2 0x2090 SWAP2 EQ PUSH2 0x2960 JUMP JUMPDEST PUSH2 0x2098 PUSH2 0x2A8B JUMP JUMPDEST PUSH1 0x0 DUP5 DUP2 MSTORE PUSH1 0xB DUP4 MSTORE PUSH1 0x40 SWAP1 KECCAK256 PUSH1 0x12 DUP2 ADD DUP1 SLOAD PUSH1 0xFF NOT AND PUSH1 0x3 OR SWAP1 SSTORE DUP1 SLOAD DUP3 AND DUP5 SUB PUSH2 0x2277 JUMPI PUSH1 0x2 SLOAD DUP2 SLOAD PUSH1 0xB DUP4 ADD SLOAD PUSH1 0x40 MLOAD PUSH4 0xA9059CBB PUSH1 0xE0 SHL DUP1 DUP3 MSTORE SWAP3 DUP7 AND PUSH1 0x1 PUSH1 0x1 PUSH1 0xA0 SHL SUB AND PUSH1 0x4 DUP3 ADD MSTORE PUSH1 0x24 DUP2 ADD SWAP2 SWAP1 SWAP2 MSTORE SWAP1 SWAP2 DUP6 SWAP1 DUP3 SWAP1 DUP7 AND DUP2 PUSH1 0x0 DUP2 PUSH1 0x44 DUP2 ADD SUB SWAP3 GAS CALL SWAP1 DUP2 ISZERO PUSH2 0x6E4 JUMPI PUSH1 0x0 SWAP2 PUSH2 0x225A JUMPI JUMPDEST POP ISZERO PUSH2 0x221F JUMPI PUSH1 0xC DUP3 ADD SLOAD SWAP1 DUP2 PUSH2 0x2178 JUMPI JUMPDEST POP POP PUSH1 0x40 SWAP3 PUSH2 0x2168 PUSH1 0x0 DUP1 MLOAD PUSH1 0x20 PUSH2 0x3509 DUP4 CODECOPY DUP2 MLOAD SWAP2 MSTORE SWAP6 SWAP4 PUSH1 0x1 PUSH1 0x2 SWAP5 ADD DUP2 DUP2 SLOAD AND PUSH1 0x0 MSTORE PUSH1 0xC DUP5 MSTORE PUSH1 0x3 DUP8 PUSH1 0x0 KECCAK256 ADD PUSH2 0x215F DUP2 SLOAD PUSH2 0x28F8 JUMP JUMPDEST SWAP1 SSTORE SLOAD AND PUSH2 0x3331 JUMP JUMPDEST DUP4 MLOAD SWAP3 DUP4 MSTORE DUP3 ADD MSTORE LOG2 PUSH1 0x1 PUSH1 0x0 SSTORE STOP JUMPDEST PUSH1 0x2 SLOAD PUSH1 0x3 SLOAD PUSH1 0x40 MLOAD SWAP3 DUP4 MSTORE DUP6 AND PUSH1 0x1 PUSH1 0x1 PUSH1 0xA0 SHL SUB AND PUSH1 0x4 DUP4 ADD MSTORE PUSH1 0x24 DUP3 ADD SWAP3 SWAP1 SWAP3 MSTORE SWAP1 DUP5 SWAP1 DUP3 SWAP1 PUSH1 0x44 SWAP1 DUP3 SWAP1 PUSH1 0x0 SWAP1 DUP9 AND GAS CALL SWAP1 DUP2 ISZERO PUSH2 0x6E4 JUMPI PUSH1 0x0 SWAP2 PUSH2 0x2202 JUMPI JUMPDEST POP ISZERO PUSH2 0x21C9 JUMPI DUP6 DUP1 PUSH2 0x2124 JUMP JUMPDEST PUSH1 0x40 MLOAD PUSH3 0x461BCD PUSH1 0xE5 SHL DUP2 MSTORE PUSH1 0x4 DUP2 ADD DUP5 SWAP1 MSTORE PUSH1 0x11 PUSH1 0x24 DUP3 ADD MSTORE PUSH17 0x109BDB99081CDB185CDA0819985A5B1959 PUSH1 0x7A SHL PUSH1 0x44 DUP3 ADD MSTORE PUSH1 0x64 SWAP1 REVERT JUMPDEST PUSH2 0x2219 SWAP2 POP DUP5 RETURNDATASIZE DUP7 GT PUSH2 0x6DD JUMPI PUSH2 0x6CF DUP2 DUP4 PUSH2 0x2A51 JUMP JUMPDEST DUP7 PUSH2 0x21BC JUMP JUMPDEST PUSH1 0x40 MLOAD PUSH3 0x461BCD PUSH1 0xE5 SHL DUP2 MSTORE PUSH1 0x4 DUP2 ADD DUP6 SWAP1 MSTORE PUSH1 0x13 PUSH1 0x24 DUP3 ADD MSTORE PUSH19 0x149A59195C881C99599D5B990819985A5B1959 PUSH1 0x6A SHL PUSH1 0x44 DUP3 ADD MSTORE PUSH1 0x64 SWAP1 REVERT JUMPDEST PUSH2 0x2271 SWAP2 POP DUP6 RETURNDATASIZE DUP8 GT PUSH2 0x6DD JUMPI PUSH2 0x6CF DUP2 DUP4 PUSH2 0x2A51 JUMP JUMPDEST DUP8 PUSH2 0x2112 JUMP JUMPDEST PUSH1 0xB DUP2 ADD SLOAD PUSH1 0x0 PUSH2 0x2297 PUSH1 0x64 PUSH2 0x228F PUSH1 0x4 SLOAD DUP6 PUSH2 0x28C5 JUMP JUMPDEST DIV DUP1 SWAP4 PUSH2 0x2B70 JUMP JUMPDEST PUSH1 0x2 SLOAD PUSH1 0x1 DUP6 ADD DUP1 SLOAD PUSH1 0x40 MLOAD PUSH4 0xA9059CBB PUSH1 0xE0 SHL DUP1 DUP3 MSTORE SWAP2 DUP10 AND PUSH1 0x1 PUSH1 0x1 PUSH1 0xA0 SHL SUB AND PUSH1 0x4 DUP3 ADD MSTORE PUSH1 0x24 DUP2 ADD SWAP5 SWAP1 SWAP5 MSTORE SWAP5 SWAP3 SWAP4 SWAP1 SWAP2 DUP9 SWAP2 DUP6 SWAP2 PUSH1 0x44 SWAP2 DUP4 SWAP2 DUP12 AND GAS CALL SWAP3 DUP4 ISZERO PUSH2 0x6E4 JUMPI DUP8 SWAP4 PUSH2 0x22F4 SWAP2 PUSH1 0x0 SWAP2 PUSH2 0x2459 JUMPI JUMPDEST POP PUSH2 0x2BC9 JUMP JUMPDEST PUSH1 0xC DUP6 ADD SLOAD SWAP1 DUP2 PUSH2 0x23DF JUMPI JUMPDEST POP POP PUSH1 0x2 SLOAD PUSH1 0x3 SLOAD PUSH1 0x40 MLOAD SWAP5 DUP6 MSTORE DUP7 AND PUSH1 0x1 PUSH1 0x1 PUSH1 0xA0 SHL SUB AND PUSH1 0x4 DUP6 ADD MSTORE PUSH1 0x24 DUP5 ADD SWAP2 SWAP1 SWAP2 MSTORE DUP3 SWAP1 DUP6 AND DUP2 PUSH1 0x0 DUP2 PUSH1 0x44 DUP2 ADD JUMPDEST SUB SWAP3 GAS CALL SWAP1 DUP2 ISZERO PUSH2 0x6E4 JUMPI PUSH1 0x0 SWAP2 PUSH2 0x23C2 JUMPI JUMPDEST POP ISZERO PUSH2 0x2387 JUMPI PUSH1 0x40 SWAP3 PUSH2 0x2382 DUP4 DUP4 PUSH1 0x0 DUP1 MLOAD PUSH1 0x20 PUSH2 0x3509 DUP4 CODECOPY DUP2 MLOAD SWAP2 MSTORE SWAP8 SWAP6 PUSH1 0x2 SWAP6 SLOAD AND PUSH1 0x0 MSTORE PUSH1 0xC DUP5 MSTORE PUSH1 0x3 DUP8 PUSH1 0x0 KECCAK256 ADD PUSH2 0x215F DUP2 SLOAD PUSH2 0x28F8 JUMP JUMPDEST PUSH2 0x2168 JUMP JUMPDEST PUSH1 0x40 MLOAD PUSH3 0x461BCD PUSH1 0xE5 SHL DUP2 MSTORE PUSH1 0x4 DUP2 ADD DUP5 SWAP1 MSTORE PUSH1 0x13 PUSH1 0x24 DUP3 ADD MSTORE PUSH19 0x151C99585CDD5C9E481999594819985A5B1959 PUSH1 0x6A SHL PUSH1 0x44 DUP3 ADD MSTORE PUSH1 0x64 SWAP1 REVERT JUMPDEST PUSH2 0x23D9 SWAP2 POP DUP5 RETURNDATASIZE DUP7 GT PUSH2 0x6DD JUMPI PUSH2 0x6CF DUP2 DUP4 PUSH2 0x2A51 JUMP JUMPDEST DUP7 PUSH2 0x2346 JUMP JUMPDEST PUSH1 0x2 SLOAD SWAP1 SLOAD PUSH1 0x40 MLOAD DUP7 DUP2 MSTORE SWAP1 DUP9 AND PUSH1 0x1 PUSH1 0x1 PUSH1 0xA0 SHL SUB AND PUSH1 0x4 DUP3 ADD MSTORE PUSH1 0x24 DUP2 ADD SWAP3 SWAP1 SWAP3 MSTORE SWAP1 SWAP4 SWAP3 SWAP1 DUP5 SWAP1 DUP8 AND DUP2 PUSH1 0x0 DUP2 PUSH1 0x44 DUP2 ADD SUB SWAP3 GAS CALL SWAP2 DUP3 ISZERO PUSH2 0x6E4 JUMPI PUSH2 0x2435 DUP8 SWAP4 PUSH2 0x2333 SWAP6 PUSH1 0x0 SWAP2 PUSH2 0x243C JUMPI JUMPDEST POP PUSH2 0x2C0C JUMP JUMPDEST SWAP3 DUP10 PUSH2 0x2300 JUMP JUMPDEST PUSH2 0x2453 SWAP2 POP DUP6 RETURNDATASIZE DUP8 GT PUSH2 0x6DD JUMPI PUSH2 0x6CF DUP2 DUP4 PUSH2 0x2A51 JUMP JUMPDEST DUP12 PUSH2 0x242F JUMP JUMPDEST PUSH2 0x2470 SWAP2 POP DUP6 RETURNDATASIZE DUP8 GT PUSH2 0x6DD JUMPI PUSH2 0x6CF DUP2 DUP4 PUSH2 0x2A51 JUMP JUMPDEST DUP12 PUSH2 0x22EE JUMP JUMPDEST CALLVALUE PUSH2 0x22E JUMPI PUSH1 0x0 CALLDATASIZE PUSH1 0x3 NOT ADD SLT PUSH2 0x22E JUMPI PUSH1 0x20 PUSH1 0x7 SLOAD PUSH1 0x40 MLOAD SWAP1 DUP2 MSTORE RETURN JUMPDEST CALLVALUE PUSH2 0x22E JUMPI PUSH1 0x0 CALLDATASIZE PUSH1 0x3 NOT ADD SLT PUSH2 0x22E JUMPI PUSH1 0x20 PUSH1 0x8 SLOAD PUSH1 0x40 MLOAD SWAP1 DUP2 MSTORE RETURN JUMPDEST CALLVALUE PUSH2 0x22E JUMPI PUSH1 0x0 CALLDATASIZE PUSH1 0x3 NOT ADD SLT PUSH2 0x22E JUMPI PUSH1 0x2 SLOAD PUSH1 0x40 MLOAD PUSH1 0x1 PUSH1 0x1 PUSH1 0xA0 SHL SUB SWAP1 SWAP2 AND DUP2 MSTORE PUSH1 0x20 SWAP1 RETURN JUMPDEST CALLVALUE PUSH2 0x22E JUMPI PUSH1 0x20 CALLDATASIZE PUSH1 0x3 NOT ADD SLT PUSH2 0x22E JUMPI PUSH1 0x4 CALLDATALOAD PUSH2 0x24F7 PUSH2 0x286D JUMP JUMPDEST PUSH2 0x258 DUP2 LT PUSH2 0x2505 JUMPI PUSH1 0x6 SSTORE STOP JUMPDEST PUSH1 0x40 MLOAD PUSH3 0x461BCD PUSH1 0xE5 SHL DUP2 MSTORE PUSH1 0x20 PUSH1 0x4 DUP3 ADD MSTORE PUSH1 0x11 PUSH1 0x24 DUP3 ADD MSTORE PUSH17 0x151A5B595BDD5D081D1BDBC81CDA1BDC9D PUSH1 0x7A SHL PUSH1 0x44 DUP3 ADD MSTORE PUSH1 0x64 SWAP1 REVERT JUMPDEST CALLVALUE PUSH2 0x22E JUMPI PUSH1 0x0 CALLDATASIZE PUSH1 0x3 NOT ADD SLT PUSH2 0x22E JUMPI PUSH1 0x20 PUSH1 0x6 SLOAD PUSH1 0x40 MLOAD SWAP1 DUP2 MSTORE RETURN JUMPDEST CALLVALUE PUSH2 0x22E JUMPI PUSH1 0x0 CALLDATASIZE PUSH1 0x3 NOT ADD SLT PUSH2 0x22E JUMPI PUSH1 0x20 PUSH1 0xA SLOAD PUSH1 0x40 MLOAD SWAP1 DUP2 MSTORE RETURN JUMPDEST CALLVALUE PUSH2 0x22E JUMPI PUSH1 0x20 CALLDATASIZE PUSH1 0x3 NOT ADD SLT PUSH2 0x22E JUMPI PUSH1 0x4 CALLDATALOAD DUP1 PUSH1 0x0 MSTORE PUSH1 0xB PUSH1 0x20 MSTORE PUSH1 0xFF PUSH1 0x12 PUSH1 0x40 PUSH1 0x0 KECCAK256 ADD SLOAD AND PUSH1 0x6 DUP2 LT ISZERO PUSH2 0x431 JUMPI PUSH2 0x25B6 SWAP1 ISZERO PUSH2 0x2960 JUMP JUMPDEST PUSH1 0x0 DUP2 DUP2 MSTORE PUSH1 0xB PUSH1 0x20 MSTORE PUSH1 0x40 SWAP1 KECCAK256 DUP1 SLOAD CALLER PUSH1 0x1 PUSH1 0x1 PUSH1 0xA0 SHL SUB SWAP2 DUP3 AND EQ SWAP1 DUP2 ISZERO PUSH2 0x265B JUMPI JUMPDEST POP ISZERO PUSH2 0x2616 JUMPI PUSH1 0x12 ADD DUP1 SLOAD PUSH1 0xFF NOT AND PUSH1 0x5 OR SWAP1 SSTORE PUSH32 0xC23EB44B06124E00526761C3C77095FC814BB72C9BE3AC1E58F0BC2EBFE4F7E PUSH1 0x0 DUP1 LOG2 STOP JUMPDEST PUSH1 0x40 MLOAD PUSH3 0x461BCD PUSH1 0xE5 SHL DUP2 MSTORE PUSH1 0x20 PUSH1 0x4 DUP3 ADD MSTORE PUSH1 0x1F PUSH1 0x24 DUP3 ADD MSTORE PUSH32 0x4F6E6C79207269646572206F72206472697665722063616E2063616E63656C00 PUSH1 0x44 DUP3 ADD MSTORE PUSH1 0x64 SWAP1 REVERT JUMPDEST SWAP1 POP PUSH1 0x1 DUP3 ADD SLOAD AND CALLER EQ DUP4 PUSH2 0x25DB JUMP JUMPDEST CALLVALUE PUSH2 0x22E JUMPI PUSH1 0x0 CALLDATASIZE PUSH1 0x3 NOT ADD SLT PUSH2 0x22E JUMPI PUSH1 0x20 PUSH1 0x5 SLOAD PUSH1 0x40 MLOAD SWAP1 DUP2 MSTORE RETURN JUMPDEST CALLVALUE PUSH2 0x22E JUMPI PUSH1 0x20 CALLDATASIZE PUSH1 0x3 NOT ADD SLT PUSH2 0x22E JUMPI PUSH1 0x4 CALLDATALOAD PUSH2 0x26A5 PUSH2 0x286D JUMP JUMPDEST PUSH1 0xA DUP2 GT PUSH2 0x26B2 JUMPI PUSH1 0x4 SSTORE STOP JUMPDEST PUSH1 0x40 MLOAD PUSH3 0x461BCD PUSH1 0xE5 SHL DUP2 MSTORE PUSH1 0x20 PUSH1 0x4 DUP3 ADD MSTORE PUSH1 0x14 PUSH1 0x24 DUP3 ADD MSTORE PUSH20 0x4665652063616E6E6F742065786365656420313 PUSH1 0x64 SHL PUSH1 0x44 DUP3 ADD MSTORE PUSH1 0x64 SWAP1 REVERT JUMPDEST CALLVALUE PUSH2 0x22E JUMPI PUSH1 0x20 CALLDATASIZE PUSH1 0x3 NOT ADD SLT PUSH2 0x22E JUMPI PUSH1 0x4 CALLDATALOAD DUP1 PUSH1 0x0 MSTORE PUSH1 0xB PUSH1 0x20 MSTORE PUSH2 0x2723 PUSH1 0x1 DUP1 PUSH1 0xA0 SHL SUB PUSH1 0x40 PUSH1 0x0 KECCAK256 SLOAD AND CALLER EQ PUSH2 0x2914 JUMP JUMPDEST DUP1 PUSH1 0x0 MSTORE PUSH1 0xB PUSH1 0x20 MSTORE PUSH1 0xFF PUSH1 0x12 PUSH1 0x40 PUSH1 0x0 KECCAK256 ADD SLOAD AND PUSH1 0x6 DUP2 LT ISZERO PUSH2 0x431 JUMPI PUSH2 0x274B SWAP1 ISZERO PUSH2 0x2960 JUMP JUMPDEST DUP1 PUSH1 0x0 MSTORE PUSH1 0xB PUSH1 0x20 MSTORE PUSH1 0x40 PUSH1 0x0 KECCAK256 SWAP1 PUSH1 0x8 PUSH1 0x4 DUP4 ADD SLOAD SWAP3 DUP4 PUSH1 0x7 DUP3 ADD SSTORE ADD CALLER PUSH1 0x1 PUSH1 0x1 PUSH1 0x60 SHL SUB PUSH1 0xA0 SHL DUP3 SLOAD AND OR SWAP1 SSTORE PUSH1 0x40 MLOAD SWAP2 DUP3 MSTORE PUSH32 0xBDF1E76C2BA2A5C85B93BF78678A4A3B06D63B18422612DAC8D7D5249ED46714 PUSH1 0x20 CALLER SWAP4 LOG3 STOP JUMPDEST CALLVALUE PUSH2 0x22E JUMPI PUSH1 0x20 CALLDATASIZE PUSH1 0x3 NOT ADD SLT PUSH2 0x22E JUMPI PUSH1 0xE0 SWAP1 PUSH1 0x1 PUSH1 0x1 PUSH1 0xA0 SHL SUB PUSH2 0x27CD PUSH2 0x282A JUMP JUMPDEST AND PUSH1 0x0 MSTORE PUSH1 0xC PUSH1 0x20 MSTORE PUSH1 0x40 PUSH1 0x0 KECCAK256 PUSH1 0xFF DUP2 SLOAD SWAP2 PUSH1 0x1 DUP2 ADD SLOAD SWAP1 PUSH1 0x2 DUP2 ADD SLOAD PUSH1 0x3 DUP3 ADD SLOAD SWAP1 PUSH1 0x5 PUSH1 0x4 DUP5 ADD SLOAD SWAP4 ADD SLOAD SWAP4 DUP6 DUP6 PUSH1 0x8 SHR AND SWAP7 DUP9 MSTORE PUSH1 0x20 DUP9 ADD MSTORE PUSH1 0x40 DUP8 ADD MSTORE PUSH1 0x60 DUP7 ADD MSTORE PUSH1 0x80 DUP6 ADD MSTORE AND ISZERO ISZERO PUSH1 0xA0 DUP4 ADD MSTORE PUSH2 0x10E6 DUP2 PUSH2 0x2840 JUMP JUMPDEST PUSH1 0x4 CALLDATALOAD SWAP1 PUSH1 0x1 PUSH1 0x1 PUSH1 0xA0 SHL SUB DUP3 AND DUP3 SUB PUSH2 0x22E JUMPI JUMP JUMPDEST PUSH1 0x4 GT ISZERO PUSH2 0x431 JUMPI JUMP JUMPDEST SWAP1 PUSH1 0x6 DUP3 LT ISZERO PUSH2 0x431 JUMPI MSTORE JUMP JUMPDEST PUSH1 0x40 SWAP1 PUSH1 0x3 NOT ADD SLT PUSH2 0x22E JUMPI PUSH1 0x4 CALLDATALOAD SWAP1 PUSH1 0x24 CALLDATALOAD SWAP1 JUMP JUMPDEST PUSH1 0x1 SLOAD PUSH1 0x1 PUSH1 0x1 PUSH1 0xA0 SHL SUB AND CALLER SUB PUSH2 0x2881 JUMPI JUMP JUMPDEST PUSH1 0x64 PUSH1 0x40 MLOAD PUSH3 0x461BCD PUSH1 0xE5 SHL DUP2 MSTORE PUSH1 0x20 PUSH1 0x4 DUP3 ADD MSTORE PUSH1 0x20 PUSH1 0x24 DUP3 ADD MSTORE PUSH32 0x4F776E61626C653A2063616C6C6572206973206E6F7420746865206F776E6572 PUSH1 0x44 DUP3 ADD MSTORE REVERT JUMPDEST DUP2 DUP2 MUL SWAP3 SWAP2 DUP2 ISZERO SWAP2 DUP5 DIV EQ OR ISZERO PUSH2 0x79B JUMPI JUMP JUMPDEST DUP2 ISZERO PUSH2 0x28E2 JUMPI DIV SWAP1 JUMP JUMPDEST PUSH4 0x4E487B71 PUSH1 0xE0 SHL PUSH1 0x0 MSTORE PUSH1 0x12 PUSH1 0x4 MSTORE PUSH1 0x24 PUSH1 0x0 REVERT JUMPDEST PUSH1 0x0 NOT DUP2 EQ PUSH2 0x79B JUMPI PUSH1 0x1 ADD SWAP1 JUMP JUMPDEST SWAP2 SWAP1 DUP3 ADD DUP1 SWAP3 GT PUSH2 0x79B JUMPI JUMP JUMPDEST ISZERO PUSH2 0x291B JUMPI JUMP JUMPDEST PUSH1 0x40 MLOAD PUSH3 0x461BCD PUSH1 0xE5 SHL DUP2 MSTORE PUSH1 0x20 PUSH1 0x4 DUP3 ADD MSTORE PUSH1 0x1A PUSH1 0x24 DUP3 ADD MSTORE PUSH32 0x4F6E6C79207468652072696465722063616E20646F2074686973000000000000 PUSH1 0x44 DUP3 ADD MSTORE PUSH1 0x64 SWAP1 REVERT JUMPDEST ISZERO PUSH2 0x2967 JUMPI JUMP JUMPDEST PUSH1 0x40 MLOAD PUSH3 0x461BCD PUSH1 0xE5 SHL DUP2 MSTORE PUSH1 0x20 PUSH1 0x4 DUP3 ADD MSTORE PUSH1 0x21 PUSH1 0x24 DUP3 ADD MSTORE PUSH32 0x52696465206973206E6F7420696E207468652072657175697265642073746174 PUSH1 0x44 DUP3 ADD MSTORE PUSH1 0x65 PUSH1 0xF8 SHL PUSH1 0x64 DUP3 ADD MSTORE PUSH1 0x84 SWAP1 REVERT JUMPDEST ISZERO PUSH2 0x29BD JUMPI JUMP JUMPDEST PUSH1 0x40 MLOAD PUSH3 0x461BCD PUSH1 0xE5 SHL DUP2 MSTORE PUSH1 0x20 PUSH1 0x4 DUP3 ADD MSTORE PUSH1 0x1D PUSH1 0x24 DUP3 ADD MSTORE PUSH32 0x4E65676F74696174696F6E2077696E646F772068617320636C6F736564000000 PUSH1 0x44 DUP3 ADD MSTORE PUSH1 0x64 SWAP1 REVERT JUMPDEST PUSH2 0x340 DUP2 ADD SWAP1 DUP2 LT PUSH8 0xFFFFFFFFFFFFFFFF DUP3 GT OR PUSH2 0x2A1F JUMPI PUSH1 0x40 MSTORE JUMP JUMPDEST PUSH4 0x4E487B71 PUSH1 0xE0 SHL PUSH1 0x0 MSTORE PUSH1 0x41 PUSH1 0x4 MSTORE PUSH1 0x24 PUSH1 0x0 REVERT JUMPDEST PUSH1 0xE0 DUP2 ADD SWAP1 DUP2 LT PUSH8 0xFFFFFFFFFFFFFFFF DUP3 GT OR PUSH2 0x2A1F JUMPI PUSH1 0x40 MSTORE JUMP JUMPDEST SWAP1 PUSH1 0x1F DUP1 NOT SWAP2 ADD AND DUP2 ADD SWAP1 DUP2 LT PUSH8 0xFFFFFFFFFFFFFFFF DUP3 GT OR PUSH2 0x2A1F JUMPI PUSH1 0x40 MSTORE JUMP JUMPDEST SWAP1 DUP2 PUSH1 0x20 SWAP2 SUB SLT PUSH2 0x22E JUMPI MLOAD DUP1 ISZERO ISZERO DUP2 SUB PUSH2 0x22E JUMPI SWAP1 JUMP JUMPDEST PUSH1 0x2 PUSH1 0x0 SLOAD EQ PUSH2 0x2A9C JUMPI PUSH1 0x2 PUSH1 0x0 SSTORE JUMP JUMPDEST PUSH1 0x40 MLOAD PUSH3 0x461BCD PUSH1 0xE5 SHL DUP2 MSTORE PUSH1 0x20 PUSH1 0x4 DUP3 ADD MSTORE PUSH1 0x1F PUSH1 0x24 DUP3 ADD MSTORE PUSH32 0x5265656E7472616E637947756172643A207265656E7472616E742063616C6C00 PUSH1 0x44 DUP3 ADD MSTORE PUSH1 0x64 SWAP1 REVERT JUMPDEST ISZERO PUSH2 0x2AE8 JUMPI JUMP JUMPDEST PUSH1 0x40 MLOAD PUSH3 0x461BCD PUSH1 0xE5 SHL DUP2 MSTORE PUSH1 0x20 PUSH1 0x4 DUP3 ADD MSTORE PUSH1 0x1B PUSH1 0x24 DUP3 ADD MSTORE PUSH32 0x4F6E6C7920746865206472697665722063616E20646F20746869730000000000 PUSH1 0x44 DUP3 ADD MSTORE PUSH1 0x64 SWAP1 REVERT JUMPDEST ISZERO PUSH2 0x2B34 JUMPI JUMP JUMPDEST PUSH1 0x40 MLOAD PUSH3 0x461BCD PUSH1 0xE5 SHL DUP2 MSTORE PUSH1 0x20 PUSH1 0x4 DUP3 ADD MSTORE PUSH1 0x14 PUSH1 0x24 DUP3 ADD MSTORE PUSH20 0x4E6F20616D656E646D656E742070656E64696E67 PUSH1 0x60 SHL PUSH1 0x44 DUP3 ADD MSTORE PUSH1 0x64 SWAP1 REVERT JUMPDEST SWAP2 SWAP1 DUP3 SUB SWAP2 DUP3 GT PUSH2 0x79B JUMPI JUMP JUMPDEST ISZERO PUSH2 0x2B84 JUMPI JUMP JUMPDEST PUSH1 0x40 MLOAD PUSH3 0x461BCD PUSH1 0xE5 SHL DUP2 MSTORE PUSH1 0x20 PUSH1 0x4 DUP3 ADD MSTORE PUSH1 0x1F PUSH1 0x24 DUP3 ADD MSTORE PUSH32 0x5265736F6C76652070656E64696E6720616D656E646D656E7420666972737400 PUSH1 0x44 DUP3 ADD MSTORE PUSH1 0x64 SWAP1 REVERT JUMPDEST ISZERO PUSH2 0x2BD0 JUMPI JUMP JUMPDEST PUSH1 0x40 MLOAD PUSH3 0x461BCD PUSH1 0xE5 SHL DUP2 MSTORE PUSH1 0x20 PUSH1 0x4 DUP3 ADD MSTORE PUSH1 0x14 PUSH1 0x24 DUP3 ADD MSTORE PUSH20 0x111C9A5D995C881C185E5BDD5D0819985A5B1959 PUSH1 0x62 SHL PUSH1 0x44 DUP3 ADD MSTORE PUSH1 0x64 SWAP1 REVERT JUMPDEST ISZERO PUSH2 0x2C13 JUMPI JUMP JUMPDEST PUSH1 0x40 MLOAD PUSH3 0x461BCD PUSH1 0xE5 SHL DUP2 MSTORE PUSH1 0x20 PUSH1 0x4 DUP3 ADD MSTORE PUSH1 0x12 PUSH1 0x24 DUP3 ADD MSTORE PUSH18 0x109BDB99081C995D1D5C9B8819985A5B1959 PUSH1 0x72 SHL PUSH1 0x44 DUP3 ADD MSTORE PUSH1 0x64 SWAP1 REVERT JUMPDEST PUSH1 0x0 DUP2 DUP2 MSTORE PUSH1 0x20 PUSH1 0xB DUP2 MSTORE PUSH1 0x40 SWAP2 DUP3 DUP2 KECCAK256 SWAP2 PUSH1 0xB DUP4 ADD SLOAD SWAP2 PUSH2 0x2C7E PUSH1 0x64 PUSH2 0x2C76 PUSH1 0x4 SLOAD DUP7 PUSH2 0x28C5 JUMP JUMPDEST DIV DUP1 SWAP5 PUSH2 0x2B70 JUMP JUMPDEST PUSH1 0x2 SLOAD PUSH1 0x1 DUP7 ADD DUP1 SLOAD DUP9 MLOAD PUSH4 0xA9059CBB PUSH1 0xE0 SHL DUP1 DUP3 MSTORE PUSH1 0x1 PUSH1 0x1 PUSH1 0xA0 SHL SUB SWAP3 DUP4 AND PUSH1 0x4 DUP4 ADD MSTORE PUSH1 0x24 DUP3 ADD DUP7 SWAP1 MSTORE SWAP5 SWAP9 SWAP2 SWAP5 SWAP4 DUP8 SWAP1 DUP3 SWAP1 PUSH1 0x44 SWAP1 DUP3 SWAP1 DUP11 SWAP1 DUP11 AND GAS CALL SWAP1 DUP2 ISZERO PUSH2 0x2E6B JUMPI DUP8 SWAP5 SWAP3 PUSH2 0x2CDE DUP11 SWAP6 SWAP4 PUSH1 0xC SWAP4 DUP11 SWAP2 PUSH2 0x2E4E JUMPI POP PUSH2 0x2BC9 JUMP JUMPDEST ADD SLOAD SWAP1 DUP2 PUSH2 0x2DC8 JUMPI JUMPDEST POP POP PUSH1 0x2 SLOAD PUSH1 0x3 SLOAD DUP11 MLOAD SWAP3 DUP4 MSTORE DUP6 AND PUSH1 0x1 PUSH1 0x1 PUSH1 0xA0 SHL SUB AND PUSH1 0x4 DUP4 ADD MSTORE PUSH1 0x24 DUP3 ADD SWAP3 SWAP1 SWAP3 MSTORE SWAP3 DUP4 SWAP2 AND DUP2 DUP6 DUP2 PUSH1 0x44 DUP2 ADD JUMPDEST SUB SWAP3 GAS CALL SWAP2 DUP3 ISZERO PUSH2 0x2DBD JUMPI SWAP2 PUSH2 0x2DA0 JUMPI JUMPDEST POP ISZERO PUSH2 0x2D5D JUMPI DUP4 MLOAD SWAP3 DUP4 MSTORE DUP3 ADD MSTORE PUSH32 0x316EA47554D67FA539D67F093997AFB15473B08C9EFF898D60111CB33BCB1467 SWAP2 SWAP1 LOG2 JUMP JUMPDEST PUSH1 0x64 SWAP1 DUP5 MLOAD SWAP1 PUSH3 0x461BCD PUSH1 0xE5 SHL DUP3 MSTORE PUSH1 0x4 DUP3 ADD MSTORE PUSH1 0x1C PUSH1 0x24 DUP3 ADD MSTORE PUSH32 0x547265617375727920666565207472616E73666572206661696C656400000000 PUSH1 0x44 DUP3 ADD MSTORE REVERT JUMPDEST PUSH2 0x2DB7 SWAP2 POP DUP3 RETURNDATASIZE DUP5 GT PUSH2 0x6DD JUMPI PUSH2 0x6CF DUP2 DUP4 PUSH2 0x2A51 JUMP JUMPDEST CODESIZE PUSH2 0x2D29 JUMP JUMPDEST DUP7 MLOAD SWAP1 RETURNDATASIZE SWAP1 DUP3 RETURNDATACOPY RETURNDATASIZE SWAP1 REVERT JUMPDEST PUSH1 0x2 SLOAD SWAP1 SLOAD DUP12 MLOAD DUP5 DUP2 MSTORE SWAP1 DUP8 AND PUSH1 0x1 PUSH1 0x1 PUSH1 0xA0 SHL SUB AND PUSH1 0x4 DUP3 ADD MSTORE PUSH1 0x24 DUP2 ADD SWAP3 SWAP1 SWAP3 MSTORE SWAP2 SWAP4 SWAP1 SWAP3 POP SWAP1 DUP3 SWAP1 DUP6 AND DUP2 DUP8 DUP2 PUSH1 0x44 DUP2 ADD SUB SWAP3 GAS CALL SWAP1 DUP2 ISZERO PUSH2 0x2E44 JUMPI SWAP3 DUP6 SWAP3 PUSH2 0x2E1F DUP9 SWAP4 PUSH2 0x2D18 SWAP7 DUP9 SWAP2 PUSH2 0x2E27 JUMPI POP PUSH2 0x2C0C JUMP JUMPDEST SWAP1 SWAP4 CODESIZE PUSH2 0x2CE7 JUMP JUMPDEST PUSH2 0x2E3E SWAP2 POP DUP7 RETURNDATASIZE DUP9 GT PUSH2 0x6DD JUMPI PUSH2 0x6CF DUP2 DUP4 PUSH2 0x2A51 JUMP JUMPDEST CODESIZE PUSH2 0x242F JUMP JUMPDEST DUP9 MLOAD RETURNDATASIZE DUP7 DUP3 RETURNDATACOPY RETURNDATASIZE SWAP1 REVERT JUMPDEST PUSH2 0x2E65 SWAP2 POP DUP9 RETURNDATASIZE DUP11 GT PUSH2 0x6DD JUMPI PUSH2 0x6CF DUP2 DUP4 PUSH2 0x2A51 JUMP JUMPDEST CODESIZE PUSH2 0x22EE JUMP JUMPDEST DUP11 MLOAD RETURNDATASIZE DUP9 DUP3 RETURNDATACOPY RETURNDATASIZE SWAP1 REVERT JUMPDEST PUSH1 0x0 DUP2 DUP2 MSTORE PUSH1 0x20 PUSH1 0xB DUP2 MSTORE PUSH1 0x40 SWAP2 DUP3 DUP2 KECCAK256 SWAP1 PUSH1 0x18 DUP3 ADD SLOAD ISZERO PUSH2 0x2EE4 JUMPI POP PUSH1 0x15 DUP2 ADD DUP1 SLOAD PUSH1 0xFF NOT AND PUSH1 0x2 SWAP1 DUP2 OR SWAP1 SWAP2 SSTORE PUSH1 0x17 SWAP1 SWAP2 ADD SLOAD DUP4 MLOAD PUSH1 0x1 PUSH1 0x1 PUSH1 0xA0 SHL SUB SWAP2 SWAP1 SWAP2 AND DUP2 MSTORE SWAP2 DUP3 ADD MSTORE PUSH32 0xF62C8BDE4B16EE761026513CACCA0A3CFAF76D09E3D25A1BE1E4A7DA30D8BF7C SWAP2 SWAP1 LOG2 JUMP JUMPDEST SWAP3 SWAP5 SWAP4 SWAP2 PUSH1 0x1 DUP1 PUSH1 0xA0 SHL SUB DUP1 SWAP3 SLOAD AND SWAP2 PUSH2 0x2EFC PUSH2 0x2A8B JUMP JUMPDEST DUP4 DUP6 MSTORE PUSH1 0xB DUP3 MSTORE DUP7 DUP6 KECCAK256 PUSH1 0x12 DUP2 ADD DUP1 SLOAD PUSH1 0xFF NOT AND PUSH1 0x3 OR SWAP1 SSTORE DUP1 SLOAD DUP3 AND DUP5 SUB PUSH2 0x30D5 JUMPI PUSH1 0x2 SLOAD DUP2 SLOAD PUSH1 0xB DUP4 ADD SLOAD DUP11 MLOAD PUSH4 0xA9059CBB PUSH1 0xE0 SHL DUP1 DUP3 MSTORE SWAP3 DUP7 AND PUSH1 0x1 PUSH1 0x1 PUSH1 0xA0 SHL SUB AND PUSH1 0x4 DUP3 ADD MSTORE PUSH1 0x24 DUP2 ADD SWAP2 SWAP1 SWAP2 MSTORE SWAP1 SWAP2 DUP6 SWAP1 DUP3 SWAP1 DUP7 AND DUP2 DUP12 DUP2 PUSH1 0x44 DUP2 ADD SUB SWAP3 GAS CALL SWAP1 DUP2 ISZERO PUSH2 0x30CB JUMPI DUP9 SWAP2 PUSH2 0x30AE JUMPI JUMPDEST POP ISZERO PUSH2 0x3074 JUMPI PUSH1 0xC DUP3 ADD SLOAD SWAP1 DUP2 PUSH2 0x2FC7 JUMPI JUMPDEST POP POP PUSH1 0x1 SWAP7 SWAP8 SWAP3 PUSH2 0x2FBB PUSH1 0x0 DUP1 MLOAD PUSH1 0x20 PUSH2 0x3509 DUP4 CODECOPY DUP2 MLOAD SWAP2 MSTORE SWAP6 SWAP4 DUP10 DUP1 SWAP5 ADD DUP2 DUP2 SLOAD AND DUP11 MSTORE PUSH1 0xC DUP5 MSTORE PUSH1 0x3 DUP8 DUP12 KECCAK256 ADD PUSH2 0x215F DUP2 SLOAD PUSH2 0x28F8 JUMP JUMPDEST DUP4 MLOAD SWAP3 DUP4 MSTORE DUP3 ADD MSTORE LOG2 SSTORE JUMP JUMPDEST PUSH1 0x2 SLOAD PUSH1 0x3 SLOAD DUP12 MLOAD SWAP3 DUP4 MSTORE DUP6 AND PUSH1 0x1 PUSH1 0x1 PUSH1 0xA0 SHL SUB AND PUSH1 0x4 DUP4 ADD MSTORE PUSH1 0x24 DUP3 ADD SWAP3 SWAP1 SWAP3 MSTORE SWAP1 DUP5 SWAP1 DUP3 SWAP1 PUSH1 0x44 SWAP1 DUP3 SWAP1 DUP12 SWAP1 DUP9 AND GAS CALL SWAP1 DUP2 ISZERO PUSH2 0x306A JUMPI DUP8 SWAP2 PUSH2 0x304D JUMPI JUMPDEST POP ISZERO PUSH2 0x3015 JUMPI CODESIZE DUP1 PUSH2 0x2F82 JUMP JUMPDEST DUP8 MLOAD PUSH3 0x461BCD PUSH1 0xE5 SHL DUP2 MSTORE PUSH1 0x4 DUP2 ADD DUP5 SWAP1 MSTORE PUSH1 0x11 PUSH1 0x24 DUP3 ADD MSTORE PUSH17 0x109BDB99081CDB185CDA0819985A5B1959 PUSH1 0x7A SHL PUSH1 0x44 DUP3 ADD MSTORE PUSH1 0x64 SWAP1 REVERT JUMPDEST PUSH2 0x3064 SWAP2 POP DUP5 RETURNDATASIZE DUP7 GT PUSH2 0x6DD JUMPI PUSH2 0x6CF DUP2 DUP4 PUSH2 0x2A51 JUMP JUMPDEST CODESIZE PUSH2 0x3008 JUMP JUMPDEST DUP10 MLOAD RETURNDATASIZE DUP10 DUP3 RETURNDATACOPY RETURNDATASIZE SWAP1 REVERT JUMPDEST DUP9 MLOAD PUSH3 0x461BCD PUSH1 0xE5 SHL DUP2 MSTORE PUSH1 0x4 DUP2 ADD DUP6 SWAP1 MSTORE PUSH1 0x13 PUSH1 0x24 DUP3 ADD MSTORE PUSH19 0x149A59195C881C99599D5B990819985A5B1959 PUSH1 0x6A SHL PUSH1 0x44 DUP3 ADD MSTORE PUSH1 0x64 SWAP1 REVERT JUMPDEST PUSH2 0x30C5 SWAP2 POP DUP6 RETURNDATASIZE DUP8 GT PUSH2 0x6DD JUMPI PUSH2 0x6CF DUP2 DUP4 PUSH2 0x2A51 JUMP JUMPDEST CODESIZE PUSH2 0x2F70 JUMP JUMPDEST DUP11 MLOAD RETURNDATASIZE DUP11 DUP3 RETURNDATACOPY RETURNDATASIZE SWAP1 REVERT JUMPDEST PUSH1 0xB DUP2 ADD SLOAD DUP9 PUSH2 0x30EC PUSH1 0x64 PUSH2 0x228F PUSH1 0x4 SLOAD DUP6 PUSH2 0x28C5 JUMP JUMPDEST PUSH1 0x2 SLOAD PUSH1 0x1 DUP6 ADD DUP1 SLOAD SWAP4 MLOAD PUSH4 0xA9059CBB PUSH1 0xE0 SHL DUP1 DUP3 MSTORE SWAP5 DUP9 AND PUSH1 0x1 PUSH1 0x1 PUSH1 0xA0 SHL SUB AND PUSH1 0x4 DUP3 ADD MSTORE PUSH1 0x24 DUP2 ADD SWAP4 SWAP1 SWAP4 MSTORE SWAP2 SWAP1 DUP8 SWAP1 DUP3 SWAP1 DUP9 AND DUP2 DUP14 DUP2 PUSH1 0x44 DUP2 ADD SUB SWAP3 GAS CALL SWAP1 DUP2 ISZERO PUSH2 0x32C4 JUMPI DUP8 SWAP4 SWAP3 SWAP2 PUSH2 0x3149 SWAP2 DUP13 SWAP2 PUSH2 0x32AD JUMPI POP PUSH2 0x2BC9 JUMP JUMPDEST PUSH1 0xC DUP6 ADD SLOAD SWAP1 DUP2 PUSH2 0x3230 JUMPI JUMPDEST POP POP PUSH1 0x2 SLOAD PUSH1 0x3 SLOAD DUP13 MLOAD SWAP3 DUP4 MSTORE DUP7 AND PUSH1 0x1 PUSH1 0x1 PUSH1 0xA0 SHL SUB AND PUSH1 0x4 DUP4 ADD MSTORE PUSH1 0x24 DUP3 ADD SWAP4 SWAP1 SWAP4 MSTORE SWAP2 DUP3 SWAP1 DUP6 AND DUP2 DUP11 DUP2 PUSH1 0x44 DUP2 ADD JUMPDEST SUB SWAP3 GAS CALL SWAP1 DUP2 ISZERO PUSH2 0x306A JUMPI DUP8 SWAP2 PUSH2 0x3213 JUMPI JUMPDEST POP ISZERO PUSH2 0x31D9 JUMPI PUSH1 0x1 SWAP7 SWAP8 SWAP3 PUSH2 0x31D4 DUP4 DUP4 PUSH1 0x0 DUP1 MLOAD PUSH1 0x20 PUSH2 0x3509 DUP4 CODECOPY DUP2 MLOAD SWAP2 MSTORE SWAP8 SWAP6 DUP12 SWAP6 SLOAD AND DUP11 MSTORE PUSH1 0xC DUP5 MSTORE PUSH1 0x3 DUP8 DUP12 KECCAK256 ADD PUSH2 0x215F DUP2 SLOAD PUSH2 0x28F8 JUMP JUMPDEST PUSH2 0x2FBB JUMP JUMPDEST DUP8 MLOAD PUSH3 0x461BCD PUSH1 0xE5 SHL DUP2 MSTORE PUSH1 0x4 DUP2 ADD DUP5 SWAP1 MSTORE PUSH1 0x13 PUSH1 0x24 DUP3 ADD MSTORE PUSH19 0x151C99585CDD5C9E481999594819985A5B1959 PUSH1 0x6A SHL PUSH1 0x44 DUP3 ADD MSTORE PUSH1 0x64 SWAP1 REVERT JUMPDEST PUSH2 0x322A SWAP2 POP DUP5 RETURNDATASIZE DUP7 GT PUSH2 0x6DD JUMPI PUSH2 0x6CF DUP2 DUP4 PUSH2 0x2A51 JUMP JUMPDEST CODESIZE PUSH2 0x3199 JUMP JUMPDEST PUSH1 0x2 SLOAD SWAP1 SLOAD DUP14 MLOAD DUP5 DUP2 MSTORE SWAP1 DUP9 AND PUSH1 0x1 PUSH1 0x1 PUSH1 0xA0 SHL SUB AND PUSH1 0x4 DUP3 ADD MSTORE PUSH1 0x24 DUP2 ADD SWAP3 SWAP1 SWAP3 MSTORE SWAP2 SWAP3 SWAP1 SWAP2 DUP3 SWAP1 DUP8 AND DUP2 DUP13 DUP2 PUSH1 0x44 DUP2 ADD SUB SWAP3 GAS CALL SWAP1 DUP2 ISZERO PUSH2 0x32A3 JUMPI SWAP2 PUSH2 0x3284 PUSH2 0x3187 SWAP5 SWAP3 DUP9 SWAP5 DUP13 SWAP2 PUSH2 0x328C JUMPI POP PUSH2 0x2C0C JUMP JUMPDEST SWAP1 SWAP3 CODESIZE PUSH2 0x3155 JUMP JUMPDEST PUSH2 0x2E3E SWAP2 POP DUP6 RETURNDATASIZE DUP8 GT PUSH2 0x6DD JUMPI PUSH2 0x6CF DUP2 DUP4 PUSH2 0x2A51 JUMP JUMPDEST DUP12 MLOAD RETURNDATASIZE DUP12 DUP3 RETURNDATACOPY RETURNDATASIZE SWAP1 REVERT JUMPDEST PUSH2 0x2E65 SWAP2 POP DUP6 RETURNDATASIZE DUP8 GT PUSH2 0x6DD JUMPI PUSH2 0x6CF DUP2 DUP4 PUSH2 0x2A51 JUMP JUMPDEST DUP13 MLOAD RETURNDATASIZE DUP13 DUP3 RETURNDATACOPY RETURNDATASIZE SWAP1 REVERT JUMPDEST SWAP1 PUSH2 0x332A PUSH2 0x332F SWAP3 PUSH1 0x40 PUSH1 0x1 DUP1 PUSH1 0xA0 SHL SUB DUP1 DUP4 AND SWAP1 PUSH1 0x0 SWAP2 DUP1 DUP4 MSTORE PUSH1 0xC PUSH1 0x20 MSTORE DUP4 DUP4 KECCAK256 PUSH2 0x32FB DUP2 SLOAD PUSH2 0x28F8 JUMP JUMPDEST SWAP1 SSTORE DUP3 MSTORE PUSH1 0xC PUSH1 0x20 MSTORE PUSH1 0x4 DUP4 DUP4 KECCAK256 ADD PUSH2 0x3314 DUP2 SLOAD PUSH2 0x28F8 JUMP JUMPDEST SWAP1 SSTORE DUP6 AND DUP2 MSTORE PUSH1 0xC PUSH1 0x20 MSTORE KECCAK256 PUSH2 0x1BB2 DUP2 SLOAD PUSH2 0x28F8 JUMP JUMPDEST PUSH2 0x3331 JUMP JUMPDEST JUMP JUMPDEST PUSH1 0x1 PUSH1 0x1 PUSH1 0xA0 SHL SUB AND PUSH1 0x0 SWAP1 DUP2 MSTORE PUSH1 0xC PUSH1 0x20 MSTORE PUSH1 0x40 DUP2 KECCAK256 DUP1 SLOAD SWAP2 SWAP3 SWAP2 PUSH1 0xA GT PUSH2 0x3453 JUMPI PUSH1 0x2 DUP2 ADD SLOAD DUP1 ISZERO PUSH2 0x343E JUMPI PUSH1 0x1 DUP3 ADD SLOAD PUSH1 0xA DUP2 MUL SWAP1 DUP1 DUP3 DIV PUSH1 0xA EQ SWAP1 ISZERO OR ISZERO PUSH2 0x342A JUMPI SWAP1 PUSH2 0x3381 SWAP2 PUSH2 0x28D8 JUMP JUMPDEST PUSH1 0x2 PUSH1 0x3 DUP4 ADD SLOAD GT PUSH2 0x33E9 JUMPI JUMPDEST SWAP2 SWAP3 POP PUSH1 0x5 SWAP2 PUSH1 0x30 DUP2 LT PUSH2 0x33AD JUMPI POP ADD DUP1 SLOAD PUSH2 0xFF00 NOT AND PUSH2 0x300 OR SWAP1 SSTORE JUMP JUMPDEST PUSH1 0x2B DUP2 LT PUSH2 0x33C6 JUMPI POP ADD DUP1 SLOAD PUSH2 0xFF00 NOT AND PUSH2 0x200 OR SWAP1 SSTORE JUMP JUMPDEST PUSH1 0x23 GT PUSH2 0x33DD JUMPI ADD DUP1 SLOAD PUSH2 0xFF00 NOT AND PUSH2 0x100 OR SWAP1 SSTORE JUMP JUMPDEST ADD DUP1 SLOAD PUSH2 0xFF00 NOT AND SWAP1 SSTORE JUMP JUMPDEST PUSH1 0xA DUP2 GT ISZERO PUSH2 0x3420 JUMPI PUSH1 0x9 NOT DUP2 ADD SWAP1 DUP2 GT PUSH2 0x340C JUMPI PUSH1 0x5 SWAP3 SWAP4 POP JUMPDEST DUP4 SWAP3 POP PUSH2 0x338E JUMP JUMPDEST PUSH4 0x4E487B71 PUSH1 0xE0 SHL DUP5 MSTORE PUSH1 0x11 PUSH1 0x4 MSTORE PUSH1 0x24 DUP5 REVERT JUMPDEST POP PUSH1 0x5 SWAP2 SWAP3 PUSH2 0x3404 JUMP JUMPDEST PUSH4 0x4E487B71 PUSH1 0xE0 SHL DUP6 MSTORE PUSH1 0x11 PUSH1 0x4 MSTORE PUSH1 0x24 DUP6 REVERT JUMPDEST POP PUSH1 0x5 ADD DUP1 SLOAD PUSH2 0xFF00 NOT AND PUSH2 0x100 OR SWAP1 SSTORE SWAP1 POP JUMP JUMPDEST PUSH1 0x5 ADD DUP1 SLOAD PUSH2 0xFF00 NOT AND SWAP1 SSTORE SWAP1 POP JUMP JUMPDEST PUSH1 0x1 DUP1 PUSH1 0xA0 SHL SUB AND PUSH1 0x0 MSTORE PUSH1 0xC PUSH1 0x20 MSTORE PUSH1 0x40 PUSH1 0x0 KECCAK256 PUSH1 0x40 MLOAD PUSH2 0x3484 DUP2 PUSH2 0x2A35 JUMP JUMPDEST DUP2 SLOAD DUP2 MSTORE PUSH1 0x1 DUP3 ADD SLOAD SWAP1 PUSH1 0x20 DUP2 ADD SWAP2 DUP3 MSTORE PUSH1 0xC0 PUSH1 0xFF PUSH1 0x5 PUSH1 0x2 DUP7 ADD SLOAD SWAP6 PUSH1 0x40 DUP6 ADD SWAP7 DUP8 MSTORE PUSH1 0x3 DUP2 ADD SLOAD PUSH1 0x60 DUP7 ADD MSTORE PUSH1 0x4 DUP2 ADD SLOAD PUSH1 0x80 DUP7 ADD MSTORE ADD SLOAD DUP2 DUP2 AND ISZERO ISZERO PUSH1 0xA0 DUP6 ADD MSTORE PUSH1 0x8 SHR AND SWAP2 PUSH2 0x34D6 DUP4 PUSH2 0x2840 JUMP JUMPDEST ADD MSTORE DUP2 MLOAD ISZERO PUSH2 0x3501 JUMPI MLOAD PUSH1 0xA DUP2 MUL SWAP1 DUP1 DUP3 DIV PUSH1 0xA EQ SWAP1 ISZERO OR ISZERO PUSH2 0x79B JUMPI PUSH2 0x34FE SWAP2 MLOAD SWAP1 PUSH2 0x28D8 JUMP JUMPDEST SWAP1 JUMP JUMPDEST POP POP PUSH1 0x0 SWAP1 JUMP INVALID EXP BYTE ADDMOD 0xD0 PUSH28 0x8BB2EF5E6EEA14F3719239138F1CE03A4CEEA3196C1000A265C12AA2 PUSH5 0x6970667358 0x22 SLT KECCAK256 BLOCKHASH 0xE5 PUSH11 0xE339CD5DFAE2EA161D65B3 PC PUSH20 0x57544B41269F2C36235B8A923C1EE65E64736F6C PUSH4 0x43000814 STOP CALLER "},"methodIdentifiers":{"acceptAmendment(uint256)":"b8728c35","acceptOffer(uint256)":"c815729d","acceptRecommended(uint256)":"101aafaf","bandMaxPct()":"2fca747a","bandMinPct()":"7bab34fa","bondPct()":"1f748c42","cancelNegotiation(uint256)":"266795d4","claimTimeout(uint256)":"86e773f1","completeRide(uint256)":"c416dd0b","counterOffer(uint256,uint256)":"75c74008","getAverageScore(address)":"d06509fd","getReputation(address)":"9c89a0e2","getRide(uint256)":"7c7b0ff4","negotiationRounds()":"4780f77e","negotiationWindow()":"4668781e","owner()":"8da5cb5b","platformFeePct()":"7ee6e8e0","proposeAmendment(uint256,bytes32,uint256)":"a0cdc6c5","raiseDispute(uint256,bytes32)":"636bf26d","rejectAmendment(uint256)":"8beed922","renounceOwnership()":"715018a6","reputations(address)":"06fa15a7","requestRide(bytes32,bytes32,uint256,uint256,uint256)":"a329d221","resolveByPanel(uint256,address)":"503c5dce","rideCount()":"b47c1883","rides(uint256)":"5205f112","setBondPct(uint256)":"8945bd28","setPlatformFee(uint256)":"12e8e2c3","setTimeoutWindow(uint256)":"3264f266","setTreasury(address)":"f0f44260","startRide(uint256)":"e9c14b1e","submitRating(uint256,uint256)":"70851171","submitRouteLog(uint256,bytes32)":"9006b4f6","timeoutWindow()":"3049ae2a","transferOwnership(address)":"f2fde38b","treasury()":"61d027b3","usdc()":"3e413bee","verifyDriver(address)":"fd096d59"}}}}}