{
  "_format": "hh-sol-artifact-1",
  "contractName": "RideHailing",
  "sourceName": "contracts/RideHailing.sol",
  "abi": [
    {
      "inputs": [
        {
          "internalType": "address",
          "name": "_usdc",
          "type": "address"
        },
        {
          "internalType": "address",
          "name": "_treasury",
          "type": "address"
        }
      ],
      "stateMutability": "nonpayable",
      "type": "constructor"
    },
    {
      "anonymous": false,
      "inputs": [
        {
          "indexed": true,
          "internalType": "uint256",
          "name": "rideId",
          "type": "uint256"
        },
        {
          "indexed": false,
          "internalType": "bytes32",
          "name": "newDropoffHash",
          "type": "bytes32"
        },
        {
          "indexed": false,
          "internalType": "uint256",
          "name": "newFare",
          "type": "uint256"
        }
      ],
      "name": "AmendmentAccepted",
      "type": "event"
    },
    {
      "anonymous": false,
      "inputs": [
        {
          "indexed": true,
          "internalType": "uint256",
          "name": "rideId",
          "type": "uint256"
        },
        {
          "indexed": false,
          "internalType": "bytes32",
          "name": "newDropoffHash",
          "type": "bytes32"
        },
        {
          "indexed": false,
          "internalType": "uint256",
          "name": "newFare",
          "type": "uint256"
        }
      ],
      "name": "AmendmentProposed",
      "type": "event"
    },
    {
      "anonymous": false,
      "inputs": [
        {
          "indexed": true,
          "internalType": "uint256",
          "name": "rideId",
          "type": "uint256"
        }
      ],
      "name": "AmendmentRejected",
      "type": "event"
    },
    {
      "anonymous": false,
      "inputs": [
        {
          "indexed": true,
          "internalType": "uint256",
          "name": "rideId",
          "type": "uint256"
        },
        {
          "indexed": false,
          "internalType": "address",
          "name": "by",
          "type": "address"
        },
        {
          "indexed": false,
          "internalType": "enum RideHailing.DisputeTier",
          "name": "tier",
          "type": "uint8"
        }
      ],
      "name": "DisputeRaised",
      "type": "event"
    },
    {
      "anonymous": false,
      "inputs": [
        {
          "indexed": true,
          "internalType": "uint256",
          "name": "rideId",
          "type": "uint256"
        },
        {
          "indexed": false,
          "internalType": "address",
          "name": "winner",
          "type": "address"
        },
        {
          "indexed": false,
          "internalType": "enum RideHailing.DisputeTier",
          "name": "tier",
          "type": "uint8"
        }
      ],
      "name": "DisputeResolved",
      "type": "event"
    },
    {
      "anonymous": false,
      "inputs": [
        {
          "indexed": true,
          "internalType": "address",
          "name": "driver",
          "type": "address"
        }
      ],
      "name": "DriverVerified",
      "type": "event"
    },
    {
      "anonymous": false,
      "inputs": [
        {
          "indexed": true,
          "internalType": "uint256",
          "name": "rideId",
          "type": "uint256"
        },
        {
          "indexed": true,
          "internalType": "address",
          "name": "by",
          "type": "address"
        },
        {
          "indexed": false,
          "internalType": "uint256",
          "name": "amount",
          "type": "uint256"
        }
      ],
      "name": "OfferMade",
      "type": "event"
    },
    {
      "anonymous": false,
      "inputs": [
        {
          "indexed": true,
          "internalType": "address",
          "name": "previousOwner",
          "type": "address"
        },
        {
          "indexed": true,
          "internalType": "address",
          "name": "newOwner",
          "type": "address"
        }
      ],
      "name": "OwnershipTransferred",
      "type": "event"
    },
    {
      "anonymous": false,
      "inputs": [
        {
          "indexed": true,
          "internalType": "uint256",
          "name": "rideId",
          "type": "uint256"
        },
        {
          "indexed": true,
          "internalType": "address",
          "name": "rater",
          "type": "address"
        },
        {
          "indexed": true,
          "internalType": "address",
          "name": "rated",
          "type": "address"
        },
        {
          "indexed": false,
          "internalType": "uint256",
          "name": "score",
          "type": "uint256"
        }
      ],
      "name": "RatingSubmitted",
      "type": "event"
    },
    {
      "anonymous": false,
      "inputs": [
        {
          "indexed": true,
          "internalType": "uint256",
          "name": "rideId",
          "type": "uint256"
        },
        {
          "indexed": true,
          "internalType": "address",
          "name": "driver",
          "type": "address"
        },
        {
          "indexed": false,
          "internalType": "uint256",
          "name": "agreedFare",
          "type": "uint256"
        }
      ],
      "name": "RideAccepted",
      "type": "event"
    },
    {
      "anonymous": false,
      "inputs": [
        {
          "indexed": true,
          "internalType": "uint256",
          "name": "rideId",
          "type": "uint256"
        }
      ],
      "name": "RideCancelled",
      "type": "event"
    },
    {
      "anonymous": false,
      "inputs": [
        {
          "indexed": true,
          "internalType": "uint256",
          "name": "rideId",
          "type": "uint256"
        },
        {
          "indexed": false,
          "internalType": "uint256",
          "name": "driverPayout",
          "type": "uint256"
        },
        {
          "indexed": false,
          "internalType": "uint256",
          "name": "treasuryFee",
          "type": "uint256"
        }
      ],
      "name": "RideCompleted",
      "type": "event"
    },
    {
      "anonymous": false,
      "inputs": [
        {
          "indexed": true,
          "internalType": "uint256",
          "name": "rideId",
          "type": "uint256"
        },
        {
          "indexed": true,
          "internalType": "address",
          "name": "rider",
          "type": "address"
        },
        {
          "indexed": false,
          "internalType": "bytes32",
          "name": "pickupHash",
          "type": "bytes32"
        },
        {
          "indexed": false,
          "internalType": "bytes32",
          "name": "dropoffHash",
          "type": "bytes32"
        },
        {
          "indexed": false,
          "internalType": "uint256",
          "name": "recommendedFare",
          "type": "uint256"
        },
        {
          "indexed": false,
          "internalType": "uint256",
          "name": "bandMin",
          "type": "uint256"
        },
        {
          "indexed": false,
          "internalType": "uint256",
          "name": "bandMax",
          "type": "uint256"
        }
      ],
      "name": "RideRequested",
      "type": "event"
    },
    {
      "anonymous": false,
      "inputs": [
        {
          "indexed": true,
          "internalType": "uint256",
          "name": "rideId",
          "type": "uint256"
        },
        {
          "indexed": false,
          "internalType": "uint256",
          "name": "startedAt",
          "type": "uint256"
        }
      ],
      "name": "RideStarted",
      "type": "event"
    },
    {
      "anonymous": false,
      "inputs": [
        {
          "indexed": true,
          "internalType": "uint256",
          "name": "rideId",
          "type": "uint256"
        },
        {
          "indexed": false,
          "internalType": "bytes32",
          "name": "routeLogHash",
          "type": "bytes32"
        }
      ],
      "name": "RouteLogSubmitted",
      "type": "event"
    },
    {
      "anonymous": false,
      "inputs": [
        {
          "indexed": true,
          "internalType": "uint256",
          "name": "rideId",
          "type": "uint256"
        },
        {
          "indexed": false,
          "internalType": "address",
          "name": "driver",
          "type": "address"
        }
      ],
      "name": "TimeoutClaimed",
      "type": "event"
    },
    {
      "inputs": [
        {
          "internalType": "uint256",
          "name": "rideId",
          "type": "uint256"
        }
      ],
      "name": "acceptAmendment",
      "outputs": [],
      "stateMutability": "nonpayable",
      "type": "function"
    },
    {
      "inputs": [
        {
          "internalType": "uint256",
          "name": "rideId",
          "type": "uint256"
        }
      ],
      "name": "acceptOffer",
      "outputs": [],
      "stateMutability": "nonpayable",
      "type": "function"
    },
    {
      "inputs": [
        {
          "internalType": "uint256",
          "name": "rideId",
          "type": "uint256"
        }
      ],
      "name": "acceptRecommended",
      "outputs": [],
      "stateMutability": "nonpayable",
      "type": "function"
    },
    {
      "inputs": [],
      "name": "bandMaxPct",
      "outputs": [
        {
          "internalType": "uint256",
          "name": "",
          "type": "uint256"
        }
      ],
      "stateMutability": "view",
      "type": "function"
    },
    {
      "inputs": [],
      "name": "bandMinPct",
      "outputs": [
        {
          "internalType": "uint256",
          "name": "",
          "type": "uint256"
        }
      ],
      "stateMutability": "view",
      "type": "function"
    },
    {
      "inputs": [],
      "name": "bondPct",
      "outputs": [
        {
          "internalType": "uint256",
          "name": "",
          "type": "uint256"
        }
      ],
      "stateMutability": "view",
      "type": "function"
    },
    {
      "inputs": [
        {
          "internalType": "uint256",
          "name": "rideId",
          "type": "uint256"
        }
      ],
      "name": "cancelNegotiation",
      "outputs": [],
      "stateMutability": "nonpayable",
      "type": "function"
    },
    {
      "inputs": [
        {
          "internalType": "uint256",
          "name": "rideId",
          "type": "uint256"
        }
      ],
      "name": "claimTimeout",
      "outputs": [],
      "stateMutability": "nonpayable",
      "type": "function"
    },
    {
      "inputs": [
        {
          "internalType": "uint256",
          "name": "rideId",
          "type": "uint256"
        }
      ],
      "name": "completeRide",
      "outputs": [],
      "stateMutability": "nonpayable",
      "type": "function"
    },
    {
      "inputs": [
        {
          "internalType": "uint256",
          "name": "rideId",
          "type": "uint256"
        },
        {
          "internalType": "uint256",
          "name": "newFare",
          "type": "uint256"
        }
      ],
      "name": "counterOffer",
      "outputs": [],
      "stateMutability": "nonpayable",
      "type": "function"
    },
    {
      "inputs": [
        {
          "internalType": "address",
          "name": "wallet",
          "type": "address"
        }
      ],
      "name": "getAverageScore",
      "outputs": [
        {
          "internalType": "uint256",
          "name": "",
          "type": "uint256"
        }
      ],
      "stateMutability": "view",
      "type": "function"
    },
    {
      "inputs": [
        {
          "internalType": "address",
          "name": "wallet",
          "type": "address"
        }
      ],
      "name": "getReputation",
      "outputs": [
        {
          "components": [
            {
              "internalType": "uint256",
              "name": "totalRides",
              "type": "uint256"
            },
            {
              "internalType": "uint256",
              "name": "ratingSum",
              "type": "uint256"
            },
            {
              "internalType": "uint256",
              "name": "ratingCount",
              "type": "uint256"
            },
            {
              "internalType": "uint256",
              "name": "disputesLost",
              "type": "uint256"
            },
            {
              "internalType": "uint256",
              "name": "completionCount",
              "type": "uint256"
            },
            {
              "internalType": "bool",
              "name": "isVerifiedDriver",
              "type": "bool"
            },
            {
              "internalType": "enum RideHailing.ReputationTier",
              "name": "tier",
              "type": "uint8"
            }
          ],
          "internalType": "struct RideHailing.Reputation",
          "name": "",
          "type": "tuple"
        }
      ],
      "stateMutability": "view",
      "type": "function"
    },
    {
      "inputs": [
        {
          "internalType": "uint256",
          "name": "rideId",
          "type": "uint256"
        }
      ],
      "name": "getRide",
      "outputs": [
        {
          "components": [
            {
              "internalType": "address",
              "name": "rider",
              "type": "address"
            },
            {
              "internalType": "address",
              "name": "driver",
              "type": "address"
            },
            {
              "internalType": "bytes32",
              "name": "pickupHash",
              "type": "bytes32"
            },
            {
              "internalType": "bytes32",
              "name": "dropoffHash",
              "type": "bytes32"
            },
            {
              "internalType": "uint256",
              "name": "recommendedFare",
              "type": "uint256"
            },
            {
              "internalType": "uint256",
              "name": "bandMin",
              "type": "uint256"
            },
            {
              "internalType": "uint256",
              "name": "bandMax",
              "type": "uint256"
            },
            {
              "internalType": "uint256",
              "name": "currentOffer",
              "type": "uint256"
            },
            {
              "internalType": "address",
              "name": "offerFrom",
              "type": "address"
            },
            {
              "internalType": "uint256",
              "name": "negotiationRoundsUsed",
              "type": "uint256"
            },
            {
              "internalType": "uint256",
              "name": "negotiationDeadline",
              "type": "uint256"
            },
            {
              "internalType": "uint256",
              "name": "agreedFare",
              "type": "uint256"
            },
            {
              "internalType": "uint256",
              "name": "driverBond",
              "type": "uint256"
            },
            {
              "internalType": "uint256",
              "name": "requestedAt",
              "type": "uint256"
            },
            {
              "internalType": "uint256",
              "name": "acceptedAt",
              "type": "uint256"
            },
            {
              "internalType": "uint256",
              "name": "startedAt",
              "type": "uint256"
            },
            {
              "internalType": "uint256",
              "name": "expectedDuration",
              "type": "uint256"
            },
            {
              "internalType": "uint256",
              "name": "completedAt",
              "type": "uint256"
            },
            {
              "internalType": "enum RideHailing.RideState",
              "name": "state",
              "type": "uint8"
            },
            {
              "internalType": "bool",
              "name": "amendmentPending",
              "type": "bool"
            },
            {
              "internalType": "bytes32",
              "name": "newDropoffHash",
              "type": "bytes32"
            },
            {
              "internalType": "uint256",
              "name": "newFareProposed",
              "type": "uint256"
            },
            {
              "internalType": "enum RideHailing.DisputeTier",
              "name": "disputeTier",
              "type": "uint8"
            },
            {
              "internalType": "bytes32",
              "name": "evidenceHash",
              "type": "bytes32"
            },
            {
              "internalType": "address",
              "name": "disputeRaisedBy",
              "type": "address"
            },
            {
              "internalType": "bytes32",
              "name": "routeLogHash",
              "type": "bytes32"
            }
          ],
          "internalType": "struct RideHailing.Ride",
          "name": "",
          "type": "tuple"
        }
      ],
      "stateMutability": "view",
      "type": "function"
    },
    {
      "inputs": [],
      "name": "negotiationRounds",
      "outputs": [
        {
          "internalType": "uint256",
          "name": "",
          "type": "uint256"
        }
      ],
      "stateMutability": "view",
      "type": "function"
    },
    {
      "inputs": [],
      "name": "negotiationWindow",
      "outputs": [
        {
          "internalType": "uint256",
          "name": "",
          "type": "uint256"
        }
      ],
      "stateMutability": "view",
      "type": "function"
    },
    {
      "inputs": [],
      "name": "owner",
      "outputs": [
        {
          "internalType": "address",
          "name": "",
          "type": "address"
        }
      ],
      "stateMutability": "view",
      "type": "function"
    },
    {
      "inputs": [],
      "name": "platformFeePct",
      "outputs": [
        {
          "internalType": "uint256",
          "name": "",
          "type": "uint256"
        }
      ],
      "stateMutability": "view",
      "type": "function"
    },
    {
      "inputs": [
        {
          "internalType": "uint256",
          "name": "rideId",
          "type": "uint256"
        },
        {
          "internalType": "bytes32",
          "name": "_newDropoffHash",
          "type": "bytes32"
        },
        {
          "internalType": "uint256",
          "name": "_newFare",
          "type": "uint256"
        }
      ],
      "name": "proposeAmendment",
      "outputs": [],
      "stateMutability": "nonpayable",
      "type": "function"
    },
    {
      "inputs": [
        {
          "internalType": "uint256",
          "name": "rideId",
          "type": "uint256"
        },
        {
          "internalType": "bytes32",
          "name": "_evidenceHash",
          "type": "bytes32"
        }
      ],
      "name": "raiseDispute",
      "outputs": [],
      "stateMutability": "nonpayable",
      "type": "function"
    },
    {
      "inputs": [
        {
          "internalType": "uint256",
          "name": "rideId",
          "type": "uint256"
        }
      ],
      "name": "rejectAmendment",
      "outputs": [],
      "stateMutability": "nonpayable",
      "type": "function"
    },
    {
      "inputs": [],
      "name": "renounceOwnership",
      "outputs": [],
      "stateMutability": "nonpayable",
      "type": "function"
    },
    {
      "inputs": [
        {
          "internalType": "address",
          "name": "",
          "type": "address"
        }
      ],
      "name": "reputations",
      "outputs": [
        {
          "internalType": "uint256",
          "name": "totalRides",
          "type": "uint256"
        },
        {
          "internalType": "uint256",
          "name": "ratingSum",
          "type": "uint256"
        },
        {
          "internalType": "uint256",
          "name": "ratingCount",
          "type": "uint256"
        },
        {
          "internalType": "uint256",
          "name": "disputesLost",
          "type": "uint256"
        },
        {
          "internalType": "uint256",
          "name": "completionCount",
          "type": "uint256"
        },
        {
          "internalType": "bool",
          "name": "isVerifiedDriver",
          "type": "bool"
        },
        {
          "internalType": "enum RideHailing.ReputationTier",
          "name": "tier",
          "type": "uint8"
        }
      ],
      "stateMutability": "view",
      "type": "function"
    },
    {
      "inputs": [
        {
          "internalType": "bytes32",
          "name": "_pickupHash",
          "type": "bytes32"
        },
        {
          "internalType": "bytes32",
          "name": "_dropoffHash",
          "type": "bytes32"
        },
        {
          "internalType": "uint256",
          "name": "_recommendedFare",
          "type": "uint256"
        },
        {
          "internalType": "uint256",
          "name": "_expectedDuration",
          "type": "uint256"
        },
        {
          "internalType": "uint256",
          "name": "_openingOffer",
          "type": "uint256"
        }
      ],
      "name": "requestRide",
      "outputs": [
        {
          "internalType": "uint256",
          "name": "",
          "type": "uint256"
        }
      ],
      "stateMutability": "nonpayable",
      "type": "function"
    },
    {
      "inputs": [
        {
          "internalType": "uint256",
          "name": "rideId",
          "type": "uint256"
        },
        {
          "internalType": "address",
          "name": "winner",
          "type": "address"
        }
      ],
      "name": "resolveByPanel",
      "outputs": [],
      "stateMutability": "nonpayable",
      "type": "function"
    },
    {
      "inputs": [],
      "name": "rideCount",
      "outputs": [
        {
          "internalType": "uint256",
          "name": "",
          "type": "uint256"
        }
      ],
      "stateMutability": "view",
      "type": "function"
    },
    {
      "inputs": [
        {
          "internalType": "uint256",
          "name": "",
          "type": "uint256"
        }
      ],
      "name": "rides",
      "outputs": [
        {
          "internalType": "address",
          "name": "rider",
          "type": "address"
        },
        {
          "internalType": "address",
          "name": "driver",
          "type": "address"
        },
        {
          "internalType": "bytes32",
          "name": "pickupHash",
          "type": "bytes32"
        },
        {
          "internalType": "bytes32",
          "name": "dropoffHash",
          "type": "bytes32"
        },
        {
          "internalType": "uint256",
          "name": "recommendedFare",
          "type": "uint256"
        },
        {
          "internalType": "uint256",
          "name": "bandMin",
          "type": "uint256"
        },
        {
          "internalType": "uint256",
          "name": "bandMax",
          "type": "uint256"
        },
        {
          "internalType": "uint256",
          "name": "currentOffer",
          "type": "uint256"
        },
        {
          "internalType": "address",
          "name": "offerFrom",
          "type": "address"
        },
        {
          "internalType": "uint256",
          "name": "negotiationRoundsUsed",
          "type": "uint256"
        },
        {
          "internalType": "uint256",
          "name": "negotiationDeadline",
          "type": "uint256"
        },
        {
          "internalType": "uint256",
          "name": "agreedFare",
          "type": "uint256"
        },
        {
          "internalType": "uint256",
          "name": "driverBond",
          "type": "uint256"
        },
        {
          "internalType": "uint256",
          "name": "requestedAt",
          "type": "uint256"
        },
        {
          "internalType": "uint256",
          "name": "acceptedAt",
          "type": "uint256"
        },
        {
          "internalType": "uint256",
          "name": "startedAt",
          "type": "uint256"
        },
        {
          "internalType": "uint256",
          "name": "expectedDuration",
          "type": "uint256"
        },
        {
          "internalType": "uint256",
          "name": "completedAt",
          "type": "uint256"
        },
        {
          "internalType": "enum RideHailing.RideState",
          "name": "state",
          "type": "uint8"
        },
        {
          "internalType": "bool",
          "name": "amendmentPending",
          "type": "bool"
        },
        {
          "internalType": "bytes32",
          "name": "newDropoffHash",
          "type": "bytes32"
        },
        {
          "internalType": "uint256",
          "name": "newFareProposed",
          "type": "uint256"
        },
        {
          "internalType": "enum RideHailing.DisputeTier",
          "name": "disputeTier",
          "type": "uint8"
        },
        {
          "internalType": "bytes32",
          "name": "evidenceHash",
          "type": "bytes32"
        },
        {
          "internalType": "address",
          "name": "disputeRaisedBy",
          "type": "address"
        },
        {
          "internalType": "bytes32",
          "name": "routeLogHash",
          "type": "bytes32"
        }
      ],
      "stateMutability": "view",
      "type": "function"
    },
    {
      "inputs": [
        {
          "internalType": "uint256",
          "name": "_pct",
          "type": "uint256"
        }
      ],
      "name": "setBondPct",
      "outputs": [],
      "stateMutability": "nonpayable",
      "type": "function"
    },
    {
      "inputs": [
        {
          "internalType": "uint256",
          "name": "_pct",
          "type": "uint256"
        }
      ],
      "name": "setPlatformFee",
      "outputs": [],
      "stateMutability": "nonpayable",
      "type": "function"
    },
    {
      "inputs": [
        {
          "internalType": "uint256",
          "name": "_seconds",
          "type": "uint256"
        }
      ],
      "name": "setTimeoutWindow",
      "outputs": [],
      "stateMutability": "nonpayable",
      "type": "function"
    },
    {
      "inputs": [
        {
          "internalType": "address",
          "name": "_treasury",
          "type": "address"
        }
      ],
      "name": "setTreasury",
      "outputs": [],
      "stateMutability": "nonpayable",
      "type": "function"
    },
    {
      "inputs": [
        {
          "internalType": "uint256",
          "name": "rideId",
          "type": "uint256"
        }
      ],
      "name": "startRide",
      "outputs": [],
      "stateMutability": "nonpayable",
      "type": "function"
    },
    {
      "inputs": [
        {
          "internalType": "uint256",
          "name": "rideId",
          "type": "uint256"
        },
        {
          "internalType": "uint256",
          "name": "score",
          "type": "uint256"
        }
      ],
      "name": "submitRating",
      "outputs": [],
      "stateMutability": "nonpayable",
      "type": "function"
    },
    {
      "inputs": [
        {
          "internalType": "uint256",
          "name": "rideId",
          "type": "uint256"
        },
        {
          "internalType": "bytes32",
          "name": "_routeLogHash",
          "type": "bytes32"
        }
      ],
      "name": "submitRouteLog",
      "outputs": [],
      "stateMutability": "nonpayable",
      "type": "function"
    },
    {
      "inputs": [],
      "name": "timeoutWindow",
      "outputs": [
        {
          "internalType": "uint256",
          "name": "",
          "type": "uint256"
        }
      ],
      "stateMutability": "view",
      "type": "function"
    },
    {
      "inputs": [
        {
          "internalType": "address",
          "name": "newOwner",
          "type": "address"
        }
      ],
      "name": "transferOwnership",
      "outputs": [],
      "stateMutability": "nonpayable",
      "type": "function"
    },
    {
      "inputs": [],
      "name": "treasury",
      "outputs": [
        {
          "internalType": "address",
          "name": "",
          "type": "address"
        }
      ],
      "stateMutability": "view",
      "type": "function"
    },
    {
      "inputs": [],
      "name": "usdc",
      "outputs": [
        {
          "internalType": "contract IERC20",
          "name": "",
          "type": "address"
        }
      ],
      "stateMutability": "view",
      "type": "function"
    },
    {
      "inputs": [
        {
          "internalType": "address",
          "name": "driver",
          "type": "address"
        }
      ],
      "name": "verifyDriver",
      "outputs": [],
      "stateMutability": "nonpayable",
      "type": "function"
    }
  ],
  "bytecode": "0x608034620000f557601f6200368438819003918201601f19168301916001600160401b03831184841017620000fa578084926040948552833981010312620000f5576200005a6020620000528362000110565b920162000110565b6001600081815581546001600160a01b0319808216339081179094556040519590946001600160a01b0394909385938416907f8be0079c531659141344cd1fd0a4f28419497f9722a3daafe3b4186f6b6457e09080a36005600455600a600555610708600655600560075560b4600855604b6009556085600a55168360025416176002551690600354161760035561355e9081620001268239f35b600080fd5b634e487b7160e01b600052604160045260246000fd5b51906001600160a01b0382168203620000f55756fe61022080604052600436101561001457600080fd5b60003560e01c90816306fa15a7146127a957508063101aafaf146126ee57806312e8e2c3146126895780631f748c421461266b578063266795d41461257a5780632fca747a1461255c5780633049ae2a1461253e5780633264f266146124db5780633e413bee146124b25780634668781e146124945780634780f77e14612476578063503c5dce146120325780635205f11214611e0557806361d027b314611ddc578063636bf26d14611ca05780637085117114611add578063715018a614611a8057806375c74008146118355780637bab34fa146118175780637c7b0ff4146114905780637ee6e8e01461147257806386e773f1146112c95780638945bd28146112635780638beed922146111b15780638da5cb5b146111885780639006b4f6146110ed5780639c89a0e214610fe6578063a0cdc6c514610e76578063a329d22114610c80578063b47c188314610c62578063b8728c351461099e578063c416dd0b146108de578063c815729d14610472578063d06509fd14610447578063e9c14b1e14610384578063f0f44260146102f7578063f2fde38b146102335763fd096d59146101c257600080fd5b3461022e57602036600319011261022e576101db61282a565b6101e361286d565b6001600160a01b03166000818152600c60205260408120600501805460ff191660011790557f657e787a6e7f3e5131cd8b43ac34ad906223090017fd6d34efbd75f5b9e2cf919080a2005b600080fd5b3461022e57602036600319011261022e5761024c61282a565b61025461286d565b6001600160a01b039081169081156102a357600154826001600160601b0360a01b821617600155167f8be0079c531659141344cd1fd0a4f28419497f9722a3daafe3b4186f6b6457e0600080a3005b60405162461bcd60e51b815260206004820152602660248201527f4f776e61626c653a206e6577206f776e657220697320746865207a65726f206160448201526564647265737360d01b6064820152608490fd5b3461022e57602036600319011261022e5761031061282a565b61031861286d565b6001600160a01b0316801561033f576001600160601b0360a01b6003541617600355600080f35b60405162461bcd60e51b815260206004820152601860248201527f496e76616c6964207472656173757279206164647265737300000000000000006044820152606490fd5b3461022e57602036600319011261022e5760043580600052600b6020526103b960018060a01b03604060002054163314612914565b80600052600b60205260ff6012604060002001541660068110156104315760016103e39114612960565b80600052600b6020526012604060002042600f82015501600260ff198254161790557f884e74a3db749c25405961706345237200f5c61a4928338e070b2e6422da2e626020604051428152a2005b634e487b7160e01b600052602160045260246000fd5b3461022e57602036600319011261022e57602061046a61046561282a565b613463565b604051908152f35b3461022e5760208060031936011261022e5760043561048f612a8b565b80600052600b825260ff601260406000200154166006811015610431576104b69015612960565b80600052600b82526040600020916104d4600a8401544211156129b6565b60088301546001600160a01b0390811633146108995780845416938433148015908161087f575b15610829576107c4575b600781015490600b81019582875584600183019385855416600052600c825260ff60056040600020015460081c1660009061053f81612840565b801580156107b1575b15610752575050906105c560009260126064610566600554846128c5565b04965b600c810188905542600e82015501805460ff191660011790556002546040516323b872dd60e01b8082526001600160a01b0390971660048201523060248201526044810192909252909384929189169183919082906064820190565b03925af19081156106e457600091610735575b50156106f0578161061c575b5050907f44d2438f8c7773102e178fde6e6e3f82515d4f80c38c5a1e5f36bcb01f6322f1929154169354604051908152a36001600055005b600254835460405192835285166001600160a01b0316600483015230602483015260448201929092529084908290606490829060009088165af19081156106e4576000916106b7575b50156106725785806105e4565b60405162461bcd60e51b815260048101849052601a60248201527f44726976657220626f6e64206465706f736974206661696c65640000000000006044820152606490fd5b6106d79150843d86116106dd575b6106cf8183612a51565b810190612a73565b86610665565b503d6106c5565b6040513d6000823e3d90fd5b60405162461bcd60e51b815260048101869052601960248201527f52696465722055534443206465706f736974206661696c6564000000000000006044820152606490fd5b61074c9150863d88116106dd576106cf8183612a51565b886105d8565b80610761600292979397612840565b14610776575b6000929160126105c592610569565b9350905060058102908082046005148115171561079b57606490910492869190610767565b634e487b7160e01b600052601160045260246000fd5b506107bb81612840565b60018114610548565b6001810180548381166107e4576001600160a01b03191633179055610505565b60405162461bcd60e51b815260048101869052601960248201527f5269646520616c726561647920686173206120647269766572000000000000006044820152606490fd5b60405162461bcd60e51b815260048101859052602860248201527f4f6e6c79207269646572206f72207665726966696564206472697665722063616044820152671b881858d8d95c1d60c21b6064820152608490fd5b5033600052600c845260ff600560406000200154166104fb565b60405162461bcd60e51b815260048101839052601c60248201527f43616e6e6f742061636365707420796f7572206f776e206f66666572000000006044820152606490fd5b3461022e57602036600319011261022e5760043580600052600b60205260018060a01b039061091582604060002054163314612914565b80600052600b60205260ff601260406000200154169160068310156104315761094360026109979414612960565b61094b612a8b565b81600052600b602052610987604060002092601284016003815461097560ff8260081c1615612b7d565b42601188015560ff1916179055612c4d565b80600183015416915416906132ce565b6001600055005b3461022e5760208060031936011261022e576004359081600052600b815260018060a01b03906109d982600160406000200154163314612ae1565b82600052600b815260ff601260406000200154166006811015610431576002610a029114612960565b610a0a612a8b565b82600052600b815260406000206012810190610a2c60ff835460081c16612b2d565b600b8101805484601484015496828811600014610b61579182610a5b610a96946002541691875416928a612b70565b6040516323b872dd60e01b81526001600160a01b03909316600484015230602484015260448301529092839190829060009082906064820190565b03925af19081156106e457600091610b44575b5015610aff579260039285927f363e356deb2c47a81a1625ab07673e446497a542c1f228e0231e679af8010213966040965b5560138101549401849055805461ff00191690558351928352820152a26001600055005b60405162461bcd60e51b815260048101859052601e60248201527f4164646974696f6e616c2066617265207061796d656e74206661696c656400006044820152606490fd5b610b5b9150853d87116106dd576106cf8183612a51565b87610aa9565b9050818710610b9d575b50509260039285927f363e356deb2c47a81a1625ab07673e446497a542c1f228e0231e679af801021396604096610adb565b610beb9181610bb6898994600254169288541693612b70565b60405163a9059cbb60e01b81526001600160a01b03909316600484015260248301529092839190829060009082906044820190565b03925af19081156106e457600091610c45575b5015610c0b578680610b6b565b60405162461bcd60e51b815260048101859052601260248201527111985c99481c99599d5b990819985a5b195960721b6044820152606490fd5b610c5c9150853d87116106dd576106cf8183612a51565b87610bfe565b3461022e57600036600319011261022e576020600d54604051908152f35b3461022e5760a036600319011261022e576044356024356084356004358315610e31576064610cb1600954866128c5565b046064610cc0600a54876128c5565b04908084101580610e27575b15610dd357602095610cdf600d546128f8565b9586600d5586600052600b8852601260406000206001600160601b0360a01b338183541617825587600283015583600383015584600483015585600583015586600683015588600783015560088201903390825416179055610d4360085442612907565b600a82015542600d82015560643560108201550160ff19815416905560405194855287850152604084015260608301526080820152827f715f9c7945fde2a603ec88efd3acfdbf83bd75a8b0228c8a854384039623111960a03393a3604051908152817fbdf1e76c2ba2a5c85b93bf78678a4a3b06d63b18422612dac8d7d5249ed46714843393a3604051908152f35b60405162461bcd60e51b815260206004820152602660248201527f4f70656e696e67206f66666572206f757473696465206e65676f74696174696f6044820152651b8818985b9960d21b6064820152608490fd5b5081841115610ccc565b60405162461bcd60e51b815260206004820152601e60248201527f46617265206d7573742062652067726561746572207468616e207a65726f00006044820152606490fd5b3461022e57606036600319011261022e57600435602435604435826000526020600b8152610eb260018060a01b03604060002054163314612914565b83600052600b815260ff601260406000200154166006811015610431576002610edb9114612960565b83600052600b8152604060002060128101805460ff8160081c16610fa157600583015485101580610f93575b15610f565793601481937f1d827405b2ff829e89abe7167a97cce740e9d6cc191e135566be04be196d560b97959361010060409861ff00191617905585601382015501558351928352820152a2005b60405162461bcd60e51b815260048101859052601560248201527413995dc819985c99481bdd5d1cda59194818985b99605a1b6044820152606490fd5b506006830154851115610f07565b60405162461bcd60e51b815260048101859052601960248201527f416d656e646d656e7420616c72656164792070656e64696e67000000000000006044820152606490fd5b3461022e57602036600319011261022e57610fff61282a565b600060c060405161100f81612a35565b8281528260208201528260408201528260608201528260808201528260a0820152015260018060a01b0316600052600c60205260e060406000206040519061105682612a35565b80548252600181015490602083019182526002810154906040840191825260038101546060850190815260056004830154926080870193845201549260ff60a08701948181161515865260081c169460c08701956110b381612840565b86526040519651875251602087015251604086015251606085015251608084015251151560a0830152516110e681612840565b60c0820152f35b3461022e576110fb36612857565b81600052600b60205261111f60018060a01b03600160406000200154163314612ae1565b81600052600b60205260ff601260406000200154166006811015610431577f992832964a8665164f734a66e8372a10a53b1a2d75a0645ceac6d9eaec28c0049161116d600260209314612960565b83600052600b825280601860406000200155604051908152a2005b3461022e57600036600319011261022e576001546040516001600160a01b039091168152602090f35b3461022e57602036600319011261022e5760043580600052600b6020526111e960018060a01b03600160406000200154163314612ae1565b80600052600b60205260ff6012604060002001541660068110156104315760026112139114612960565b80600052600b6020526012604060002001805461123560ff8260081c16612b2d565b61ff00191690557f71f1f55fb89ac764c73bee032aec484a506126af59a9c9665037abc69798e6c5600080a2005b3461022e57602036600319011261022e5760043561127f61286d565b6014811161128c57600555005b60405162461bcd60e51b81526020600482015260156024820152740426f6e642063616e6e6f742065786365656420323605c1b6044820152606490fd5b3461022e5760208060031936011261022e576004359081600052600b815260018060a01b0361130381600160406000200154163314612ae1565b82600052600b825260ff60126040600020015416600681101561043157600261132c9114612960565b611334612a8b565b82600052600b825260406000209060128201805460ff811660068110156104315760041461142d5761136c60ff8260081c1615612b7d565b61138b611382600f860154601087015490612907565b60065490612907565b42106113de5742601185015560ff191660031790557f2506b4eed08805d7166c29cfd21dbb2c2b7f3009ca99b3cf919dd573ed05ad5192916113d09161098786612c4d565b604051338152a26001600055005b60405162461bcd60e51b815260048101869052602160248201527f54696d656f75742077696e646f7720686173206e6f74207061737365642079656044820152601d60fa1b6064820152608490fd5b60405162461bcd60e51b815260048101869052601e60248201527f43616e6e6f742074696d656f75742061206469737075746564207269646500006044820152606490fd5b3461022e57600036600319011261022e576020600454604051908152f35b3461022e57602036600319011261022e5760006103206040516114b281612a02565b8281528260208201528260408201528260608201528260808201528260a08201528260c08201528260e08201528261010082015282610120820152826101408201528261016082015282610180820152826101a0820152826101c0820152826101e08201528261020082015282610220820152826102408201528261026082015282610280820152826102a0820152826102c0820152826102e0820152826103008201520152600435600052600b602052604060002060405161157481612a02565b81546001600160a01b039081168252600183015481166020830152600283015460408301526003830154606083015260048301546080830152600583015460a083015260068084015460c0840152600784015460e084015260088401549091166101008301526009830154610120830152600a830154610140830152600b830154610160830152600c830154610180830152600d8301546101a0830152600e8301546101c0830152600f8301546101e08301526010830154610200830152601183015461022083015260128301549060ff82161015610431576103409260ff82816018941661024086015260081c161515610260840152601381015461028084015260148101546102a084015260ff60158201541661169281612840565b6102c084015260168101546102e084015260018060a01b0360178201541661030084015201546103208201526103206040519160018060a01b03815116835260018060a01b03602082015116602084015260408101516040840152606081015160608401526080810151608084015260a081015160a084015260c081015160c084015260e081015160e084015260018060a01b03610100820151166101008401526101208101516101208401526101408101516101408401526101608101516101608401526101808101516101808401526101a08101516101a08401526101c08101516101c08401526101e08101516101e08401526102008101516102008401526102208101516102208401526117b361024082015161024085019061284a565b61026081015115156102608401526102808101516102808401526102a08101516102a08401526102c08101516117e881612840565b6102c08401526102e08181015190840152610300808201516001600160a01b0316908401520151610320820152f35b3461022e57600036600319011261022e576020600954604051908152f35b3461022e5761184336612857565b90806000526020600b815260ff6012604060002001541660068110156104315761186d9015612960565b81600052600b8152604060002061188a600a8201544211156129b6565b6009810190815490600754821015611a3057600581015486101580611a22575b156119dd5760088101805490916001600160a01b033381841614611998578154163314801561197e575b15611927576007018790556001600160a01b031916331790557fbdf1e76c2ba2a5c85b93bf78678a4a3b06d63b18422612dac8d7d5249ed4671492919061191a906128f8565b90556040519384523393a3005b60405162461bcd60e51b815260048101879052602960248201527f4f6e6c79207269646572206f7220766572696669656420647269766572206361604482015268371031b7bab73a32b960b91b6064820152608490fd5b5033600052600c865260ff600560406000200154166118d4565b60405162461bcd60e51b815260048101889052601d60248201527f43616e6e6f7420636f756e74657220796f7572206f776e206f666665720000006044820152606490fd5b60405162461bcd60e51b815260048101859052601e60248201527f4f66666572206f757473696465206e65676f74696174696f6e2062616e6400006044820152606490fd5b5060068101548611156118aa565b60405162461bcd60e51b815260048101859052602260248201527f4d6178696d756d206e65676f74696174696f6e20726f756e6473207265616368604482015261195960f21b6064820152608490fd5b3461022e57600036600319011261022e57611a9961286d565b600180546001600160a01b031981169091556000906001600160a01b03167f8be0079c531659141344cd1fd0a4f28419497f9722a3daafe3b4186f6b6457e08280a3005b3461022e57611aeb36612857565b81600052602091600b835260406000209260ff601285015416600681101561043157600303611c6757600183101580611c5c575b15611c215783546001600160a01b0394908516338114808015611c12575b15611bcd577fac4cf76091aa7bcbda7b8effaef21948aff7d58739956ca66de94676bf466b5e9392611bb992889215611bc457506001015416955b86169586600052600c83526001604060002001611b96878254612907565b905586600052600c83526002604060002001611bb281546128f8565b9055613331565b6040519384523393a4005b91505095611b78565b60405162461bcd60e51b815260048101859052601f60248201527f4f6e6c792072696465207061727469636970616e74732063616e2072617465006044820152606490fd5b50866001840154163314611b3d565b6064906040519062461bcd60e51b82526004820152601460248201527353636f7265206d757374206265203120746f203560601b6044820152fd5b506005831115611b1f565b6064906040519062461bcd60e51b825260048201526012602482015271149a5919481b9bdd0818dbdb5c1b195d195960721b6044820152fd5b3461022e57611cae36612857565b9080600052600b60205260ff601260406000200154166006811015610431576002611cd99114612960565b80600052600b60205260406000209160018060a01b03808454163314908115611dcc575b5015611d785760016015846012611d7696019360ff1994600486825416179055601682015560178101336001600160601b0360a01b8254161790550191825416179055807ff62c8bde4b16ee761026513cacca0a3cfaf76d09e3d25a1be1e4a7da30d8bf7c6040805133815260016020820152a2612e75565b005b60405162461bcd60e51b815260206004820152602660248201527f4f6e6c79207269646572206f72206472697665722063616e207261697365206460448201526569737075746560d01b6064820152608490fd5b9050600184015416331484611cfd565b3461022e57600036600319011261022e576003546040516001600160a01b039091168152602090f35b3461022e57602036600319011261022e57600435600052600b60205260406000208061018052808080808080808080808080806018600f600e600d600c600b600a6009600760066005600460038d60018060a01b039054169d60018060a01b0360018201541660a052600281015460c05201549d01549d01549d01549d01549d600860018060a01b03910154169e01549e01549e01549e01549e01549e01549e01549e60108101546102005260118101546101a052601281015460e05260138101546101005260148101546101405260ff6015820154166101205260168101546101c05260018060a01b036017820154166101e052015460805260405180610160525260a051602061016051015260c05160406101605101526060610160510152608061016051015260a061016051015260c061016051015260e0610160510152610100610160510152610120610160510152610140610160510152610160805101526101806101605101526101a06101605101526101c06101605101526101e0610160510152610200516102006101605101526101a051610220610160510152611fbc610240610160510160ff60e0511661284a565b60ff60e05160081c16151561026061016051015261010051610280610160510152610140516102a0610160510152611ff661012051612840565b610120516102c06101605101526101c0516102e06101605101526101e05161030061016051015260805161032061016051015261034061016051f35b3461022e57604036600319011261022e576004356024356001600160a01b038181169182900361022e5761206461286d565b82600052602090600b825260ff6012604060002001541660068110156104315760046120909114612960565b612098612a8b565b6000848152600b83526040902060128101805460ff19166003179055805482168403612277576002548154600b83015460405163a9059cbb60e01b8082529286166001600160a01b0316600482015260248101919091529091859082908616816000816044810103925af19081156106e45760009161225a575b501561221f57600c8201549081612178575b5050604092612168600080516020613509833981519152959360016002940181815416600052600c84526003876000200161215f81546128f8565b90555416613331565b8351928352820152a26001600055005b60025460035460405192835285166001600160a01b0316600483015260248201929092529084908290604490829060009088165af19081156106e457600091612202575b50156121c9578580612124565b60405162461bcd60e51b8152600481018490526011602482015270109bdb99081cdb185cda0819985a5b1959607a1b6044820152606490fd5b6122199150843d86116106dd576106cf8183612a51565b866121bc565b60405162461bcd60e51b8152600481018590526013602482015272149a59195c881c99599d5b990819985a5b1959606a1b6044820152606490fd5b6122719150853d87116106dd576106cf8183612a51565b87612112565b600b8101546000612297606461228f600454856128c5565b048093612b70565b60025460018501805460405163a9059cbb60e01b8082529189166001600160a01b03166004820152602481019490945294929390918891859160449183918b165af19283156106e45787936122f491600091612459575b50612bc9565b600c85015490816123df575b505060025460035460405194855286166001600160a01b0316600485015260248401919091528290851681600081604481015b03925af19081156106e4576000916123c2575b501561238757604092612382838360008051602061350983398151915297956002955416600052600c84526003876000200161215f81546128f8565b612168565b60405162461bcd60e51b8152600481018490526013602482015272151c99585cdd5c9e481999594819985a5b1959606a1b6044820152606490fd5b6123d99150843d86116106dd576106cf8183612a51565b86612346565b60025490546040518681529088166001600160a01b0316600482015260248101929092529093929084908716816000816044810103925af19182156106e45761243587936123339560009161243c575b50612c0c565b9289612300565b6124539150853d87116106dd576106cf8183612a51565b8b61242f565b6124709150853d87116106dd576106cf8183612a51565b8b6122ee565b3461022e57600036600319011261022e576020600754604051908152f35b3461022e57600036600319011261022e576020600854604051908152f35b3461022e57600036600319011261022e576002546040516001600160a01b039091168152602090f35b3461022e57602036600319011261022e576004356124f761286d565b610258811061250557600655005b60405162461bcd60e51b8152602060048201526011602482015270151a5b595bdd5d081d1bdbc81cda1bdc9d607a1b6044820152606490fd5b3461022e57600036600319011261022e576020600654604051908152f35b3461022e57600036600319011261022e576020600a54604051908152f35b3461022e57602036600319011261022e5760043580600052600b60205260ff601260406000200154166006811015610431576125b69015612960565b6000818152600b602052604090208054336001600160a01b039182161490811561265b575b501561261657601201805460ff191660051790557f0c23eb44b06124e00526761c3c77095fc814bb72c9be3ac1e58f0bc2ebfe4f7e600080a2005b60405162461bcd60e51b815260206004820152601f60248201527f4f6e6c79207269646572206f72206472697665722063616e2063616e63656c006044820152606490fd5b90506001820154163314836125db565b3461022e57600036600319011261022e576020600554604051908152f35b3461022e57602036600319011261022e576004356126a561286d565b600a81116126b257600455005b60405162461bcd60e51b815260206004820152601460248201527304665652063616e6e6f74206578636565642031360641b6044820152606490fd5b3461022e57602036600319011261022e5760043580600052600b60205261272360018060a01b03604060002054163314612914565b80600052600b60205260ff6012604060002001541660068110156104315761274b9015612960565b80600052600b602052604060002090600860048301549283600782015501336001600160601b0360a01b8254161790556040519182527fbdf1e76c2ba2a5c85b93bf78678a4a3b06d63b18422612dac8d7d5249ed4671460203393a3005b3461022e57602036600319011261022e5760e0906001600160a01b036127cd61282a565b16600052600c602052604060002060ff81549160018101549060028101546003820154906005600484015493015493858560081c16968852602088015260408701526060860152608085015216151560a08301526110e681612840565b600435906001600160a01b038216820361022e57565b6004111561043157565b9060068210156104315752565b604090600319011261022e576004359060243590565b6001546001600160a01b0316330361288157565b606460405162461bcd60e51b815260206004820152602060248201527f4f776e61626c653a2063616c6c6572206973206e6f7420746865206f776e65726044820152fd5b8181029291811591840414171561079b57565b81156128e2570490565b634e487b7160e01b600052601260045260246000fd5b600019811461079b5760010190565b9190820180921161079b57565b1561291b57565b60405162461bcd60e51b815260206004820152601a60248201527f4f6e6c79207468652072696465722063616e20646f20746869730000000000006044820152606490fd5b1561296757565b60405162461bcd60e51b815260206004820152602160248201527f52696465206973206e6f7420696e2074686520726571756972656420737461746044820152606560f81b6064820152608490fd5b156129bd57565b60405162461bcd60e51b815260206004820152601d60248201527f4e65676f74696174696f6e2077696e646f772068617320636c6f7365640000006044820152606490fd5b610340810190811067ffffffffffffffff821117612a1f57604052565b634e487b7160e01b600052604160045260246000fd5b60e0810190811067ffffffffffffffff821117612a1f57604052565b90601f8019910116810190811067ffffffffffffffff821117612a1f57604052565b9081602091031261022e5751801515810361022e5790565b600260005414612a9c576002600055565b60405162461bcd60e51b815260206004820152601f60248201527f5265656e7472616e637947756172643a207265656e7472616e742063616c6c006044820152606490fd5b15612ae857565b60405162461bcd60e51b815260206004820152601b60248201527f4f6e6c7920746865206472697665722063616e20646f207468697300000000006044820152606490fd5b15612b3457565b60405162461bcd60e51b81526020600482015260146024820152734e6f20616d656e646d656e742070656e64696e6760601b6044820152606490fd5b9190820391821161079b57565b15612b8457565b60405162461bcd60e51b815260206004820152601f60248201527f5265736f6c76652070656e64696e6720616d656e646d656e74206669727374006044820152606490fd5b15612bd057565b60405162461bcd60e51b8152602060048201526014602482015273111c9a5d995c881c185e5bdd5d0819985a5b195960621b6044820152606490fd5b15612c1357565b60405162461bcd60e51b8152602060048201526012602482015271109bdb99081c995d1d5c9b8819985a5b195960721b6044820152606490fd5b60008181526020600b815260409182812091600b83015491612c7e6064612c76600454866128c5565b048094612b70565b600254600186018054885163a9059cbb60e01b8082526001600160a01b0392831660048301526024820186905294989194938790829060449082908a908a165af1908115612e6b57879492612cde8a9593600c938a91612e4e5750612bc9565b01549081612dc8575b50506002546003548a5192835285166001600160a01b03166004830152602482019290925292839116818581604481015b03925af1918215612dbd5791612da0575b5015612d5d5783519283528201527f316ea47554d67fa539d67f093997afb15473b08c9eff898d60111cb33bcb14679190a2565b60649084519062461bcd60e51b82526004820152601c60248201527f547265617375727920666565207472616e73666572206661696c6564000000006044820152fd5b612db79150823d84116106dd576106cf8183612a51565b38612d29565b8651903d90823e3d90fd5b60025490548b518481529087166001600160a01b031660048201526024810192909252919390925090829085168187816044810103925af1908115612e4457928592612e1f8893612d18968891612e275750612c0c565b909338612ce7565b612e3e9150863d88116106dd576106cf8183612a51565b3861242f565b88513d86823e3d90fd5b612e659150883d8a116106dd576106cf8183612a51565b386122ee565b8a513d88823e3d90fd5b60008181526020600b815260409182812090601882015415612ee4575060158101805460ff1916600290811790915560179091015483516001600160a01b03919091168152918201527ff62c8bde4b16ee761026513cacca0a3cfaf76d09e3d25a1be1e4a7da30d8bf7c9190a2565b9294939160018060a01b038092541691612efc612a8b565b838552600b825286852060128101805460ff191660031790558054821684036130d5576002548154600b8301548a5163a9059cbb60e01b8082529286166001600160a01b0316600482015260248101919091529091859082908616818b816044810103925af19081156130cb5788916130ae575b501561307457600c8201549081612fc7575b50506001969792612fbb600080516020613509833981519152959389809401818154168a52600c84526003878b200161215f81546128f8565b8351928352820152a255565b6002546003548b5192835285166001600160a01b031660048301526024820192909252908490829060449082908b9088165af190811561306a57879161304d575b5015613015573880612f82565b875162461bcd60e51b8152600481018490526011602482015270109bdb99081cdb185cda0819985a5b1959607a1b6044820152606490fd5b6130649150843d86116106dd576106cf8183612a51565b38613008565b89513d89823e3d90fd5b885162461bcd60e51b8152600481018590526013602482015272149a59195c881c99599d5b990819985a5b1959606a1b6044820152606490fd5b6130c59150853d87116106dd576106cf8183612a51565b38612f70565b8a513d8a823e3d90fd5b600b810154886130ec606461228f600454856128c5565b600254600185018054935163a9059cbb60e01b8082529488166001600160a01b0316600482015260248101939093529190879082908816818d816044810103925af19081156132c45787939291613149918c916132ad5750612bc9565b600c8501549081613230575b50506002546003548c5192835286166001600160a01b0316600483015260248201939093529182908516818a81604481015b03925af190811561306a578791613213575b50156131d95760019697926131d4838360008051602061350983398151915297958b9554168a52600c84526003878b200161215f81546128f8565b612fbb565b875162461bcd60e51b8152600481018490526013602482015272151c99585cdd5c9e481999594819985a5b1959606a1b6044820152606490fd5b61322a9150843d86116106dd576106cf8183612a51565b38613199565b60025490548d518481529088166001600160a01b0316600482015260248101929092529192909182908716818c816044810103925af19081156132a35791613284613187949288948c9161328c5750612c0c565b909238613155565b612e3e9150853d87116106dd576106cf8183612a51565b8b513d8b823e3d90fd5b612e659150853d87116106dd576106cf8183612a51565b8c513d8c823e3d90fd5b9061332a61332f92604060018060a01b0380831690600091808352600c6020528383206132fb81546128f8565b90558252600c60205260048383200161331481546128f8565b905585168152600c60205220611bb281546128f8565b613331565b565b6001600160a01b03166000908152600c602052604081208054919291600a11613453576002810154801561343e576001820154600a810290808204600a149015171561342a5790613381916128d8565b60026003830154116133e9575b919250600591603081106133ad575001805461ff001916610300179055565b602b81106133c6575001805461ff001916610200179055565b6023116133dd5701805461ff001916610100179055565b01805461ff0019169055565b600a81111561342057600919810190811161340c5760059293505b83925061338e565b634e487b7160e01b84526011600452602484fd5b5060059192613404565b634e487b7160e01b85526011600452602485fd5b50600501805461ff0019166101001790559050565b600501805461ff00191690559050565b60018060a01b0316600052600c602052604060002060405161348481612a35565b815481526001820154906020810191825260c060ff60056002860154956040850196875260038101546060860152600481015460808601520154818116151560a085015260081c16916134d683612840565b01528151156135015751600a810290808204600a149015171561079b576134fe9151906128d8565b90565b505060009056fe0a1a08d07b8bb2ef5e6eea14f3719239138f1ce03a4ceea3196c1000a265c12aa264697066735822122040e56ae339cd5dfae2ea161d65b3587357544b41269f2c36235b8a923c1ee65e64736f6c63430008140033",
  "linkReferences": {},
  "deployedLinkReferences": {}
}